
3phi_pfc_h750.elf:     file format elf32-littlearm

Sections:
Idx Name          Size      VMA       LMA       File off  Algn
  0 .isr_vector   00000298  08000000  08000000  00010000  2**0
                  CONTENTS, ALLOC, LOAD, READONLY, DATA
  1 .text         0000eea4  080002a0  080002a0  000102a0  2**4
                  CONTENTS, ALLOC, LOAD, READONLY, CODE
  2 .rodata       000003fc  0800f148  0800f148  0001f148  2**3
                  CONTENTS, ALLOC, LOAD, READONLY, DATA
  3 .init_array   00000004  0800f544  0800f544  0001f544  2**2
                  CONTENTS, ALLOC, LOAD, DATA
  4 .fini_array   00000004  0800f548  0800f548  0001f548  2**2
                  CONTENTS, ALLOC, LOAD, DATA
  5 .data         000001ec  24000000  0800f54c  00020000  2**2
                  CONTENTS, ALLOC, LOAD, DATA
  6 .bss          0000071c  240001ec  0800f738  000201ec  2**2
                  ALLOC
  7 ._user_heap_stack 00000600  24000908  0800f738  00020908  2**0
                  ALLOC
  8 .ARM.attributes 0000002e  00000000  00000000  000201ec  2**0
                  CONTENTS, READONLY
  9 .debug_info   0002baa9  00000000  00000000  0002021a  2**0
                  CONTENTS, READONLY, DEBUGGING, OCTETS
 10 .debug_abbrev 00003da6  00000000  00000000  0004bcc3  2**0
                  CONTENTS, READONLY, DEBUGGING, OCTETS
 11 .debug_aranges 000019e0  00000000  00000000  0004fa70  2**3
                  CONTENTS, READONLY, DEBUGGING, OCTETS
 12 .debug_ranges 00001888  00000000  00000000  00051450  2**3
                  CONTENTS, READONLY, DEBUGGING, OCTETS
 13 .debug_macro  0003b801  00000000  00000000  00052cd8  2**0
                  CONTENTS, READONLY, DEBUGGING, OCTETS
 14 .debug_line   0001fa37  00000000  00000000  0008e4d9  2**0
                  CONTENTS, READONLY, DEBUGGING, OCTETS
 15 .debug_str    00187ef5  00000000  00000000  000adf10  2**0
                  CONTENTS, READONLY, DEBUGGING, OCTETS
 16 .comment      00000053  00000000  00000000  00235e05  2**0
                  CONTENTS, READONLY
 17 .debug_frame  00007f48  00000000  00000000  00235e58  2**2
                  CONTENTS, READONLY, DEBUGGING, OCTETS

Disassembly of section .text:

080002a0 <__do_global_dtors_aux>:
 80002a0:	b510      	push	{r4, lr}
 80002a2:	4c05      	ldr	r4, [pc, #20]	; (80002b8 <__do_global_dtors_aux+0x18>)
 80002a4:	7823      	ldrb	r3, [r4, #0]
 80002a6:	b933      	cbnz	r3, 80002b6 <__do_global_dtors_aux+0x16>
 80002a8:	4b04      	ldr	r3, [pc, #16]	; (80002bc <__do_global_dtors_aux+0x1c>)
 80002aa:	b113      	cbz	r3, 80002b2 <__do_global_dtors_aux+0x12>
 80002ac:	4804      	ldr	r0, [pc, #16]	; (80002c0 <__do_global_dtors_aux+0x20>)
 80002ae:	f3af 8000 	nop.w
 80002b2:	2301      	movs	r3, #1
 80002b4:	7023      	strb	r3, [r4, #0]
 80002b6:	bd10      	pop	{r4, pc}
 80002b8:	240001ec 	.word	0x240001ec
 80002bc:	00000000 	.word	0x00000000
 80002c0:	0800f12c 	.word	0x0800f12c

080002c4 <frame_dummy>:
 80002c4:	b508      	push	{r3, lr}
 80002c6:	4b03      	ldr	r3, [pc, #12]	; (80002d4 <frame_dummy+0x10>)
 80002c8:	b11b      	cbz	r3, 80002d2 <frame_dummy+0xe>
 80002ca:	4903      	ldr	r1, [pc, #12]	; (80002d8 <frame_dummy+0x14>)
 80002cc:	4803      	ldr	r0, [pc, #12]	; (80002dc <frame_dummy+0x18>)
 80002ce:	f3af 8000 	nop.w
 80002d2:	bd08      	pop	{r3, pc}
 80002d4:	00000000 	.word	0x00000000
 80002d8:	240001f0 	.word	0x240001f0
 80002dc:	0800f12c 	.word	0x0800f12c

080002e0 <strlen>:
 80002e0:	4603      	mov	r3, r0
 80002e2:	f813 2b01 	ldrb.w	r2, [r3], #1
 80002e6:	2a00      	cmp	r2, #0
 80002e8:	d1fb      	bne.n	80002e2 <strlen+0x2>
 80002ea:	1a18      	subs	r0, r3, r0
 80002ec:	3801      	subs	r0, #1
 80002ee:	4770      	bx	lr

080002f0 <memchr>:
 80002f0:	f001 01ff 	and.w	r1, r1, #255	; 0xff
 80002f4:	2a10      	cmp	r2, #16
 80002f6:	db2b      	blt.n	8000350 <memchr+0x60>
 80002f8:	f010 0f07 	tst.w	r0, #7
 80002fc:	d008      	beq.n	8000310 <memchr+0x20>
 80002fe:	f810 3b01 	ldrb.w	r3, [r0], #1
 8000302:	3a01      	subs	r2, #1
 8000304:	428b      	cmp	r3, r1
 8000306:	d02d      	beq.n	8000364 <memchr+0x74>
 8000308:	f010 0f07 	tst.w	r0, #7
 800030c:	b342      	cbz	r2, 8000360 <memchr+0x70>
 800030e:	d1f6      	bne.n	80002fe <memchr+0xe>
 8000310:	b4f0      	push	{r4, r5, r6, r7}
 8000312:	ea41 2101 	orr.w	r1, r1, r1, lsl #8
 8000316:	ea41 4101 	orr.w	r1, r1, r1, lsl #16
 800031a:	f022 0407 	bic.w	r4, r2, #7
 800031e:	f07f 0700 	mvns.w	r7, #0
 8000322:	2300      	movs	r3, #0
 8000324:	e8f0 5602 	ldrd	r5, r6, [r0], #8
 8000328:	3c08      	subs	r4, #8
 800032a:	ea85 0501 	eor.w	r5, r5, r1
 800032e:	ea86 0601 	eor.w	r6, r6, r1
 8000332:	fa85 f547 	uadd8	r5, r5, r7
 8000336:	faa3 f587 	sel	r5, r3, r7
 800033a:	fa86 f647 	uadd8	r6, r6, r7
 800033e:	faa5 f687 	sel	r6, r5, r7
 8000342:	b98e      	cbnz	r6, 8000368 <memchr+0x78>
 8000344:	d1ee      	bne.n	8000324 <memchr+0x34>
 8000346:	bcf0      	pop	{r4, r5, r6, r7}
 8000348:	f001 01ff 	and.w	r1, r1, #255	; 0xff
 800034c:	f002 0207 	and.w	r2, r2, #7
 8000350:	b132      	cbz	r2, 8000360 <memchr+0x70>
 8000352:	f810 3b01 	ldrb.w	r3, [r0], #1
 8000356:	3a01      	subs	r2, #1
 8000358:	ea83 0301 	eor.w	r3, r3, r1
 800035c:	b113      	cbz	r3, 8000364 <memchr+0x74>
 800035e:	d1f8      	bne.n	8000352 <memchr+0x62>
 8000360:	2000      	movs	r0, #0
 8000362:	4770      	bx	lr
 8000364:	3801      	subs	r0, #1
 8000366:	4770      	bx	lr
 8000368:	2d00      	cmp	r5, #0
 800036a:	bf06      	itte	eq
 800036c:	4635      	moveq	r5, r6
 800036e:	3803      	subeq	r0, #3
 8000370:	3807      	subne	r0, #7
 8000372:	f015 0f01 	tst.w	r5, #1
 8000376:	d107      	bne.n	8000388 <memchr+0x98>
 8000378:	3001      	adds	r0, #1
 800037a:	f415 7f80 	tst.w	r5, #256	; 0x100
 800037e:	bf02      	ittt	eq
 8000380:	3001      	addeq	r0, #1
 8000382:	f415 3fc0 	tsteq.w	r5, #98304	; 0x18000
 8000386:	3001      	addeq	r0, #1
 8000388:	bcf0      	pop	{r4, r5, r6, r7}
 800038a:	3801      	subs	r0, #1
 800038c:	4770      	bx	lr
 800038e:	bf00      	nop

08000390 <HAL_ADC_ConvCpltCallback>:
/* USER CODE END PFP */

/* Private user code ---------------------------------------------------------*/
/* USER CODE BEGIN 0 */

void HAL_ADC_ConvCpltCallback(ADC_HandleTypeDef *hadc){
 8000390:	b580      	push	{r7, lr}
 8000392:	b082      	sub	sp, #8
 8000394:	af00      	add	r7, sp, #0
 8000396:	6078      	str	r0, [r7, #4]
	if(hadc == &hadc1){
 8000398:	687b      	ldr	r3, [r7, #4]
 800039a:	4acb      	ldr	r2, [pc, #812]	; (80006c8 <HAL_ADC_ConvCpltCallback+0x338>)
 800039c:	4293      	cmp	r3, r2
 800039e:	f040 852a 	bne.w	8000df6 <HAL_ADC_ConvCpltCallback+0xa66>
		vol_out=vol_k_out*(adc_vals[0]-vol_zero_out);
 80003a2:	4bca      	ldr	r3, [pc, #808]	; (80006cc <HAL_ADC_ConvCpltCallback+0x33c>)
 80003a4:	881b      	ldrh	r3, [r3, #0]
 80003a6:	f2a3 639a 	subw	r3, r3, #1690	; 0x69a
 80003aa:	ee07 3a90 	vmov	s15, r3
 80003ae:	eef8 7ae7 	vcvt.f32.s32	s15, s15
 80003b2:	ed9f 7ac7 	vldr	s14, [pc, #796]	; 80006d0 <HAL_ADC_ConvCpltCallback+0x340>
 80003b6:	ee67 7a87 	vmul.f32	s15, s15, s14
 80003ba:	4bc6      	ldr	r3, [pc, #792]	; (80006d4 <HAL_ADC_ConvCpltCallback+0x344>)
 80003bc:	edc3 7a00 	vstr	s15, [r3]
		cur_out=cur_k_out*(adc_vals[1]-cur_zero_out);
 80003c0:	4bc2      	ldr	r3, [pc, #776]	; (80006cc <HAL_ADC_ConvCpltCallback+0x33c>)
 80003c2:	885b      	ldrh	r3, [r3, #2]
 80003c4:	f6a3 03fd 	subw	r3, r3, #2301	; 0x8fd
 80003c8:	ee07 3a90 	vmov	s15, r3
 80003cc:	eef8 7ae7 	vcvt.f32.s32	s15, s15
 80003d0:	ed9f 7ac1 	vldr	s14, [pc, #772]	; 80006d8 <HAL_ADC_ConvCpltCallback+0x348>
 80003d4:	ee67 7a87 	vmul.f32	s15, s15, s14
 80003d8:	4bc0      	ldr	r3, [pc, #768]	; (80006dc <HAL_ADC_ConvCpltCallback+0x34c>)
 80003da:	edc3 7a00 	vstr	s15, [r3]

		vol_in1=vol_k_in1*(adc_vals[2]-vol_zero_in1);
 80003de:	4bbb      	ldr	r3, [pc, #748]	; (80006cc <HAL_ADC_ConvCpltCallback+0x33c>)
 80003e0:	889b      	ldrh	r3, [r3, #4]
 80003e2:	f2a3 639d 	subw	r3, r3, #1693	; 0x69d
 80003e6:	ee07 3a90 	vmov	s15, r3
 80003ea:	eef8 7ae7 	vcvt.f32.s32	s15, s15
 80003ee:	ed9f 7abc 	vldr	s14, [pc, #752]	; 80006e0 <HAL_ADC_ConvCpltCallback+0x350>
 80003f2:	ee67 7a87 	vmul.f32	s15, s15, s14
 80003f6:	4bbb      	ldr	r3, [pc, #748]	; (80006e4 <HAL_ADC_ConvCpltCallback+0x354>)
 80003f8:	edc3 7a00 	vstr	s15, [r3]
		cur_in1=cur_k_in1*(adc_vals[3]-cur_zero_in1);
 80003fc:	4bb3      	ldr	r3, [pc, #716]	; (80006cc <HAL_ADC_ConvCpltCallback+0x33c>)
 80003fe:	88db      	ldrh	r3, [r3, #6]
 8000400:	f5a3 630d 	sub.w	r3, r3, #2256	; 0x8d0
 8000404:	ee07 3a90 	vmov	s15, r3
 8000408:	eef8 7ae7 	vcvt.f32.s32	s15, s15
 800040c:	ed9f 7ab6 	vldr	s14, [pc, #728]	; 80006e8 <HAL_ADC_ConvCpltCallback+0x358>
 8000410:	ee67 7a87 	vmul.f32	s15, s15, s14
 8000414:	4bb5      	ldr	r3, [pc, #724]	; (80006ec <HAL_ADC_ConvCpltCallback+0x35c>)
 8000416:	edc3 7a00 	vstr	s15, [r3]

		vol_in2=vol_k_in2*(adc_vals[4]-vol_zero_in2);
 800041a:	4bac      	ldr	r3, [pc, #688]	; (80006cc <HAL_ADC_ConvCpltCallback+0x33c>)
 800041c:	891b      	ldrh	r3, [r3, #8]
 800041e:	f2a3 639c 	subw	r3, r3, #1692	; 0x69c
 8000422:	ee07 3a90 	vmov	s15, r3
 8000426:	eef8 7ae7 	vcvt.f32.s32	s15, s15
 800042a:	ed9f 7ab1 	vldr	s14, [pc, #708]	; 80006f0 <HAL_ADC_ConvCpltCallback+0x360>
 800042e:	ee67 7a87 	vmul.f32	s15, s15, s14
 8000432:	4bb0      	ldr	r3, [pc, #704]	; (80006f4 <HAL_ADC_ConvCpltCallback+0x364>)
 8000434:	edc3 7a00 	vstr	s15, [r3]
		cur_in2=cur_k_in2*(adc_vals[5]-cur_zero_in2);
 8000438:	4ba4      	ldr	r3, [pc, #656]	; (80006cc <HAL_ADC_ConvCpltCallback+0x33c>)
 800043a:	895b      	ldrh	r3, [r3, #10]
 800043c:	f6a3 03d7 	subw	r3, r3, #2263	; 0x8d7
 8000440:	ee07 3a90 	vmov	s15, r3
 8000444:	eef8 7ae7 	vcvt.f32.s32	s15, s15
 8000448:	ed9f 7aab 	vldr	s14, [pc, #684]	; 80006f8 <HAL_ADC_ConvCpltCallback+0x368>
 800044c:	ee67 7a87 	vmul.f32	s15, s15, s14
 8000450:	4baa      	ldr	r3, [pc, #680]	; (80006fc <HAL_ADC_ConvCpltCallback+0x36c>)
 8000452:	edc3 7a00 	vstr	s15, [r3]

		vol_in3=vol_k_in3*(adc_vals[6]-vol_zero_in3);
 8000456:	4b9d      	ldr	r3, [pc, #628]	; (80006cc <HAL_ADC_ConvCpltCallback+0x33c>)
 8000458:	899b      	ldrh	r3, [r3, #12]
 800045a:	f2a3 6399 	subw	r3, r3, #1689	; 0x699
 800045e:	ee07 3a90 	vmov	s15, r3
 8000462:	eef8 7ae7 	vcvt.f32.s32	s15, s15
 8000466:	ed9f 7aa6 	vldr	s14, [pc, #664]	; 8000700 <HAL_ADC_ConvCpltCallback+0x370>
 800046a:	ee67 7a87 	vmul.f32	s15, s15, s14
 800046e:	4ba5      	ldr	r3, [pc, #660]	; (8000704 <HAL_ADC_ConvCpltCallback+0x374>)
 8000470:	edc3 7a00 	vstr	s15, [r3]
		cur_in3=cur_k_in3*(adc_vals[7]-cur_zero_in3);
 8000474:	4b95      	ldr	r3, [pc, #596]	; (80006cc <HAL_ADC_ConvCpltCallback+0x33c>)
 8000476:	89db      	ldrh	r3, [r3, #14]
 8000478:	f6a3 03fd 	subw	r3, r3, #2301	; 0x8fd
 800047c:	ee07 3a90 	vmov	s15, r3
 8000480:	eef8 7ae7 	vcvt.f32.s32	s15, s15
 8000484:	ed9f 7aa0 	vldr	s14, [pc, #640]	; 8000708 <HAL_ADC_ConvCpltCallback+0x378>
 8000488:	ee67 7a87 	vmul.f32	s15, s15, s14
 800048c:	4b9f      	ldr	r3, [pc, #636]	; (800070c <HAL_ADC_ConvCpltCallback+0x37c>)
 800048e:	edc3 7a00 	vstr	s15, [r3]

		vol_pfc=vol_k_pfc*(adc_vals[8]-vol_zero_pfc);
 8000492:	4b8e      	ldr	r3, [pc, #568]	; (80006cc <HAL_ADC_ConvCpltCallback+0x33c>)
 8000494:	8a1b      	ldrh	r3, [r3, #16]
 8000496:	f2a3 63a1 	subw	r3, r3, #1697	; 0x6a1
 800049a:	ee07 3a90 	vmov	s15, r3
 800049e:	eef8 7ae7 	vcvt.f32.s32	s15, s15
 80004a2:	ed9f 7a9b 	vldr	s14, [pc, #620]	; 8000710 <HAL_ADC_ConvCpltCallback+0x380>
 80004a6:	ee67 7a87 	vmul.f32	s15, s15, s14
 80004aa:	4b9a      	ldr	r3, [pc, #616]	; (8000714 <HAL_ADC_ConvCpltCallback+0x384>)
 80004ac:	edc3 7a00 	vstr	s15, [r3]

		HAL_GPIO_TogglePin(LED_G_GPIO_Port, LED_G_Pin);
 80004b0:	2108      	movs	r1, #8
 80004b2:	4899      	ldr	r0, [pc, #612]	; (8000718 <HAL_ADC_ConvCpltCallback+0x388>)
 80004b4:	f006 fa03 	bl	80068be <HAL_GPIO_TogglePin>

		if(cur_out<-0.1){
 80004b8:	4b88      	ldr	r3, [pc, #544]	; (80006dc <HAL_ADC_ConvCpltCallback+0x34c>)
 80004ba:	edd3 7a00 	vldr	s15, [r3]
 80004be:	eeb7 7ae7 	vcvt.f64.f32	d7, s15
 80004c2:	ed9f 6b7b 	vldr	d6, [pc, #492]	; 80006b0 <HAL_ADC_ConvCpltCallback+0x320>
 80004c6:	eeb4 7bc6 	vcmpe.f64	d7, d6
 80004ca:	eef1 fa10 	vmrs	APSR_nzcv, fpscr
 80004ce:	d506      	bpl.n	80004de <HAL_ADC_ConvCpltCallback+0x14e>
			__HAL_HRTIM_SETCOMPARE(&hhrtim,HRTIM_TIMERINDEX_TIMER_A, HRTIM_COMPAREUNIT_1, 3752);//out
 80004d0:	4b92      	ldr	r3, [pc, #584]	; (800071c <HAL_ADC_ConvCpltCallback+0x38c>)
 80004d2:	681b      	ldr	r3, [r3, #0]
 80004d4:	f640 62a8 	movw	r2, #3752	; 0xea8
 80004d8:	f8c3 209c 	str.w	r2, [r3, #156]	; 0x9c
 80004dc:	e026      	b.n	800052c <HAL_ADC_ConvCpltCallback+0x19c>
		}
		else if(cur_out<0.972){
 80004de:	4b7f      	ldr	r3, [pc, #508]	; (80006dc <HAL_ADC_ConvCpltCallback+0x34c>)
 80004e0:	edd3 7a00 	vldr	s15, [r3]
 80004e4:	eeb7 7ae7 	vcvt.f64.f32	d7, s15
 80004e8:	ed9f 6b73 	vldr	d6, [pc, #460]	; 80006b8 <HAL_ADC_ConvCpltCallback+0x328>
 80004ec:	eeb4 7bc6 	vcmpe.f64	d7, d6
 80004f0:	eef1 fa10 	vmrs	APSR_nzcv, fpscr
 80004f4:	d515      	bpl.n	8000522 <HAL_ADC_ConvCpltCallback+0x192>
			__HAL_HRTIM_SETCOMPARE(&hhrtim,HRTIM_TIMERINDEX_TIMER_A, HRTIM_COMPAREUNIT_1, (0.972-cur_out)*3500);//out
 80004f6:	4b79      	ldr	r3, [pc, #484]	; (80006dc <HAL_ADC_ConvCpltCallback+0x34c>)
 80004f8:	edd3 7a00 	vldr	s15, [r3]
 80004fc:	eeb7 7ae7 	vcvt.f64.f32	d7, s15
 8000500:	ed9f 6b6d 	vldr	d6, [pc, #436]	; 80006b8 <HAL_ADC_ConvCpltCallback+0x328>
 8000504:	ee36 7b47 	vsub.f64	d7, d6, d7
 8000508:	ed9f 6b6d 	vldr	d6, [pc, #436]	; 80006c0 <HAL_ADC_ConvCpltCallback+0x330>
 800050c:	ee27 7b06 	vmul.f64	d7, d7, d6
 8000510:	4b82      	ldr	r3, [pc, #520]	; (800071c <HAL_ADC_ConvCpltCallback+0x38c>)
 8000512:	681b      	ldr	r3, [r3, #0]
 8000514:	eefc 7bc7 	vcvt.u32.f64	s15, d7
 8000518:	ee17 2a90 	vmov	r2, s15
 800051c:	f8c3 209c 	str.w	r2, [r3, #156]	; 0x9c
 8000520:	e004      	b.n	800052c <HAL_ADC_ConvCpltCallback+0x19c>
		}
		else {
			__HAL_HRTIM_SETCOMPARE(&hhrtim,HRTIM_TIMERINDEX_TIMER_A, HRTIM_COMPAREUNIT_1, 3);//out
 8000522:	4b7e      	ldr	r3, [pc, #504]	; (800071c <HAL_ADC_ConvCpltCallback+0x38c>)
 8000524:	681b      	ldr	r3, [r3, #0]
 8000526:	2203      	movs	r2, #3
 8000528:	f8c3 209c 	str.w	r2, [r3, #156]	; 0x9c
		}


		vol_out_err=vol_out_targ-vol_out;
 800052c:	4b7c      	ldr	r3, [pc, #496]	; (8000720 <HAL_ADC_ConvCpltCallback+0x390>)
 800052e:	ed93 7a00 	vldr	s14, [r3]
 8000532:	4b68      	ldr	r3, [pc, #416]	; (80006d4 <HAL_ADC_ConvCpltCallback+0x344>)
 8000534:	edd3 7a00 	vldr	s15, [r3]
 8000538:	ee77 7a67 	vsub.f32	s15, s14, s15
 800053c:	4b79      	ldr	r3, [pc, #484]	; (8000724 <HAL_ADC_ConvCpltCallback+0x394>)
 800053e:	edc3 7a00 	vstr	s15, [r3]
		vol_out_inte+=vol_out_err;
 8000542:	4b79      	ldr	r3, [pc, #484]	; (8000728 <HAL_ADC_ConvCpltCallback+0x398>)
 8000544:	ed93 7a00 	vldr	s14, [r3]
 8000548:	4b76      	ldr	r3, [pc, #472]	; (8000724 <HAL_ADC_ConvCpltCallback+0x394>)
 800054a:	edd3 7a00 	vldr	s15, [r3]
 800054e:	ee77 7a27 	vadd.f32	s15, s14, s15
 8000552:	4b75      	ldr	r3, [pc, #468]	; (8000728 <HAL_ADC_ConvCpltCallback+0x398>)
 8000554:	edc3 7a00 	vstr	s15, [r3]
		pwm_val=vol_out_p*vol_out_err+vol_out_i*vol_out_inte+vol_out_d*(vol_out_last-vol_out);
 8000558:	eeb2 7a04 	vmov.f32	s14, #36	; 0x41200000  10.0
 800055c:	4b71      	ldr	r3, [pc, #452]	; (8000724 <HAL_ADC_ConvCpltCallback+0x394>)
 800055e:	edd3 7a00 	vldr	s15, [r3]
 8000562:	ee27 7a27 	vmul.f32	s14, s14, s15
 8000566:	eef7 6a00 	vmov.f32	s13, #112	; 0x3f800000  1.0
 800056a:	4b6f      	ldr	r3, [pc, #444]	; (8000728 <HAL_ADC_ConvCpltCallback+0x398>)
 800056c:	edd3 7a00 	vldr	s15, [r3]
 8000570:	ee66 7aa7 	vmul.f32	s15, s13, s15
 8000574:	ee37 7a27 	vadd.f32	s14, s14, s15
 8000578:	4b6c      	ldr	r3, [pc, #432]	; (800072c <HAL_ADC_ConvCpltCallback+0x39c>)
 800057a:	edd3 6a00 	vldr	s13, [r3]
 800057e:	4b55      	ldr	r3, [pc, #340]	; (80006d4 <HAL_ADC_ConvCpltCallback+0x344>)
 8000580:	edd3 7a00 	vldr	s15, [r3]
 8000584:	ee76 7ae7 	vsub.f32	s15, s13, s15
 8000588:	eddf 6a69 	vldr	s13, [pc, #420]	; 8000730 <HAL_ADC_ConvCpltCallback+0x3a0>
 800058c:	ee67 7aa6 	vmul.f32	s15, s15, s13
 8000590:	ee77 7a27 	vadd.f32	s15, s14, s15
 8000594:	eefd 7ae7 	vcvt.s32.f32	s15, s15
 8000598:	ee17 3a90 	vmov	r3, s15
 800059c:	b21a      	sxth	r2, r3
 800059e:	4b65      	ldr	r3, [pc, #404]	; (8000734 <HAL_ADC_ConvCpltCallback+0x3a4>)
 80005a0:	801a      	strh	r2, [r3, #0]
		vol_out_last=vol_out;
 80005a2:	4b4c      	ldr	r3, [pc, #304]	; (80006d4 <HAL_ADC_ConvCpltCallback+0x344>)
 80005a4:	681b      	ldr	r3, [r3, #0]
 80005a6:	4a61      	ldr	r2, [pc, #388]	; (800072c <HAL_ADC_ConvCpltCallback+0x39c>)
 80005a8:	6013      	str	r3, [r2, #0]
		if(pwm_val>8500) {
 80005aa:	4b62      	ldr	r3, [pc, #392]	; (8000734 <HAL_ADC_ConvCpltCallback+0x3a4>)
 80005ac:	f9b3 3000 	ldrsh.w	r3, [r3]
 80005b0:	f242 1234 	movw	r2, #8500	; 0x2134
 80005b4:	4293      	cmp	r3, r2
 80005b6:	dd0e      	ble.n	80005d6 <HAL_ADC_ConvCpltCallback+0x246>
			pwm_val=8500;
 80005b8:	4b5e      	ldr	r3, [pc, #376]	; (8000734 <HAL_ADC_ConvCpltCallback+0x3a4>)
 80005ba:	f242 1234 	movw	r2, #8500	; 0x2134
 80005be:	801a      	strh	r2, [r3, #0]
			vol_out_inte-=vol_out_err;
 80005c0:	4b59      	ldr	r3, [pc, #356]	; (8000728 <HAL_ADC_ConvCpltCallback+0x398>)
 80005c2:	ed93 7a00 	vldr	s14, [r3]
 80005c6:	4b57      	ldr	r3, [pc, #348]	; (8000724 <HAL_ADC_ConvCpltCallback+0x394>)
 80005c8:	edd3 7a00 	vldr	s15, [r3]
 80005cc:	ee77 7a67 	vsub.f32	s15, s14, s15
 80005d0:	4b55      	ldr	r3, [pc, #340]	; (8000728 <HAL_ADC_ConvCpltCallback+0x398>)
 80005d2:	edc3 7a00 	vstr	s15, [r3]
		}
		if(pwm_val<3) {
 80005d6:	4b57      	ldr	r3, [pc, #348]	; (8000734 <HAL_ADC_ConvCpltCallback+0x3a4>)
 80005d8:	f9b3 3000 	ldrsh.w	r3, [r3]
 80005dc:	2b02      	cmp	r3, #2
 80005de:	dc0d      	bgt.n	80005fc <HAL_ADC_ConvCpltCallback+0x26c>
			pwm_val=3;
 80005e0:	4b54      	ldr	r3, [pc, #336]	; (8000734 <HAL_ADC_ConvCpltCallback+0x3a4>)
 80005e2:	2203      	movs	r2, #3
 80005e4:	801a      	strh	r2, [r3, #0]
			vol_out_inte-=vol_out_err;
 80005e6:	4b50      	ldr	r3, [pc, #320]	; (8000728 <HAL_ADC_ConvCpltCallback+0x398>)
 80005e8:	ed93 7a00 	vldr	s14, [r3]
 80005ec:	4b4d      	ldr	r3, [pc, #308]	; (8000724 <HAL_ADC_ConvCpltCallback+0x394>)
 80005ee:	edd3 7a00 	vldr	s15, [r3]
 80005f2:	ee77 7a67 	vsub.f32	s15, s14, s15
 80005f6:	4b4c      	ldr	r3, [pc, #304]	; (8000728 <HAL_ADC_ConvCpltCallback+0x398>)
 80005f8:	edc3 7a00 	vstr	s15, [r3]
		}
		__HAL_HRTIM_SETCOMPARE(&hhrtim,HRTIM_TIMERINDEX_TIMER_D, HRTIM_COMPAREUNIT_1, pwm_val);//out
 80005fc:	4b4d      	ldr	r3, [pc, #308]	; (8000734 <HAL_ADC_ConvCpltCallback+0x3a4>)
 80005fe:	f9b3 2000 	ldrsh.w	r2, [r3]
 8000602:	4b46      	ldr	r3, [pc, #280]	; (800071c <HAL_ADC_ConvCpltCallback+0x38c>)
 8000604:	681b      	ldr	r3, [r3, #0]
 8000606:	f8c3 221c 	str.w	r2, [r3, #540]	; 0x21c

		if(vol_pfc>80||vol_pfc<10||cur_out>2.5){
 800060a:	4b42      	ldr	r3, [pc, #264]	; (8000714 <HAL_ADC_ConvCpltCallback+0x384>)
 800060c:	edd3 7a00 	vldr	s15, [r3]
 8000610:	ed9f 7a49 	vldr	s14, [pc, #292]	; 8000738 <HAL_ADC_ConvCpltCallback+0x3a8>
 8000614:	eef4 7ac7 	vcmpe.f32	s15, s14
 8000618:	eef1 fa10 	vmrs	APSR_nzcv, fpscr
 800061c:	dc13      	bgt.n	8000646 <HAL_ADC_ConvCpltCallback+0x2b6>
 800061e:	4b3d      	ldr	r3, [pc, #244]	; (8000714 <HAL_ADC_ConvCpltCallback+0x384>)
 8000620:	edd3 7a00 	vldr	s15, [r3]
 8000624:	eeb2 7a04 	vmov.f32	s14, #36	; 0x41200000  10.0
 8000628:	eef4 7ac7 	vcmpe.f32	s15, s14
 800062c:	eef1 fa10 	vmrs	APSR_nzcv, fpscr
 8000630:	d409      	bmi.n	8000646 <HAL_ADC_ConvCpltCallback+0x2b6>
 8000632:	4b2a      	ldr	r3, [pc, #168]	; (80006dc <HAL_ADC_ConvCpltCallback+0x34c>)
 8000634:	edd3 7a00 	vldr	s15, [r3]
 8000638:	eeb0 7a04 	vmov.f32	s14, #4	; 0x40200000  2.5
 800063c:	eef4 7ac7 	vcmpe.f32	s15, s14
 8000640:	eef1 fa10 	vmrs	APSR_nzcv, fpscr
 8000644:	dd0a      	ble.n	800065c <HAL_ADC_ConvCpltCallback+0x2cc>
			__HAL_TIM_MOE_DISABLE_UNCONDITIONALLY(&htim1);
 8000646:	4b3d      	ldr	r3, [pc, #244]	; (800073c <HAL_ADC_ConvCpltCallback+0x3ac>)
 8000648:	681b      	ldr	r3, [r3, #0]
 800064a:	6c5a      	ldr	r2, [r3, #68]	; 0x44
 800064c:	4b3b      	ldr	r3, [pc, #236]	; (800073c <HAL_ADC_ConvCpltCallback+0x3ac>)
 800064e:	681b      	ldr	r3, [r3, #0]
 8000650:	f422 4200 	bic.w	r2, r2, #32768	; 0x8000
 8000654:	645a      	str	r2, [r3, #68]	; 0x44
			pfc_err=1;
 8000656:	4b3a      	ldr	r3, [pc, #232]	; (8000740 <HAL_ADC_ConvCpltCallback+0x3b0>)
 8000658:	2201      	movs	r2, #1
 800065a:	701a      	strb	r2, [r3, #0]
		}

//		HAL_TIM_Base_Start_IT(&htim6);
//		__HAL_TIM_SET_COUNTER(&htim6,0);
		phase=vol_in1<vol_in2?(vol_in1<vol_in3?1:3):(vol_in2<vol_in3?2:3);
 800065c:	4b21      	ldr	r3, [pc, #132]	; (80006e4 <HAL_ADC_ConvCpltCallback+0x354>)
 800065e:	ed93 7a00 	vldr	s14, [r3]
 8000662:	4b24      	ldr	r3, [pc, #144]	; (80006f4 <HAL_ADC_ConvCpltCallback+0x364>)
 8000664:	edd3 7a00 	vldr	s15, [r3]
 8000668:	eeb4 7ae7 	vcmpe.f32	s14, s15
 800066c:	eef1 fa10 	vmrs	APSR_nzcv, fpscr
 8000670:	d50e      	bpl.n	8000690 <HAL_ADC_ConvCpltCallback+0x300>
 8000672:	4b1c      	ldr	r3, [pc, #112]	; (80006e4 <HAL_ADC_ConvCpltCallback+0x354>)
 8000674:	ed93 7a00 	vldr	s14, [r3]
 8000678:	4b22      	ldr	r3, [pc, #136]	; (8000704 <HAL_ADC_ConvCpltCallback+0x374>)
 800067a:	edd3 7a00 	vldr	s15, [r3]
 800067e:	eeb4 7ae7 	vcmpe.f32	s14, s15
 8000682:	eef1 fa10 	vmrs	APSR_nzcv, fpscr
 8000686:	d501      	bpl.n	800068c <HAL_ADC_ConvCpltCallback+0x2fc>
 8000688:	2301      	movs	r3, #1
 800068a:	e05c      	b.n	8000746 <HAL_ADC_ConvCpltCallback+0x3b6>
 800068c:	2303      	movs	r3, #3
 800068e:	e05a      	b.n	8000746 <HAL_ADC_ConvCpltCallback+0x3b6>
 8000690:	4b18      	ldr	r3, [pc, #96]	; (80006f4 <HAL_ADC_ConvCpltCallback+0x364>)
 8000692:	ed93 7a00 	vldr	s14, [r3]
 8000696:	4b1b      	ldr	r3, [pc, #108]	; (8000704 <HAL_ADC_ConvCpltCallback+0x374>)
 8000698:	edd3 7a00 	vldr	s15, [r3]
 800069c:	eeb4 7ae7 	vcmpe.f32	s14, s15
 80006a0:	eef1 fa10 	vmrs	APSR_nzcv, fpscr
 80006a4:	d54e      	bpl.n	8000744 <HAL_ADC_ConvCpltCallback+0x3b4>
 80006a6:	2302      	movs	r3, #2
 80006a8:	e04d      	b.n	8000746 <HAL_ADC_ConvCpltCallback+0x3b6>
 80006aa:	bf00      	nop
 80006ac:	f3af 8000 	nop.w
 80006b0:	9999999a 	.word	0x9999999a
 80006b4:	bfb99999 	.word	0xbfb99999
 80006b8:	be76c8b4 	.word	0xbe76c8b4
 80006bc:	3fef1a9f 	.word	0x3fef1a9f
 80006c0:	00000000 	.word	0x00000000
 80006c4:	40ab5800 	.word	0x40ab5800
 80006c8:	240006d8 	.word	0x240006d8
 80006cc:	240006c0 	.word	0x240006c0
 80006d0:	3c857d18 	.word	0x3c857d18
 80006d4:	2400066c 	.word	0x2400066c
 80006d8:	3bb0ce6a 	.word	0x3bb0ce6a
 80006dc:	240007bc 	.word	0x240007bc
 80006e0:	3cad01c1 	.word	0x3cad01c1
 80006e4:	24000668 	.word	0x24000668
 80006e8:	3bb21668 	.word	0x3bb21668
 80006ec:	2400080c 	.word	0x2400080c
 80006f0:	3cacbc8c 	.word	0x3cacbc8c
 80006f4:	24000740 	.word	0x24000740
 80006f8:	3bb1c433 	.word	0x3bb1c433
 80006fc:	24000810 	.word	0x24000810
 8000700:	3cabbcb2 	.word	0x3cabbcb2
 8000704:	2400073c 	.word	0x2400073c
 8000708:	3bad121c 	.word	0x3bad121c
 800070c:	240006d4 	.word	0x240006d4
 8000710:	3cf3f962 	.word	0x3cf3f962
 8000714:	240008f0 	.word	0x240008f0
 8000718:	58021000 	.word	0x58021000
 800071c:	24000814 	.word	0x24000814
 8000720:	24000008 	.word	0x24000008
 8000724:	24000238 	.word	0x24000238
 8000728:	2400023c 	.word	0x2400023c
 800072c:	24000240 	.word	0x24000240
 8000730:	00000000 	.word	0x00000000
 8000734:	240006bc 	.word	0x240006bc
 8000738:	42a00000 	.word	0x42a00000
 800073c:	240007c0 	.word	0x240007c0
 8000740:	24000001 	.word	0x24000001
 8000744:	2303      	movs	r3, #3
 8000746:	4a90      	ldr	r2, [pc, #576]	; (8000988 <HAL_ADC_ConvCpltCallback+0x5f8>)
 8000748:	7013      	strb	r3, [r2, #0]

		vol_pfc_err=vol_pfc_targ-vol_pfc;
 800074a:	4b90      	ldr	r3, [pc, #576]	; (800098c <HAL_ADC_ConvCpltCallback+0x5fc>)
 800074c:	ed93 7a00 	vldr	s14, [r3]
 8000750:	4b8f      	ldr	r3, [pc, #572]	; (8000990 <HAL_ADC_ConvCpltCallback+0x600>)
 8000752:	edd3 7a00 	vldr	s15, [r3]
 8000756:	ee77 7a67 	vsub.f32	s15, s14, s15
 800075a:	4b8e      	ldr	r3, [pc, #568]	; (8000994 <HAL_ADC_ConvCpltCallback+0x604>)
 800075c:	edc3 7a00 	vstr	s15, [r3]
		vol_pfc_inte+=vol_pfc_err;
 8000760:	4b8d      	ldr	r3, [pc, #564]	; (8000998 <HAL_ADC_ConvCpltCallback+0x608>)
 8000762:	ed93 7a00 	vldr	s14, [r3]
 8000766:	4b8b      	ldr	r3, [pc, #556]	; (8000994 <HAL_ADC_ConvCpltCallback+0x604>)
 8000768:	edd3 7a00 	vldr	s15, [r3]
 800076c:	ee77 7a27 	vadd.f32	s15, s14, s15
 8000770:	4b89      	ldr	r3, [pc, #548]	; (8000998 <HAL_ADC_ConvCpltCallback+0x608>)
 8000772:	edc3 7a00 	vstr	s15, [r3]
		k=vol_pfc_p*vol_pfc_err+vol_pfc_i*vol_pfc_inte;
 8000776:	ed9f 7a89 	vldr	s14, [pc, #548]	; 800099c <HAL_ADC_ConvCpltCallback+0x60c>
 800077a:	4b86      	ldr	r3, [pc, #536]	; (8000994 <HAL_ADC_ConvCpltCallback+0x604>)
 800077c:	edd3 7a00 	vldr	s15, [r3]
 8000780:	ee27 7a27 	vmul.f32	s14, s14, s15
 8000784:	eddf 6a86 	vldr	s13, [pc, #536]	; 80009a0 <HAL_ADC_ConvCpltCallback+0x610>
 8000788:	4b83      	ldr	r3, [pc, #524]	; (8000998 <HAL_ADC_ConvCpltCallback+0x608>)
 800078a:	edd3 7a00 	vldr	s15, [r3]
 800078e:	ee66 7aa7 	vmul.f32	s15, s13, s15
 8000792:	ee77 7a27 	vadd.f32	s15, s14, s15
 8000796:	4b83      	ldr	r3, [pc, #524]	; (80009a4 <HAL_ADC_ConvCpltCallback+0x614>)
 8000798:	edc3 7a00 	vstr	s15, [r3]



		if(phase==1){
 800079c:	4b7a      	ldr	r3, [pc, #488]	; (8000988 <HAL_ADC_ConvCpltCallback+0x5f8>)
 800079e:	781b      	ldrb	r3, [r3, #0]
 80007a0:	2b01      	cmp	r3, #1
 80007a2:	f040 811f 	bne.w	80009e4 <HAL_ADC_ConvCpltCallback+0x654>
			cur_pfc_err2=k*vol_in2-cur_in2;
 80007a6:	4b7f      	ldr	r3, [pc, #508]	; (80009a4 <HAL_ADC_ConvCpltCallback+0x614>)
 80007a8:	ed93 7a00 	vldr	s14, [r3]
 80007ac:	4b7e      	ldr	r3, [pc, #504]	; (80009a8 <HAL_ADC_ConvCpltCallback+0x618>)
 80007ae:	edd3 7a00 	vldr	s15, [r3]
 80007b2:	ee27 7a27 	vmul.f32	s14, s14, s15
 80007b6:	4b7d      	ldr	r3, [pc, #500]	; (80009ac <HAL_ADC_ConvCpltCallback+0x61c>)
 80007b8:	edd3 7a00 	vldr	s15, [r3]
 80007bc:	ee77 7a67 	vsub.f32	s15, s14, s15
 80007c0:	4b7b      	ldr	r3, [pc, #492]	; (80009b0 <HAL_ADC_ConvCpltCallback+0x620>)
 80007c2:	edc3 7a00 	vstr	s15, [r3]
			cur_pfc_inte2+=cur_pfc_err2;
 80007c6:	4b7b      	ldr	r3, [pc, #492]	; (80009b4 <HAL_ADC_ConvCpltCallback+0x624>)
 80007c8:	ed93 7a00 	vldr	s14, [r3]
 80007cc:	4b78      	ldr	r3, [pc, #480]	; (80009b0 <HAL_ADC_ConvCpltCallback+0x620>)
 80007ce:	edd3 7a00 	vldr	s15, [r3]
 80007d2:	ee77 7a27 	vadd.f32	s15, s14, s15
 80007d6:	4b77      	ldr	r3, [pc, #476]	; (80009b4 <HAL_ADC_ConvCpltCallback+0x624>)
 80007d8:	edc3 7a00 	vstr	s15, [r3]
			pwm_val=cur_pfc_p*cur_pfc_err2+cur_pfc_i*cur_pfc_inte2+cur_pfc_d*(cur_pfc_last2-cur_in2);
 80007dc:	ed9f 7a76 	vldr	s14, [pc, #472]	; 80009b8 <HAL_ADC_ConvCpltCallback+0x628>
 80007e0:	4b73      	ldr	r3, [pc, #460]	; (80009b0 <HAL_ADC_ConvCpltCallback+0x620>)
 80007e2:	edd3 7a00 	vldr	s15, [r3]
 80007e6:	ee27 7a27 	vmul.f32	s14, s14, s15
 80007ea:	eef3 6a09 	vmov.f32	s13, #57	; 0x41c80000  25.0
 80007ee:	4b71      	ldr	r3, [pc, #452]	; (80009b4 <HAL_ADC_ConvCpltCallback+0x624>)
 80007f0:	edd3 7a00 	vldr	s15, [r3]
 80007f4:	ee66 7aa7 	vmul.f32	s15, s13, s15
 80007f8:	ee37 7a27 	vadd.f32	s14, s14, s15
 80007fc:	4b6f      	ldr	r3, [pc, #444]	; (80009bc <HAL_ADC_ConvCpltCallback+0x62c>)
 80007fe:	edd3 6a00 	vldr	s13, [r3]
 8000802:	4b6a      	ldr	r3, [pc, #424]	; (80009ac <HAL_ADC_ConvCpltCallback+0x61c>)
 8000804:	edd3 7a00 	vldr	s15, [r3]
 8000808:	ee76 7ae7 	vsub.f32	s15, s13, s15
 800080c:	eddf 6a63 	vldr	s13, [pc, #396]	; 800099c <HAL_ADC_ConvCpltCallback+0x60c>
 8000810:	ee67 7aa6 	vmul.f32	s15, s15, s13
 8000814:	ee77 7a27 	vadd.f32	s15, s14, s15
 8000818:	eefd 7ae7 	vcvt.s32.f32	s15, s15
 800081c:	ee17 3a90 	vmov	r3, s15
 8000820:	b21a      	sxth	r2, r3
 8000822:	4b67      	ldr	r3, [pc, #412]	; (80009c0 <HAL_ADC_ConvCpltCallback+0x630>)
 8000824:	801a      	strh	r2, [r3, #0]
			cur_pfc_last2=cur_in2;
 8000826:	4b61      	ldr	r3, [pc, #388]	; (80009ac <HAL_ADC_ConvCpltCallback+0x61c>)
 8000828:	681b      	ldr	r3, [r3, #0]
 800082a:	4a64      	ldr	r2, [pc, #400]	; (80009bc <HAL_ADC_ConvCpltCallback+0x62c>)
 800082c:	6013      	str	r3, [r2, #0]
			if(pwm_val>pwm_th) {
 800082e:	4b64      	ldr	r3, [pc, #400]	; (80009c0 <HAL_ADC_ConvCpltCallback+0x630>)
 8000830:	f9b3 3000 	ldrsh.w	r3, [r3]
 8000834:	f44f 5296 	mov.w	r2, #4800	; 0x12c0
 8000838:	4293      	cmp	r3, r2
 800083a:	dd0e      	ble.n	800085a <HAL_ADC_ConvCpltCallback+0x4ca>
				pwm_val=pwm_th;
 800083c:	f44f 5296 	mov.w	r2, #4800	; 0x12c0
 8000840:	4b5f      	ldr	r3, [pc, #380]	; (80009c0 <HAL_ADC_ConvCpltCallback+0x630>)
 8000842:	801a      	strh	r2, [r3, #0]
				cur_pfc_inte2-=cur_pfc_err2;
 8000844:	4b5b      	ldr	r3, [pc, #364]	; (80009b4 <HAL_ADC_ConvCpltCallback+0x624>)
 8000846:	ed93 7a00 	vldr	s14, [r3]
 800084a:	4b59      	ldr	r3, [pc, #356]	; (80009b0 <HAL_ADC_ConvCpltCallback+0x620>)
 800084c:	edd3 7a00 	vldr	s15, [r3]
 8000850:	ee77 7a67 	vsub.f32	s15, s14, s15
 8000854:	4b57      	ldr	r3, [pc, #348]	; (80009b4 <HAL_ADC_ConvCpltCallback+0x624>)
 8000856:	edc3 7a00 	vstr	s15, [r3]
			}
			if(pwm_val<0) {
 800085a:	4b59      	ldr	r3, [pc, #356]	; (80009c0 <HAL_ADC_ConvCpltCallback+0x630>)
 800085c:	f9b3 3000 	ldrsh.w	r3, [r3]
 8000860:	2b00      	cmp	r3, #0
 8000862:	da0d      	bge.n	8000880 <HAL_ADC_ConvCpltCallback+0x4f0>
				pwm_val=0;
 8000864:	4b56      	ldr	r3, [pc, #344]	; (80009c0 <HAL_ADC_ConvCpltCallback+0x630>)
 8000866:	2200      	movs	r2, #0
 8000868:	801a      	strh	r2, [r3, #0]
				cur_pfc_inte2-=cur_pfc_err2;
 800086a:	4b52      	ldr	r3, [pc, #328]	; (80009b4 <HAL_ADC_ConvCpltCallback+0x624>)
 800086c:	ed93 7a00 	vldr	s14, [r3]
 8000870:	4b4f      	ldr	r3, [pc, #316]	; (80009b0 <HAL_ADC_ConvCpltCallback+0x620>)
 8000872:	edd3 7a00 	vldr	s15, [r3]
 8000876:	ee77 7a67 	vsub.f32	s15, s14, s15
 800087a:	4b4e      	ldr	r3, [pc, #312]	; (80009b4 <HAL_ADC_ConvCpltCallback+0x624>)
 800087c:	edc3 7a00 	vstr	s15, [r3]
			}
			__HAL_TIM_SET_COMPARE(&htim1,TIM_CHANNEL_2,pwm_val);//ph2
 8000880:	4b4f      	ldr	r3, [pc, #316]	; (80009c0 <HAL_ADC_ConvCpltCallback+0x630>)
 8000882:	f9b3 2000 	ldrsh.w	r2, [r3]
 8000886:	4b4f      	ldr	r3, [pc, #316]	; (80009c4 <HAL_ADC_ConvCpltCallback+0x634>)
 8000888:	681b      	ldr	r3, [r3, #0]
 800088a:	639a      	str	r2, [r3, #56]	; 0x38

			cur_pfc_err3=k*vol_in3-cur_in3;
 800088c:	4b45      	ldr	r3, [pc, #276]	; (80009a4 <HAL_ADC_ConvCpltCallback+0x614>)
 800088e:	ed93 7a00 	vldr	s14, [r3]
 8000892:	4b4d      	ldr	r3, [pc, #308]	; (80009c8 <HAL_ADC_ConvCpltCallback+0x638>)
 8000894:	edd3 7a00 	vldr	s15, [r3]
 8000898:	ee27 7a27 	vmul.f32	s14, s14, s15
 800089c:	4b4b      	ldr	r3, [pc, #300]	; (80009cc <HAL_ADC_ConvCpltCallback+0x63c>)
 800089e:	edd3 7a00 	vldr	s15, [r3]
 80008a2:	ee77 7a67 	vsub.f32	s15, s14, s15
 80008a6:	4b4a      	ldr	r3, [pc, #296]	; (80009d0 <HAL_ADC_ConvCpltCallback+0x640>)
 80008a8:	edc3 7a00 	vstr	s15, [r3]
			cur_pfc_inte3+=cur_pfc_err3;
 80008ac:	4b49      	ldr	r3, [pc, #292]	; (80009d4 <HAL_ADC_ConvCpltCallback+0x644>)
 80008ae:	ed93 7a00 	vldr	s14, [r3]
 80008b2:	4b47      	ldr	r3, [pc, #284]	; (80009d0 <HAL_ADC_ConvCpltCallback+0x640>)
 80008b4:	edd3 7a00 	vldr	s15, [r3]
 80008b8:	ee77 7a27 	vadd.f32	s15, s14, s15
 80008bc:	4b45      	ldr	r3, [pc, #276]	; (80009d4 <HAL_ADC_ConvCpltCallback+0x644>)
 80008be:	edc3 7a00 	vstr	s15, [r3]
			pwm_val=cur_pfc_p*cur_pfc_err3+cur_pfc_i*cur_pfc_inte3+cur_pfc_d*(cur_pfc_last3-cur_in3);
 80008c2:	ed9f 7a3d 	vldr	s14, [pc, #244]	; 80009b8 <HAL_ADC_ConvCpltCallback+0x628>
 80008c6:	4b42      	ldr	r3, [pc, #264]	; (80009d0 <HAL_ADC_ConvCpltCallback+0x640>)
 80008c8:	edd3 7a00 	vldr	s15, [r3]
 80008cc:	ee27 7a27 	vmul.f32	s14, s14, s15
 80008d0:	eef3 6a09 	vmov.f32	s13, #57	; 0x41c80000  25.0
 80008d4:	4b3f      	ldr	r3, [pc, #252]	; (80009d4 <HAL_ADC_ConvCpltCallback+0x644>)
 80008d6:	edd3 7a00 	vldr	s15, [r3]
 80008da:	ee66 7aa7 	vmul.f32	s15, s13, s15
 80008de:	ee37 7a27 	vadd.f32	s14, s14, s15
 80008e2:	4b3d      	ldr	r3, [pc, #244]	; (80009d8 <HAL_ADC_ConvCpltCallback+0x648>)
 80008e4:	edd3 6a00 	vldr	s13, [r3]
 80008e8:	4b38      	ldr	r3, [pc, #224]	; (80009cc <HAL_ADC_ConvCpltCallback+0x63c>)
 80008ea:	edd3 7a00 	vldr	s15, [r3]
 80008ee:	ee76 7ae7 	vsub.f32	s15, s13, s15
 80008f2:	eddf 6a2a 	vldr	s13, [pc, #168]	; 800099c <HAL_ADC_ConvCpltCallback+0x60c>
 80008f6:	ee67 7aa6 	vmul.f32	s15, s15, s13
 80008fa:	ee77 7a27 	vadd.f32	s15, s14, s15
 80008fe:	eefd 7ae7 	vcvt.s32.f32	s15, s15
 8000902:	ee17 3a90 	vmov	r3, s15
 8000906:	b21a      	sxth	r2, r3
 8000908:	4b2d      	ldr	r3, [pc, #180]	; (80009c0 <HAL_ADC_ConvCpltCallback+0x630>)
 800090a:	801a      	strh	r2, [r3, #0]
			cur_pfc_last3=cur_in3;
 800090c:	4b2f      	ldr	r3, [pc, #188]	; (80009cc <HAL_ADC_ConvCpltCallback+0x63c>)
 800090e:	681b      	ldr	r3, [r3, #0]
 8000910:	4a31      	ldr	r2, [pc, #196]	; (80009d8 <HAL_ADC_ConvCpltCallback+0x648>)
 8000912:	6013      	str	r3, [r2, #0]
			if(pwm_val>pwm_th) {
 8000914:	4b2a      	ldr	r3, [pc, #168]	; (80009c0 <HAL_ADC_ConvCpltCallback+0x630>)
 8000916:	f9b3 3000 	ldrsh.w	r3, [r3]
 800091a:	f44f 5296 	mov.w	r2, #4800	; 0x12c0
 800091e:	4293      	cmp	r3, r2
 8000920:	dd0e      	ble.n	8000940 <HAL_ADC_ConvCpltCallback+0x5b0>
				pwm_val=pwm_th;
 8000922:	f44f 5296 	mov.w	r2, #4800	; 0x12c0
 8000926:	4b26      	ldr	r3, [pc, #152]	; (80009c0 <HAL_ADC_ConvCpltCallback+0x630>)
 8000928:	801a      	strh	r2, [r3, #0]
				cur_pfc_inte3-=cur_pfc_err3;
 800092a:	4b2a      	ldr	r3, [pc, #168]	; (80009d4 <HAL_ADC_ConvCpltCallback+0x644>)
 800092c:	ed93 7a00 	vldr	s14, [r3]
 8000930:	4b27      	ldr	r3, [pc, #156]	; (80009d0 <HAL_ADC_ConvCpltCallback+0x640>)
 8000932:	edd3 7a00 	vldr	s15, [r3]
 8000936:	ee77 7a67 	vsub.f32	s15, s14, s15
 800093a:	4b26      	ldr	r3, [pc, #152]	; (80009d4 <HAL_ADC_ConvCpltCallback+0x644>)
 800093c:	edc3 7a00 	vstr	s15, [r3]
			}
			if(pwm_val<0) {
 8000940:	4b1f      	ldr	r3, [pc, #124]	; (80009c0 <HAL_ADC_ConvCpltCallback+0x630>)
 8000942:	f9b3 3000 	ldrsh.w	r3, [r3]
 8000946:	2b00      	cmp	r3, #0
 8000948:	da0d      	bge.n	8000966 <HAL_ADC_ConvCpltCallback+0x5d6>
				pwm_val=0;
 800094a:	4b1d      	ldr	r3, [pc, #116]	; (80009c0 <HAL_ADC_ConvCpltCallback+0x630>)
 800094c:	2200      	movs	r2, #0
 800094e:	801a      	strh	r2, [r3, #0]
				cur_pfc_inte3-=cur_pfc_err3;
 8000950:	4b20      	ldr	r3, [pc, #128]	; (80009d4 <HAL_ADC_ConvCpltCallback+0x644>)
 8000952:	ed93 7a00 	vldr	s14, [r3]
 8000956:	4b1e      	ldr	r3, [pc, #120]	; (80009d0 <HAL_ADC_ConvCpltCallback+0x640>)
 8000958:	edd3 7a00 	vldr	s15, [r3]
 800095c:	ee77 7a67 	vsub.f32	s15, s14, s15
 8000960:	4b1c      	ldr	r3, [pc, #112]	; (80009d4 <HAL_ADC_ConvCpltCallback+0x644>)
 8000962:	edc3 7a00 	vstr	s15, [r3]
			}
			__HAL_TIM_SET_COMPARE(&htim1,TIM_CHANNEL_3,pwm_val);//ph3
 8000966:	4b16      	ldr	r3, [pc, #88]	; (80009c0 <HAL_ADC_ConvCpltCallback+0x630>)
 8000968:	f9b3 2000 	ldrsh.w	r2, [r3]
 800096c:	4b15      	ldr	r3, [pc, #84]	; (80009c4 <HAL_ADC_ConvCpltCallback+0x634>)
 800096e:	681b      	ldr	r3, [r3, #0]
 8000970:	63da      	str	r2, [r3, #60]	; 0x3c

			cur_pfc_last1=cur_in1;
 8000972:	4b1a      	ldr	r3, [pc, #104]	; (80009dc <HAL_ADC_ConvCpltCallback+0x64c>)
 8000974:	681b      	ldr	r3, [r3, #0]
 8000976:	4a1a      	ldr	r2, [pc, #104]	; (80009e0 <HAL_ADC_ConvCpltCallback+0x650>)
 8000978:	6013      	str	r3, [r2, #0]
			__HAL_TIM_SET_COMPARE(&htim1,TIM_CHANNEL_1,4999);//ph1
 800097a:	4b12      	ldr	r3, [pc, #72]	; (80009c4 <HAL_ADC_ConvCpltCallback+0x634>)
 800097c:	681b      	ldr	r3, [r3, #0]
 800097e:	f241 3287 	movw	r2, #4999	; 0x1387
 8000982:	635a      	str	r2, [r3, #52]	; 0x34

			cur_pfc_last3=cur_in3;
			__HAL_TIM_SET_COMPARE(&htim1,TIM_CHANNEL_3,4999);//ph3
		}
	}
}
 8000984:	e237      	b.n	8000df6 <HAL_ADC_ConvCpltCallback+0xa66>
 8000986:	bf00      	nop
 8000988:	24000000 	.word	0x24000000
 800098c:	24000004 	.word	0x24000004
 8000990:	240008f0 	.word	0x240008f0
 8000994:	2400020c 	.word	0x2400020c
 8000998:	24000210 	.word	0x24000210
 800099c:	00000000 	.word	0x00000000
 80009a0:	358637bd 	.word	0x358637bd
 80009a4:	24000208 	.word	0x24000208
 80009a8:	24000740 	.word	0x24000740
 80009ac:	24000810 	.word	0x24000810
 80009b0:	24000220 	.word	0x24000220
 80009b4:	24000224 	.word	0x24000224
 80009b8:	42a00000 	.word	0x42a00000
 80009bc:	24000228 	.word	0x24000228
 80009c0:	240006bc 	.word	0x240006bc
 80009c4:	240007c0 	.word	0x240007c0
 80009c8:	2400073c 	.word	0x2400073c
 80009cc:	240006d4 	.word	0x240006d4
 80009d0:	2400022c 	.word	0x2400022c
 80009d4:	24000230 	.word	0x24000230
 80009d8:	24000234 	.word	0x24000234
 80009dc:	2400080c 	.word	0x2400080c
 80009e0:	2400021c 	.word	0x2400021c
		else if(phase==2){
 80009e4:	4b7a      	ldr	r3, [pc, #488]	; (8000bd0 <HAL_ADC_ConvCpltCallback+0x840>)
 80009e6:	781b      	ldrb	r3, [r3, #0]
 80009e8:	2b02      	cmp	r3, #2
 80009ea:	f040 8115 	bne.w	8000c18 <HAL_ADC_ConvCpltCallback+0x888>
			cur_pfc_err1=k*vol_in1-cur_in1;
 80009ee:	4b79      	ldr	r3, [pc, #484]	; (8000bd4 <HAL_ADC_ConvCpltCallback+0x844>)
 80009f0:	ed93 7a00 	vldr	s14, [r3]
 80009f4:	4b78      	ldr	r3, [pc, #480]	; (8000bd8 <HAL_ADC_ConvCpltCallback+0x848>)
 80009f6:	edd3 7a00 	vldr	s15, [r3]
 80009fa:	ee27 7a27 	vmul.f32	s14, s14, s15
 80009fe:	4b77      	ldr	r3, [pc, #476]	; (8000bdc <HAL_ADC_ConvCpltCallback+0x84c>)
 8000a00:	edd3 7a00 	vldr	s15, [r3]
 8000a04:	ee77 7a67 	vsub.f32	s15, s14, s15
 8000a08:	4b75      	ldr	r3, [pc, #468]	; (8000be0 <HAL_ADC_ConvCpltCallback+0x850>)
 8000a0a:	edc3 7a00 	vstr	s15, [r3]
			cur_pfc_inte1+=cur_pfc_err1;
 8000a0e:	4b75      	ldr	r3, [pc, #468]	; (8000be4 <HAL_ADC_ConvCpltCallback+0x854>)
 8000a10:	ed93 7a00 	vldr	s14, [r3]
 8000a14:	4b72      	ldr	r3, [pc, #456]	; (8000be0 <HAL_ADC_ConvCpltCallback+0x850>)
 8000a16:	edd3 7a00 	vldr	s15, [r3]
 8000a1a:	ee77 7a27 	vadd.f32	s15, s14, s15
 8000a1e:	4b71      	ldr	r3, [pc, #452]	; (8000be4 <HAL_ADC_ConvCpltCallback+0x854>)
 8000a20:	edc3 7a00 	vstr	s15, [r3]
			pwm_val=cur_pfc_p*cur_pfc_err1+cur_pfc_i*cur_pfc_inte1+cur_pfc_d*(cur_pfc_last1-cur_in1);
 8000a24:	ed9f 7a70 	vldr	s14, [pc, #448]	; 8000be8 <HAL_ADC_ConvCpltCallback+0x858>
 8000a28:	4b6d      	ldr	r3, [pc, #436]	; (8000be0 <HAL_ADC_ConvCpltCallback+0x850>)
 8000a2a:	edd3 7a00 	vldr	s15, [r3]
 8000a2e:	ee27 7a27 	vmul.f32	s14, s14, s15
 8000a32:	eef3 6a09 	vmov.f32	s13, #57	; 0x41c80000  25.0
 8000a36:	4b6b      	ldr	r3, [pc, #428]	; (8000be4 <HAL_ADC_ConvCpltCallback+0x854>)
 8000a38:	edd3 7a00 	vldr	s15, [r3]
 8000a3c:	ee66 7aa7 	vmul.f32	s15, s13, s15
 8000a40:	ee37 7a27 	vadd.f32	s14, s14, s15
 8000a44:	4b69      	ldr	r3, [pc, #420]	; (8000bec <HAL_ADC_ConvCpltCallback+0x85c>)
 8000a46:	edd3 6a00 	vldr	s13, [r3]
 8000a4a:	4b64      	ldr	r3, [pc, #400]	; (8000bdc <HAL_ADC_ConvCpltCallback+0x84c>)
 8000a4c:	edd3 7a00 	vldr	s15, [r3]
 8000a50:	ee76 7ae7 	vsub.f32	s15, s13, s15
 8000a54:	eddf 6a66 	vldr	s13, [pc, #408]	; 8000bf0 <HAL_ADC_ConvCpltCallback+0x860>
 8000a58:	ee67 7aa6 	vmul.f32	s15, s15, s13
 8000a5c:	ee77 7a27 	vadd.f32	s15, s14, s15
 8000a60:	eefd 7ae7 	vcvt.s32.f32	s15, s15
 8000a64:	ee17 3a90 	vmov	r3, s15
 8000a68:	b21a      	sxth	r2, r3
 8000a6a:	4b62      	ldr	r3, [pc, #392]	; (8000bf4 <HAL_ADC_ConvCpltCallback+0x864>)
 8000a6c:	801a      	strh	r2, [r3, #0]
			cur_pfc_last1=cur_in1;
 8000a6e:	4b5b      	ldr	r3, [pc, #364]	; (8000bdc <HAL_ADC_ConvCpltCallback+0x84c>)
 8000a70:	681b      	ldr	r3, [r3, #0]
 8000a72:	4a5e      	ldr	r2, [pc, #376]	; (8000bec <HAL_ADC_ConvCpltCallback+0x85c>)
 8000a74:	6013      	str	r3, [r2, #0]
			if(pwm_val>pwm_th) {
 8000a76:	4b5f      	ldr	r3, [pc, #380]	; (8000bf4 <HAL_ADC_ConvCpltCallback+0x864>)
 8000a78:	f9b3 3000 	ldrsh.w	r3, [r3]
 8000a7c:	f44f 5296 	mov.w	r2, #4800	; 0x12c0
 8000a80:	4293      	cmp	r3, r2
 8000a82:	dd0e      	ble.n	8000aa2 <HAL_ADC_ConvCpltCallback+0x712>
				pwm_val=pwm_th;
 8000a84:	f44f 5296 	mov.w	r2, #4800	; 0x12c0
 8000a88:	4b5a      	ldr	r3, [pc, #360]	; (8000bf4 <HAL_ADC_ConvCpltCallback+0x864>)
 8000a8a:	801a      	strh	r2, [r3, #0]
				cur_pfc_inte1-=cur_pfc_err1;
 8000a8c:	4b55      	ldr	r3, [pc, #340]	; (8000be4 <HAL_ADC_ConvCpltCallback+0x854>)
 8000a8e:	ed93 7a00 	vldr	s14, [r3]
 8000a92:	4b53      	ldr	r3, [pc, #332]	; (8000be0 <HAL_ADC_ConvCpltCallback+0x850>)
 8000a94:	edd3 7a00 	vldr	s15, [r3]
 8000a98:	ee77 7a67 	vsub.f32	s15, s14, s15
 8000a9c:	4b51      	ldr	r3, [pc, #324]	; (8000be4 <HAL_ADC_ConvCpltCallback+0x854>)
 8000a9e:	edc3 7a00 	vstr	s15, [r3]
			if(pwm_val<0) {
 8000aa2:	4b54      	ldr	r3, [pc, #336]	; (8000bf4 <HAL_ADC_ConvCpltCallback+0x864>)
 8000aa4:	f9b3 3000 	ldrsh.w	r3, [r3]
 8000aa8:	2b00      	cmp	r3, #0
 8000aaa:	da0d      	bge.n	8000ac8 <HAL_ADC_ConvCpltCallback+0x738>
				pwm_val=0;
 8000aac:	4b51      	ldr	r3, [pc, #324]	; (8000bf4 <HAL_ADC_ConvCpltCallback+0x864>)
 8000aae:	2200      	movs	r2, #0
 8000ab0:	801a      	strh	r2, [r3, #0]
				cur_pfc_inte1-=cur_pfc_err1;
 8000ab2:	4b4c      	ldr	r3, [pc, #304]	; (8000be4 <HAL_ADC_ConvCpltCallback+0x854>)
 8000ab4:	ed93 7a00 	vldr	s14, [r3]
 8000ab8:	4b49      	ldr	r3, [pc, #292]	; (8000be0 <HAL_ADC_ConvCpltCallback+0x850>)
 8000aba:	edd3 7a00 	vldr	s15, [r3]
 8000abe:	ee77 7a67 	vsub.f32	s15, s14, s15
 8000ac2:	4b48      	ldr	r3, [pc, #288]	; (8000be4 <HAL_ADC_ConvCpltCallback+0x854>)
 8000ac4:	edc3 7a00 	vstr	s15, [r3]
			__HAL_TIM_SET_COMPARE(&htim1,TIM_CHANNEL_1,pwm_val);//ph1
 8000ac8:	4b4a      	ldr	r3, [pc, #296]	; (8000bf4 <HAL_ADC_ConvCpltCallback+0x864>)
 8000aca:	f9b3 2000 	ldrsh.w	r2, [r3]
 8000ace:	4b4a      	ldr	r3, [pc, #296]	; (8000bf8 <HAL_ADC_ConvCpltCallback+0x868>)
 8000ad0:	681b      	ldr	r3, [r3, #0]
 8000ad2:	635a      	str	r2, [r3, #52]	; 0x34
			cur_pfc_err3=k*vol_in3-cur_in3;
 8000ad4:	4b3f      	ldr	r3, [pc, #252]	; (8000bd4 <HAL_ADC_ConvCpltCallback+0x844>)
 8000ad6:	ed93 7a00 	vldr	s14, [r3]
 8000ada:	4b48      	ldr	r3, [pc, #288]	; (8000bfc <HAL_ADC_ConvCpltCallback+0x86c>)
 8000adc:	edd3 7a00 	vldr	s15, [r3]
 8000ae0:	ee27 7a27 	vmul.f32	s14, s14, s15
 8000ae4:	4b46      	ldr	r3, [pc, #280]	; (8000c00 <HAL_ADC_ConvCpltCallback+0x870>)
 8000ae6:	edd3 7a00 	vldr	s15, [r3]
 8000aea:	ee77 7a67 	vsub.f32	s15, s14, s15
 8000aee:	4b45      	ldr	r3, [pc, #276]	; (8000c04 <HAL_ADC_ConvCpltCallback+0x874>)
 8000af0:	edc3 7a00 	vstr	s15, [r3]
			cur_pfc_inte3+=cur_pfc_err3;
 8000af4:	4b44      	ldr	r3, [pc, #272]	; (8000c08 <HAL_ADC_ConvCpltCallback+0x878>)
 8000af6:	ed93 7a00 	vldr	s14, [r3]
 8000afa:	4b42      	ldr	r3, [pc, #264]	; (8000c04 <HAL_ADC_ConvCpltCallback+0x874>)
 8000afc:	edd3 7a00 	vldr	s15, [r3]
 8000b00:	ee77 7a27 	vadd.f32	s15, s14, s15
 8000b04:	4b40      	ldr	r3, [pc, #256]	; (8000c08 <HAL_ADC_ConvCpltCallback+0x878>)
 8000b06:	edc3 7a00 	vstr	s15, [r3]
			pwm_val=cur_pfc_p*cur_pfc_err3+cur_pfc_i*cur_pfc_inte3+cur_pfc_d*(cur_pfc_last3-cur_in3);
 8000b0a:	ed9f 7a37 	vldr	s14, [pc, #220]	; 8000be8 <HAL_ADC_ConvCpltCallback+0x858>
 8000b0e:	4b3d      	ldr	r3, [pc, #244]	; (8000c04 <HAL_ADC_ConvCpltCallback+0x874>)
 8000b10:	edd3 7a00 	vldr	s15, [r3]
 8000b14:	ee27 7a27 	vmul.f32	s14, s14, s15
 8000b18:	eef3 6a09 	vmov.f32	s13, #57	; 0x41c80000  25.0
 8000b1c:	4b3a      	ldr	r3, [pc, #232]	; (8000c08 <HAL_ADC_ConvCpltCallback+0x878>)
 8000b1e:	edd3 7a00 	vldr	s15, [r3]
 8000b22:	ee66 7aa7 	vmul.f32	s15, s13, s15
 8000b26:	ee37 7a27 	vadd.f32	s14, s14, s15
 8000b2a:	4b38      	ldr	r3, [pc, #224]	; (8000c0c <HAL_ADC_ConvCpltCallback+0x87c>)
 8000b2c:	edd3 6a00 	vldr	s13, [r3]
 8000b30:	4b33      	ldr	r3, [pc, #204]	; (8000c00 <HAL_ADC_ConvCpltCallback+0x870>)
 8000b32:	edd3 7a00 	vldr	s15, [r3]
 8000b36:	ee76 7ae7 	vsub.f32	s15, s13, s15
 8000b3a:	eddf 6a2d 	vldr	s13, [pc, #180]	; 8000bf0 <HAL_ADC_ConvCpltCallback+0x860>
 8000b3e:	ee67 7aa6 	vmul.f32	s15, s15, s13
 8000b42:	ee77 7a27 	vadd.f32	s15, s14, s15
 8000b46:	eefd 7ae7 	vcvt.s32.f32	s15, s15
 8000b4a:	ee17 3a90 	vmov	r3, s15
 8000b4e:	b21a      	sxth	r2, r3
 8000b50:	4b28      	ldr	r3, [pc, #160]	; (8000bf4 <HAL_ADC_ConvCpltCallback+0x864>)
 8000b52:	801a      	strh	r2, [r3, #0]
			cur_pfc_last3=cur_in3;
 8000b54:	4b2a      	ldr	r3, [pc, #168]	; (8000c00 <HAL_ADC_ConvCpltCallback+0x870>)
 8000b56:	681b      	ldr	r3, [r3, #0]
 8000b58:	4a2c      	ldr	r2, [pc, #176]	; (8000c0c <HAL_ADC_ConvCpltCallback+0x87c>)
 8000b5a:	6013      	str	r3, [r2, #0]
			if(pwm_val>pwm_th) {
 8000b5c:	4b25      	ldr	r3, [pc, #148]	; (8000bf4 <HAL_ADC_ConvCpltCallback+0x864>)
 8000b5e:	f9b3 3000 	ldrsh.w	r3, [r3]
 8000b62:	f44f 5296 	mov.w	r2, #4800	; 0x12c0
 8000b66:	4293      	cmp	r3, r2
 8000b68:	dd0e      	ble.n	8000b88 <HAL_ADC_ConvCpltCallback+0x7f8>
				pwm_val=pwm_th;
 8000b6a:	f44f 5296 	mov.w	r2, #4800	; 0x12c0
 8000b6e:	4b21      	ldr	r3, [pc, #132]	; (8000bf4 <HAL_ADC_ConvCpltCallback+0x864>)
 8000b70:	801a      	strh	r2, [r3, #0]
				cur_pfc_inte3-=cur_pfc_err3;
 8000b72:	4b25      	ldr	r3, [pc, #148]	; (8000c08 <HAL_ADC_ConvCpltCallback+0x878>)
 8000b74:	ed93 7a00 	vldr	s14, [r3]
 8000b78:	4b22      	ldr	r3, [pc, #136]	; (8000c04 <HAL_ADC_ConvCpltCallback+0x874>)
 8000b7a:	edd3 7a00 	vldr	s15, [r3]
 8000b7e:	ee77 7a67 	vsub.f32	s15, s14, s15
 8000b82:	4b21      	ldr	r3, [pc, #132]	; (8000c08 <HAL_ADC_ConvCpltCallback+0x878>)
 8000b84:	edc3 7a00 	vstr	s15, [r3]
			if(pwm_val<0) {
 8000b88:	4b1a      	ldr	r3, [pc, #104]	; (8000bf4 <HAL_ADC_ConvCpltCallback+0x864>)
 8000b8a:	f9b3 3000 	ldrsh.w	r3, [r3]
 8000b8e:	2b00      	cmp	r3, #0
 8000b90:	da0d      	bge.n	8000bae <HAL_ADC_ConvCpltCallback+0x81e>
				pwm_val=0;
 8000b92:	4b18      	ldr	r3, [pc, #96]	; (8000bf4 <HAL_ADC_ConvCpltCallback+0x864>)
 8000b94:	2200      	movs	r2, #0
 8000b96:	801a      	strh	r2, [r3, #0]
				cur_pfc_inte3-=cur_pfc_err3;
 8000b98:	4b1b      	ldr	r3, [pc, #108]	; (8000c08 <HAL_ADC_ConvCpltCallback+0x878>)
 8000b9a:	ed93 7a00 	vldr	s14, [r3]
 8000b9e:	4b19      	ldr	r3, [pc, #100]	; (8000c04 <HAL_ADC_ConvCpltCallback+0x874>)
 8000ba0:	edd3 7a00 	vldr	s15, [r3]
 8000ba4:	ee77 7a67 	vsub.f32	s15, s14, s15
 8000ba8:	4b17      	ldr	r3, [pc, #92]	; (8000c08 <HAL_ADC_ConvCpltCallback+0x878>)
 8000baa:	edc3 7a00 	vstr	s15, [r3]
			__HAL_TIM_SET_COMPARE(&htim1,TIM_CHANNEL_3,pwm_val);//ph3
 8000bae:	4b11      	ldr	r3, [pc, #68]	; (8000bf4 <HAL_ADC_ConvCpltCallback+0x864>)
 8000bb0:	f9b3 2000 	ldrsh.w	r2, [r3]
 8000bb4:	4b10      	ldr	r3, [pc, #64]	; (8000bf8 <HAL_ADC_ConvCpltCallback+0x868>)
 8000bb6:	681b      	ldr	r3, [r3, #0]
 8000bb8:	63da      	str	r2, [r3, #60]	; 0x3c
			cur_pfc_last2=cur_in2;
 8000bba:	4b15      	ldr	r3, [pc, #84]	; (8000c10 <HAL_ADC_ConvCpltCallback+0x880>)
 8000bbc:	681b      	ldr	r3, [r3, #0]
 8000bbe:	4a15      	ldr	r2, [pc, #84]	; (8000c14 <HAL_ADC_ConvCpltCallback+0x884>)
 8000bc0:	6013      	str	r3, [r2, #0]
			__HAL_TIM_SET_COMPARE(&htim1,TIM_CHANNEL_2,4999);//ph2
 8000bc2:	4b0d      	ldr	r3, [pc, #52]	; (8000bf8 <HAL_ADC_ConvCpltCallback+0x868>)
 8000bc4:	681b      	ldr	r3, [r3, #0]
 8000bc6:	f241 3287 	movw	r2, #4999	; 0x1387
 8000bca:	639a      	str	r2, [r3, #56]	; 0x38
}
 8000bcc:	e113      	b.n	8000df6 <HAL_ADC_ConvCpltCallback+0xa66>
 8000bce:	bf00      	nop
 8000bd0:	24000000 	.word	0x24000000
 8000bd4:	24000208 	.word	0x24000208
 8000bd8:	24000668 	.word	0x24000668
 8000bdc:	2400080c 	.word	0x2400080c
 8000be0:	24000214 	.word	0x24000214
 8000be4:	24000218 	.word	0x24000218
 8000be8:	42a00000 	.word	0x42a00000
 8000bec:	2400021c 	.word	0x2400021c
 8000bf0:	00000000 	.word	0x00000000
 8000bf4:	240006bc 	.word	0x240006bc
 8000bf8:	240007c0 	.word	0x240007c0
 8000bfc:	2400073c 	.word	0x2400073c
 8000c00:	240006d4 	.word	0x240006d4
 8000c04:	2400022c 	.word	0x2400022c
 8000c08:	24000230 	.word	0x24000230
 8000c0c:	24000234 	.word	0x24000234
 8000c10:	24000810 	.word	0x24000810
 8000c14:	24000228 	.word	0x24000228
			cur_pfc_err1=k*vol_in1-cur_in1;
 8000c18:	4b79      	ldr	r3, [pc, #484]	; (8000e00 <HAL_ADC_ConvCpltCallback+0xa70>)
 8000c1a:	ed93 7a00 	vldr	s14, [r3]
 8000c1e:	4b79      	ldr	r3, [pc, #484]	; (8000e04 <HAL_ADC_ConvCpltCallback+0xa74>)
 8000c20:	edd3 7a00 	vldr	s15, [r3]
 8000c24:	ee27 7a27 	vmul.f32	s14, s14, s15
 8000c28:	4b77      	ldr	r3, [pc, #476]	; (8000e08 <HAL_ADC_ConvCpltCallback+0xa78>)
 8000c2a:	edd3 7a00 	vldr	s15, [r3]
 8000c2e:	ee77 7a67 	vsub.f32	s15, s14, s15
 8000c32:	4b76      	ldr	r3, [pc, #472]	; (8000e0c <HAL_ADC_ConvCpltCallback+0xa7c>)
 8000c34:	edc3 7a00 	vstr	s15, [r3]
			cur_pfc_inte1+=cur_pfc_err1;
 8000c38:	4b75      	ldr	r3, [pc, #468]	; (8000e10 <HAL_ADC_ConvCpltCallback+0xa80>)
 8000c3a:	ed93 7a00 	vldr	s14, [r3]
 8000c3e:	4b73      	ldr	r3, [pc, #460]	; (8000e0c <HAL_ADC_ConvCpltCallback+0xa7c>)
 8000c40:	edd3 7a00 	vldr	s15, [r3]
 8000c44:	ee77 7a27 	vadd.f32	s15, s14, s15
 8000c48:	4b71      	ldr	r3, [pc, #452]	; (8000e10 <HAL_ADC_ConvCpltCallback+0xa80>)
 8000c4a:	edc3 7a00 	vstr	s15, [r3]
			pwm_val=cur_pfc_p*cur_pfc_err1+cur_pfc_i*cur_pfc_inte1+cur_pfc_d*(cur_pfc_last1-cur_in1);
 8000c4e:	ed9f 7a71 	vldr	s14, [pc, #452]	; 8000e14 <HAL_ADC_ConvCpltCallback+0xa84>
 8000c52:	4b6e      	ldr	r3, [pc, #440]	; (8000e0c <HAL_ADC_ConvCpltCallback+0xa7c>)
 8000c54:	edd3 7a00 	vldr	s15, [r3]
 8000c58:	ee27 7a27 	vmul.f32	s14, s14, s15
 8000c5c:	eef3 6a09 	vmov.f32	s13, #57	; 0x41c80000  25.0
 8000c60:	4b6b      	ldr	r3, [pc, #428]	; (8000e10 <HAL_ADC_ConvCpltCallback+0xa80>)
 8000c62:	edd3 7a00 	vldr	s15, [r3]
 8000c66:	ee66 7aa7 	vmul.f32	s15, s13, s15
 8000c6a:	ee37 7a27 	vadd.f32	s14, s14, s15
 8000c6e:	4b6a      	ldr	r3, [pc, #424]	; (8000e18 <HAL_ADC_ConvCpltCallback+0xa88>)
 8000c70:	edd3 6a00 	vldr	s13, [r3]
 8000c74:	4b64      	ldr	r3, [pc, #400]	; (8000e08 <HAL_ADC_ConvCpltCallback+0xa78>)
 8000c76:	edd3 7a00 	vldr	s15, [r3]
 8000c7a:	ee76 7ae7 	vsub.f32	s15, s13, s15
 8000c7e:	eddf 6a67 	vldr	s13, [pc, #412]	; 8000e1c <HAL_ADC_ConvCpltCallback+0xa8c>
 8000c82:	ee67 7aa6 	vmul.f32	s15, s15, s13
 8000c86:	ee77 7a27 	vadd.f32	s15, s14, s15
 8000c8a:	eefd 7ae7 	vcvt.s32.f32	s15, s15
 8000c8e:	ee17 3a90 	vmov	r3, s15
 8000c92:	b21a      	sxth	r2, r3
 8000c94:	4b62      	ldr	r3, [pc, #392]	; (8000e20 <HAL_ADC_ConvCpltCallback+0xa90>)
 8000c96:	801a      	strh	r2, [r3, #0]
			cur_pfc_last1=cur_in1;
 8000c98:	4b5b      	ldr	r3, [pc, #364]	; (8000e08 <HAL_ADC_ConvCpltCallback+0xa78>)
 8000c9a:	681b      	ldr	r3, [r3, #0]
 8000c9c:	4a5e      	ldr	r2, [pc, #376]	; (8000e18 <HAL_ADC_ConvCpltCallback+0xa88>)
 8000c9e:	6013      	str	r3, [r2, #0]
			if(pwm_val>pwm_th) {
 8000ca0:	4b5f      	ldr	r3, [pc, #380]	; (8000e20 <HAL_ADC_ConvCpltCallback+0xa90>)
 8000ca2:	f9b3 3000 	ldrsh.w	r3, [r3]
 8000ca6:	f44f 5296 	mov.w	r2, #4800	; 0x12c0
 8000caa:	4293      	cmp	r3, r2
 8000cac:	dd0e      	ble.n	8000ccc <HAL_ADC_ConvCpltCallback+0x93c>
				pwm_val=pwm_th;
 8000cae:	f44f 5296 	mov.w	r2, #4800	; 0x12c0
 8000cb2:	4b5b      	ldr	r3, [pc, #364]	; (8000e20 <HAL_ADC_ConvCpltCallback+0xa90>)
 8000cb4:	801a      	strh	r2, [r3, #0]
				cur_pfc_inte1-=cur_pfc_err1;
 8000cb6:	4b56      	ldr	r3, [pc, #344]	; (8000e10 <HAL_ADC_ConvCpltCallback+0xa80>)
 8000cb8:	ed93 7a00 	vldr	s14, [r3]
 8000cbc:	4b53      	ldr	r3, [pc, #332]	; (8000e0c <HAL_ADC_ConvCpltCallback+0xa7c>)
 8000cbe:	edd3 7a00 	vldr	s15, [r3]
 8000cc2:	ee77 7a67 	vsub.f32	s15, s14, s15
 8000cc6:	4b52      	ldr	r3, [pc, #328]	; (8000e10 <HAL_ADC_ConvCpltCallback+0xa80>)
 8000cc8:	edc3 7a00 	vstr	s15, [r3]
			if(pwm_val<0) {
 8000ccc:	4b54      	ldr	r3, [pc, #336]	; (8000e20 <HAL_ADC_ConvCpltCallback+0xa90>)
 8000cce:	f9b3 3000 	ldrsh.w	r3, [r3]
 8000cd2:	2b00      	cmp	r3, #0
 8000cd4:	da0d      	bge.n	8000cf2 <HAL_ADC_ConvCpltCallback+0x962>
				pwm_val=0;
 8000cd6:	4b52      	ldr	r3, [pc, #328]	; (8000e20 <HAL_ADC_ConvCpltCallback+0xa90>)
 8000cd8:	2200      	movs	r2, #0
 8000cda:	801a      	strh	r2, [r3, #0]
				cur_pfc_inte1-=cur_pfc_err1;
 8000cdc:	4b4c      	ldr	r3, [pc, #304]	; (8000e10 <HAL_ADC_ConvCpltCallback+0xa80>)
 8000cde:	ed93 7a00 	vldr	s14, [r3]
 8000ce2:	4b4a      	ldr	r3, [pc, #296]	; (8000e0c <HAL_ADC_ConvCpltCallback+0xa7c>)
 8000ce4:	edd3 7a00 	vldr	s15, [r3]
 8000ce8:	ee77 7a67 	vsub.f32	s15, s14, s15
 8000cec:	4b48      	ldr	r3, [pc, #288]	; (8000e10 <HAL_ADC_ConvCpltCallback+0xa80>)
 8000cee:	edc3 7a00 	vstr	s15, [r3]
			__HAL_TIM_SET_COMPARE(&htim1,TIM_CHANNEL_1,pwm_val);//ph1
 8000cf2:	4b4b      	ldr	r3, [pc, #300]	; (8000e20 <HAL_ADC_ConvCpltCallback+0xa90>)
 8000cf4:	f9b3 2000 	ldrsh.w	r2, [r3]
 8000cf8:	4b4a      	ldr	r3, [pc, #296]	; (8000e24 <HAL_ADC_ConvCpltCallback+0xa94>)
 8000cfa:	681b      	ldr	r3, [r3, #0]
 8000cfc:	635a      	str	r2, [r3, #52]	; 0x34
			cur_pfc_err2=k*vol_in2-cur_in2;
 8000cfe:	4b40      	ldr	r3, [pc, #256]	; (8000e00 <HAL_ADC_ConvCpltCallback+0xa70>)
 8000d00:	ed93 7a00 	vldr	s14, [r3]
 8000d04:	4b48      	ldr	r3, [pc, #288]	; (8000e28 <HAL_ADC_ConvCpltCallback+0xa98>)
 8000d06:	edd3 7a00 	vldr	s15, [r3]
 8000d0a:	ee27 7a27 	vmul.f32	s14, s14, s15
 8000d0e:	4b47      	ldr	r3, [pc, #284]	; (8000e2c <HAL_ADC_ConvCpltCallback+0xa9c>)
 8000d10:	edd3 7a00 	vldr	s15, [r3]
 8000d14:	ee77 7a67 	vsub.f32	s15, s14, s15
 8000d18:	4b45      	ldr	r3, [pc, #276]	; (8000e30 <HAL_ADC_ConvCpltCallback+0xaa0>)
 8000d1a:	edc3 7a00 	vstr	s15, [r3]
			cur_pfc_inte2+=cur_pfc_err2;
 8000d1e:	4b45      	ldr	r3, [pc, #276]	; (8000e34 <HAL_ADC_ConvCpltCallback+0xaa4>)
 8000d20:	ed93 7a00 	vldr	s14, [r3]
 8000d24:	4b42      	ldr	r3, [pc, #264]	; (8000e30 <HAL_ADC_ConvCpltCallback+0xaa0>)
 8000d26:	edd3 7a00 	vldr	s15, [r3]
 8000d2a:	ee77 7a27 	vadd.f32	s15, s14, s15
 8000d2e:	4b41      	ldr	r3, [pc, #260]	; (8000e34 <HAL_ADC_ConvCpltCallback+0xaa4>)
 8000d30:	edc3 7a00 	vstr	s15, [r3]
			pwm_val=cur_pfc_p*cur_pfc_err2+cur_pfc_i*cur_pfc_inte2+cur_pfc_d*(cur_pfc_last2-cur_in2);
 8000d34:	ed9f 7a37 	vldr	s14, [pc, #220]	; 8000e14 <HAL_ADC_ConvCpltCallback+0xa84>
 8000d38:	4b3d      	ldr	r3, [pc, #244]	; (8000e30 <HAL_ADC_ConvCpltCallback+0xaa0>)
 8000d3a:	edd3 7a00 	vldr	s15, [r3]
 8000d3e:	ee27 7a27 	vmul.f32	s14, s14, s15
 8000d42:	eef3 6a09 	vmov.f32	s13, #57	; 0x41c80000  25.0
 8000d46:	4b3b      	ldr	r3, [pc, #236]	; (8000e34 <HAL_ADC_ConvCpltCallback+0xaa4>)
 8000d48:	edd3 7a00 	vldr	s15, [r3]
 8000d4c:	ee66 7aa7 	vmul.f32	s15, s13, s15
 8000d50:	ee37 7a27 	vadd.f32	s14, s14, s15
 8000d54:	4b38      	ldr	r3, [pc, #224]	; (8000e38 <HAL_ADC_ConvCpltCallback+0xaa8>)
 8000d56:	edd3 6a00 	vldr	s13, [r3]
 8000d5a:	4b34      	ldr	r3, [pc, #208]	; (8000e2c <HAL_ADC_ConvCpltCallback+0xa9c>)
 8000d5c:	edd3 7a00 	vldr	s15, [r3]
 8000d60:	ee76 7ae7 	vsub.f32	s15, s13, s15
 8000d64:	eddf 6a2d 	vldr	s13, [pc, #180]	; 8000e1c <HAL_ADC_ConvCpltCallback+0xa8c>
 8000d68:	ee67 7aa6 	vmul.f32	s15, s15, s13
 8000d6c:	ee77 7a27 	vadd.f32	s15, s14, s15
 8000d70:	eefd 7ae7 	vcvt.s32.f32	s15, s15
 8000d74:	ee17 3a90 	vmov	r3, s15
 8000d78:	b21a      	sxth	r2, r3
 8000d7a:	4b29      	ldr	r3, [pc, #164]	; (8000e20 <HAL_ADC_ConvCpltCallback+0xa90>)
 8000d7c:	801a      	strh	r2, [r3, #0]
			cur_pfc_last2=cur_in2;
 8000d7e:	4b2b      	ldr	r3, [pc, #172]	; (8000e2c <HAL_ADC_ConvCpltCallback+0xa9c>)
 8000d80:	681b      	ldr	r3, [r3, #0]
 8000d82:	4a2d      	ldr	r2, [pc, #180]	; (8000e38 <HAL_ADC_ConvCpltCallback+0xaa8>)
 8000d84:	6013      	str	r3, [r2, #0]
			if(pwm_val>pwm_th) {
 8000d86:	4b26      	ldr	r3, [pc, #152]	; (8000e20 <HAL_ADC_ConvCpltCallback+0xa90>)
 8000d88:	f9b3 3000 	ldrsh.w	r3, [r3]
 8000d8c:	f44f 5296 	mov.w	r2, #4800	; 0x12c0
 8000d90:	4293      	cmp	r3, r2
 8000d92:	dd0e      	ble.n	8000db2 <HAL_ADC_ConvCpltCallback+0xa22>
				pwm_val=pwm_th;
 8000d94:	f44f 5296 	mov.w	r2, #4800	; 0x12c0
 8000d98:	4b21      	ldr	r3, [pc, #132]	; (8000e20 <HAL_ADC_ConvCpltCallback+0xa90>)
 8000d9a:	801a      	strh	r2, [r3, #0]
				cur_pfc_inte2-=cur_pfc_err2;
 8000d9c:	4b25      	ldr	r3, [pc, #148]	; (8000e34 <HAL_ADC_ConvCpltCallback+0xaa4>)
 8000d9e:	ed93 7a00 	vldr	s14, [r3]
 8000da2:	4b23      	ldr	r3, [pc, #140]	; (8000e30 <HAL_ADC_ConvCpltCallback+0xaa0>)
 8000da4:	edd3 7a00 	vldr	s15, [r3]
 8000da8:	ee77 7a67 	vsub.f32	s15, s14, s15
 8000dac:	4b21      	ldr	r3, [pc, #132]	; (8000e34 <HAL_ADC_ConvCpltCallback+0xaa4>)
 8000dae:	edc3 7a00 	vstr	s15, [r3]
			if(pwm_val<0) {
 8000db2:	4b1b      	ldr	r3, [pc, #108]	; (8000e20 <HAL_ADC_ConvCpltCallback+0xa90>)
 8000db4:	f9b3 3000 	ldrsh.w	r3, [r3]
 8000db8:	2b00      	cmp	r3, #0
 8000dba:	da0d      	bge.n	8000dd8 <HAL_ADC_ConvCpltCallback+0xa48>
				pwm_val=0;
 8000dbc:	4b18      	ldr	r3, [pc, #96]	; (8000e20 <HAL_ADC_ConvCpltCallback+0xa90>)
 8000dbe:	2200      	movs	r2, #0
 8000dc0:	801a      	strh	r2, [r3, #0]
				cur_pfc_inte2-=cur_pfc_err2;
 8000dc2:	4b1c      	ldr	r3, [pc, #112]	; (8000e34 <HAL_ADC_ConvCpltCallback+0xaa4>)
 8000dc4:	ed93 7a00 	vldr	s14, [r3]
 8000dc8:	4b19      	ldr	r3, [pc, #100]	; (8000e30 <HAL_ADC_ConvCpltCallback+0xaa0>)
 8000dca:	edd3 7a00 	vldr	s15, [r3]
 8000dce:	ee77 7a67 	vsub.f32	s15, s14, s15
 8000dd2:	4b18      	ldr	r3, [pc, #96]	; (8000e34 <HAL_ADC_ConvCpltCallback+0xaa4>)
 8000dd4:	edc3 7a00 	vstr	s15, [r3]
			__HAL_TIM_SET_COMPARE(&htim1,TIM_CHANNEL_2,pwm_val);//ph2
 8000dd8:	4b11      	ldr	r3, [pc, #68]	; (8000e20 <HAL_ADC_ConvCpltCallback+0xa90>)
 8000dda:	f9b3 2000 	ldrsh.w	r2, [r3]
 8000dde:	4b11      	ldr	r3, [pc, #68]	; (8000e24 <HAL_ADC_ConvCpltCallback+0xa94>)
 8000de0:	681b      	ldr	r3, [r3, #0]
 8000de2:	639a      	str	r2, [r3, #56]	; 0x38
			cur_pfc_last3=cur_in3;
 8000de4:	4b15      	ldr	r3, [pc, #84]	; (8000e3c <HAL_ADC_ConvCpltCallback+0xaac>)
 8000de6:	681b      	ldr	r3, [r3, #0]
 8000de8:	4a15      	ldr	r2, [pc, #84]	; (8000e40 <HAL_ADC_ConvCpltCallback+0xab0>)
 8000dea:	6013      	str	r3, [r2, #0]
			__HAL_TIM_SET_COMPARE(&htim1,TIM_CHANNEL_3,4999);//ph3
 8000dec:	4b0d      	ldr	r3, [pc, #52]	; (8000e24 <HAL_ADC_ConvCpltCallback+0xa94>)
 8000dee:	681b      	ldr	r3, [r3, #0]
 8000df0:	f241 3287 	movw	r2, #4999	; 0x1387
 8000df4:	63da      	str	r2, [r3, #60]	; 0x3c
}
 8000df6:	bf00      	nop
 8000df8:	3708      	adds	r7, #8
 8000dfa:	46bd      	mov	sp, r7
 8000dfc:	bd80      	pop	{r7, pc}
 8000dfe:	bf00      	nop
 8000e00:	24000208 	.word	0x24000208
 8000e04:	24000668 	.word	0x24000668
 8000e08:	2400080c 	.word	0x2400080c
 8000e0c:	24000214 	.word	0x24000214
 8000e10:	24000218 	.word	0x24000218
 8000e14:	42a00000 	.word	0x42a00000
 8000e18:	2400021c 	.word	0x2400021c
 8000e1c:	00000000 	.word	0x00000000
 8000e20:	240006bc 	.word	0x240006bc
 8000e24:	240007c0 	.word	0x240007c0
 8000e28:	24000740 	.word	0x24000740
 8000e2c:	24000810 	.word	0x24000810
 8000e30:	24000220 	.word	0x24000220
 8000e34:	24000224 	.word	0x24000224
 8000e38:	24000228 	.word	0x24000228
 8000e3c:	240006d4 	.word	0x240006d4
 8000e40:	24000234 	.word	0x24000234

08000e44 <main>:
/**
  * @brief  The application entry point.
  * @retval int
  */
int main(void)
{
 8000e44:	b580      	push	{r7, lr}
 8000e46:	af00      	add	r7, sp, #0
  \details Turns on I-Cache
  */
__STATIC_FORCEINLINE void SCB_EnableICache (void)
{
  #if defined (__ICACHE_PRESENT) && (__ICACHE_PRESENT == 1U)
    if (SCB->CCR & SCB_CCR_IC_Msk) return;  /* return if ICache is already enabled */
 8000e48:	4b81      	ldr	r3, [pc, #516]	; (8001050 <main+0x20c>)
 8000e4a:	695b      	ldr	r3, [r3, #20]
 8000e4c:	f403 3300 	and.w	r3, r3, #131072	; 0x20000
 8000e50:	2b00      	cmp	r3, #0
 8000e52:	d11b      	bne.n	8000e8c <main+0x48>
  \details Acts as a special kind of Data Memory Barrier.
           It completes when all explicit memory accesses before this instruction complete.
 */
__STATIC_FORCEINLINE void __DSB(void)
{
  __ASM volatile ("dsb 0xF":::"memory");
 8000e54:	f3bf 8f4f 	dsb	sy
}
 8000e58:	bf00      	nop
  __ASM volatile ("isb 0xF":::"memory");
 8000e5a:	f3bf 8f6f 	isb	sy
}
 8000e5e:	bf00      	nop

    __DSB();
    __ISB();
    SCB->ICIALLU = 0UL;                     /* invalidate I-Cache */
 8000e60:	4b7b      	ldr	r3, [pc, #492]	; (8001050 <main+0x20c>)
 8000e62:	2200      	movs	r2, #0
 8000e64:	f8c3 2250 	str.w	r2, [r3, #592]	; 0x250
  __ASM volatile ("dsb 0xF":::"memory");
 8000e68:	f3bf 8f4f 	dsb	sy
}
 8000e6c:	bf00      	nop
  __ASM volatile ("isb 0xF":::"memory");
 8000e6e:	f3bf 8f6f 	isb	sy
}
 8000e72:	bf00      	nop
    __DSB();
    __ISB();
    SCB->CCR |=  (uint32_t)SCB_CCR_IC_Msk;  /* enable I-Cache */
 8000e74:	4b76      	ldr	r3, [pc, #472]	; (8001050 <main+0x20c>)
 8000e76:	695b      	ldr	r3, [r3, #20]
 8000e78:	4a75      	ldr	r2, [pc, #468]	; (8001050 <main+0x20c>)
 8000e7a:	f443 3300 	orr.w	r3, r3, #131072	; 0x20000
 8000e7e:	6153      	str	r3, [r2, #20]
  __ASM volatile ("dsb 0xF":::"memory");
 8000e80:	f3bf 8f4f 	dsb	sy
}
 8000e84:	bf00      	nop
  __ASM volatile ("isb 0xF":::"memory");
 8000e86:	f3bf 8f6f 	isb	sy
}
 8000e8a:	e000      	b.n	8000e8e <main+0x4a>
    if (SCB->CCR & SCB_CCR_IC_Msk) return;  /* return if ICache is already enabled */
 8000e8c:	bf00      	nop
  SCB_EnableICache();

  /* MCU Configuration--------------------------------------------------------*/

  /* Reset of all peripherals, Initializes the Flash interface and the Systick. */
  HAL_Init();
 8000e8e:	f001 f9ef 	bl	8002270 <HAL_Init>
  /* USER CODE BEGIN Init */

  /* USER CODE END Init */

  /* Configure the system clock */
  SystemClock_Config();
 8000e92:	f000 f90d 	bl	80010b0 <SystemClock_Config>

  /* USER CODE BEGIN SysInit */
  MX_DMA_Init();
 8000e96:	f000 fcbf 	bl	8001818 <MX_DMA_Init>
  /* USER CODE END SysInit */

  /* Initialize all configured peripherals */
  MX_GPIO_Init();
 8000e9a:	f000 fcdd 	bl	8001858 <MX_GPIO_Init>
  MX_ADC1_Init();
 8000e9e:	f000 f98b 	bl	80011b8 <MX_ADC1_Init>
  MX_DMA_Init();
 8000ea2:	f000 fcb9 	bl	8001818 <MX_DMA_Init>
  MX_HRTIM_Init();
 8000ea6:	f000 fa85 	bl	80013b4 <MX_HRTIM_Init>
  MX_I2C1_Init();
 8000eaa:	f000 fbb1 	bl	8001610 <MX_I2C1_Init>
  MX_TIM1_Init();
 8000eae:	f000 fbef 	bl	8001690 <MX_TIM1_Init>
  /* USER CODE BEGIN 2 */
  ssd1306_Init();
 8000eb2:	f00b fbdb 	bl	800c66c <ssd1306_Init>
  HAL_Delay(1000);
 8000eb6:	f44f 707a 	mov.w	r0, #1000	; 0x3e8
 8000eba:	f001 fa6b 	bl	8002394 <HAL_Delay>
  HAL_ADCEx_Calibration_Start(&hadc1, ADC_CALIB_OFFSET_LINEARITY, ADC_SINGLE_ENDED);
 8000ebe:	f240 72ff 	movw	r2, #2047	; 0x7ff
 8000ec2:	f04f 1101 	mov.w	r1, #65537	; 0x10001
 8000ec6:	4863      	ldr	r0, [pc, #396]	; (8001054 <main+0x210>)
 8000ec8:	f002 ffd4 	bl	8003e74 <HAL_ADCEx_Calibration_Start>
  HAL_HRTIM_WaveformCounterStart(&hhrtim,HRTIM_TIMERID_TIMER_A);
 8000ecc:	f44f 3100 	mov.w	r1, #131072	; 0x20000
 8000ed0:	4861      	ldr	r0, [pc, #388]	; (8001058 <main+0x214>)
 8000ed2:	f006 f8e9 	bl	80070a8 <HAL_HRTIM_WaveformCountStart>
  HAL_HRTIM_WaveformOutputStart(&hhrtim, HRTIM_OUTPUT_TA1);
 8000ed6:	2101      	movs	r1, #1
 8000ed8:	485f      	ldr	r0, [pc, #380]	; (8001058 <main+0x214>)
 8000eda:	f006 f8b8 	bl	800704e <HAL_HRTIM_WaveformOutputStart>
  HAL_Delay(1000);
 8000ede:	f44f 707a 	mov.w	r0, #1000	; 0x3e8
 8000ee2:	f001 fa57 	bl	8002394 <HAL_Delay>
  pfc_err=0;
 8000ee6:	4b5d      	ldr	r3, [pc, #372]	; (800105c <main+0x218>)
 8000ee8:	2200      	movs	r2, #0
 8000eea:	701a      	strb	r2, [r3, #0]
  HAL_ADC_Start_DMA(&hadc1,(uint32_t *)adc_vals,9);
 8000eec:	2209      	movs	r2, #9
 8000eee:	495c      	ldr	r1, [pc, #368]	; (8001060 <main+0x21c>)
 8000ef0:	4858      	ldr	r0, [pc, #352]	; (8001054 <main+0x210>)
 8000ef2:	f001 fe71 	bl	8002bd8 <HAL_ADC_Start_DMA>
  //HAL_Delay(1000);
  HAL_TIM_PWM_Start(&htim1,TIM_CHANNEL_1);
 8000ef6:	2100      	movs	r1, #0
 8000ef8:	485a      	ldr	r0, [pc, #360]	; (8001064 <main+0x220>)
 8000efa:	f00a fa61 	bl	800b3c0 <HAL_TIM_PWM_Start>
  HAL_TIM_PWM_Start(&htim1,TIM_CHANNEL_2);
 8000efe:	2104      	movs	r1, #4
 8000f00:	4858      	ldr	r0, [pc, #352]	; (8001064 <main+0x220>)
 8000f02:	f00a fa5d 	bl	800b3c0 <HAL_TIM_PWM_Start>
  HAL_TIM_PWM_Start(&htim1,TIM_CHANNEL_3);
 8000f06:	2108      	movs	r1, #8
 8000f08:	4856      	ldr	r0, [pc, #344]	; (8001064 <main+0x220>)
 8000f0a:	f00a fa59 	bl	800b3c0 <HAL_TIM_PWM_Start>
HAL_TIMEx_PWMN_Start(&htim1,TIM_CHANNEL_1);
 8000f0e:	2100      	movs	r1, #0
 8000f10:	4854      	ldr	r0, [pc, #336]	; (8001064 <main+0x220>)
 8000f12:	f00b f98d 	bl	800c230 <HAL_TIMEx_PWMN_Start>
HAL_TIMEx_PWMN_Start(&htim1,TIM_CHANNEL_2);
 8000f16:	2104      	movs	r1, #4
 8000f18:	4852      	ldr	r0, [pc, #328]	; (8001064 <main+0x220>)
 8000f1a:	f00b f989 	bl	800c230 <HAL_TIMEx_PWMN_Start>
HAL_TIMEx_PWMN_Start(&htim1,TIM_CHANNEL_3);
 8000f1e:	2108      	movs	r1, #8
 8000f20:	4850      	ldr	r0, [pc, #320]	; (8001064 <main+0x220>)
 8000f22:	f00b f985 	bl	800c230 <HAL_TIMEx_PWMN_Start>
//__HAL_TIM_MOE_DISABLE_UNCONDITIONALLY(&htim1);
//pfc_err=1;
HAL_Delay(1000);
 8000f26:	f44f 707a 	mov.w	r0, #1000	; 0x3e8
 8000f2a:	f001 fa33 	bl	8002394 <HAL_Delay>
vol_out_err=0,vol_out_inte=0,vol_out_last=0;
 8000f2e:	4b4e      	ldr	r3, [pc, #312]	; (8001068 <main+0x224>)
 8000f30:	f04f 0200 	mov.w	r2, #0
 8000f34:	601a      	str	r2, [r3, #0]
 8000f36:	4b4d      	ldr	r3, [pc, #308]	; (800106c <main+0x228>)
 8000f38:	f04f 0200 	mov.w	r2, #0
 8000f3c:	601a      	str	r2, [r3, #0]
 8000f3e:	4b4c      	ldr	r3, [pc, #304]	; (8001070 <main+0x22c>)
 8000f40:	f04f 0200 	mov.w	r2, #0
 8000f44:	601a      	str	r2, [r3, #0]
HAL_HRTIM_WaveformCounterStart(&hhrtim,HRTIM_TIMERID_TIMER_D);
 8000f46:	f44f 1180 	mov.w	r1, #1048576	; 0x100000
 8000f4a:	4843      	ldr	r0, [pc, #268]	; (8001058 <main+0x214>)
 8000f4c:	f006 f8ac 	bl	80070a8 <HAL_HRTIM_WaveformCountStart>
HAL_HRTIM_WaveformOutputStart(&hhrtim, HRTIM_OUTPUT_TD1|HRTIM_OUTPUT_TD2);
 8000f50:	21c0      	movs	r1, #192	; 0xc0
 8000f52:	4841      	ldr	r0, [pc, #260]	; (8001058 <main+0x214>)
 8000f54:	f006 f87b 	bl	800704e <HAL_HRTIM_WaveformOutputStart>
  /* Infinite loop */
  /* USER CODE BEGIN WHILE */
  while (1)
  {

	  if(pfc_err){
 8000f58:	4b40      	ldr	r3, [pc, #256]	; (800105c <main+0x218>)
 8000f5a:	781b      	ldrb	r3, [r3, #0]
 8000f5c:	2b00      	cmp	r3, #0
 8000f5e:	d005      	beq.n	8000f6c <main+0x128>
		  HAL_GPIO_WritePin(LED_R_GPIO_Port, LED_R_Pin, 0);
 8000f60:	2200      	movs	r2, #0
 8000f62:	2110      	movs	r1, #16
 8000f64:	4843      	ldr	r0, [pc, #268]	; (8001074 <main+0x230>)
 8000f66:	f005 fc91 	bl	800688c <HAL_GPIO_WritePin>
 8000f6a:	e004      	b.n	8000f76 <main+0x132>
	  }
	  else {
		  HAL_GPIO_WritePin(LED_R_GPIO_Port, LED_R_Pin, 1);
 8000f6c:	2201      	movs	r2, #1
 8000f6e:	2110      	movs	r1, #16
 8000f70:	4840      	ldr	r0, [pc, #256]	; (8001074 <main+0x230>)
 8000f72:	f005 fc8b 	bl	800688c <HAL_GPIO_WritePin>
	  }
	  if(cur_out>1.5&&cur_out<2&&vol_pfc<70&&vol_pfc>15&&pfc_err)
 8000f76:	4b40      	ldr	r3, [pc, #256]	; (8001078 <main+0x234>)
 8000f78:	edd3 7a00 	vldr	s15, [r3]
 8000f7c:	eeb7 7a08 	vmov.f32	s14, #120	; 0x3fc00000  1.5
 8000f80:	eef4 7ac7 	vcmpe.f32	s15, s14
 8000f84:	eef1 fa10 	vmrs	APSR_nzcv, fpscr
 8000f88:	dd5c      	ble.n	8001044 <main+0x200>
 8000f8a:	4b3b      	ldr	r3, [pc, #236]	; (8001078 <main+0x234>)
 8000f8c:	edd3 7a00 	vldr	s15, [r3]
 8000f90:	eeb0 7a00 	vmov.f32	s14, #0	; 0x40000000  2.0
 8000f94:	eef4 7ac7 	vcmpe.f32	s15, s14
 8000f98:	eef1 fa10 	vmrs	APSR_nzcv, fpscr
 8000f9c:	d552      	bpl.n	8001044 <main+0x200>
 8000f9e:	4b37      	ldr	r3, [pc, #220]	; (800107c <main+0x238>)
 8000fa0:	edd3 7a00 	vldr	s15, [r3]
 8000fa4:	ed9f 7a36 	vldr	s14, [pc, #216]	; 8001080 <main+0x23c>
 8000fa8:	eef4 7ac7 	vcmpe.f32	s15, s14
 8000fac:	eef1 fa10 	vmrs	APSR_nzcv, fpscr
 8000fb0:	d548      	bpl.n	8001044 <main+0x200>
 8000fb2:	4b32      	ldr	r3, [pc, #200]	; (800107c <main+0x238>)
 8000fb4:	edd3 7a00 	vldr	s15, [r3]
 8000fb8:	eeb2 7a0e 	vmov.f32	s14, #46	; 0x41700000  15.0
 8000fbc:	eef4 7ac7 	vcmpe.f32	s15, s14
 8000fc0:	eef1 fa10 	vmrs	APSR_nzcv, fpscr
 8000fc4:	dd3e      	ble.n	8001044 <main+0x200>
 8000fc6:	4b25      	ldr	r3, [pc, #148]	; (800105c <main+0x218>)
 8000fc8:	781b      	ldrb	r3, [r3, #0]
 8000fca:	2b00      	cmp	r3, #0
 8000fcc:	d03a      	beq.n	8001044 <main+0x200>
	  {
		  HAL_Delay(500);
 8000fce:	f44f 70fa 	mov.w	r0, #500	; 0x1f4
 8000fd2:	f001 f9df 	bl	8002394 <HAL_Delay>
		  pfc_err=0;
 8000fd6:	4b21      	ldr	r3, [pc, #132]	; (800105c <main+0x218>)
 8000fd8:	2200      	movs	r2, #0
 8000fda:	701a      	strb	r2, [r3, #0]
		  vol_pfc_err=0,vol_pfc_inte=0;
 8000fdc:	4b29      	ldr	r3, [pc, #164]	; (8001084 <main+0x240>)
 8000fde:	f04f 0200 	mov.w	r2, #0
 8000fe2:	601a      	str	r2, [r3, #0]
 8000fe4:	4b28      	ldr	r3, [pc, #160]	; (8001088 <main+0x244>)
 8000fe6:	f04f 0200 	mov.w	r2, #0
 8000fea:	601a      	str	r2, [r3, #0]
		  cur_pfc_err1=0,cur_pfc_inte1=0,cur_pfc_last1=0,cur_pfc_err2=0,cur_pfc_inte2=0,cur_pfc_last2=0,cur_pfc_err3=0,cur_pfc_inte3=0,cur_pfc_last3=0;
 8000fec:	4b27      	ldr	r3, [pc, #156]	; (800108c <main+0x248>)
 8000fee:	f04f 0200 	mov.w	r2, #0
 8000ff2:	601a      	str	r2, [r3, #0]
 8000ff4:	4b26      	ldr	r3, [pc, #152]	; (8001090 <main+0x24c>)
 8000ff6:	f04f 0200 	mov.w	r2, #0
 8000ffa:	601a      	str	r2, [r3, #0]
 8000ffc:	4b25      	ldr	r3, [pc, #148]	; (8001094 <main+0x250>)
 8000ffe:	f04f 0200 	mov.w	r2, #0
 8001002:	601a      	str	r2, [r3, #0]
 8001004:	4b24      	ldr	r3, [pc, #144]	; (8001098 <main+0x254>)
 8001006:	f04f 0200 	mov.w	r2, #0
 800100a:	601a      	str	r2, [r3, #0]
 800100c:	4b23      	ldr	r3, [pc, #140]	; (800109c <main+0x258>)
 800100e:	f04f 0200 	mov.w	r2, #0
 8001012:	601a      	str	r2, [r3, #0]
 8001014:	4b22      	ldr	r3, [pc, #136]	; (80010a0 <main+0x25c>)
 8001016:	f04f 0200 	mov.w	r2, #0
 800101a:	601a      	str	r2, [r3, #0]
 800101c:	4b21      	ldr	r3, [pc, #132]	; (80010a4 <main+0x260>)
 800101e:	f04f 0200 	mov.w	r2, #0
 8001022:	601a      	str	r2, [r3, #0]
 8001024:	4b20      	ldr	r3, [pc, #128]	; (80010a8 <main+0x264>)
 8001026:	f04f 0200 	mov.w	r2, #0
 800102a:	601a      	str	r2, [r3, #0]
 800102c:	4b1f      	ldr	r3, [pc, #124]	; (80010ac <main+0x268>)
 800102e:	f04f 0200 	mov.w	r2, #0
 8001032:	601a      	str	r2, [r3, #0]
		  __HAL_TIM_MOE_ENABLE(&htim1);
 8001034:	4b0b      	ldr	r3, [pc, #44]	; (8001064 <main+0x220>)
 8001036:	681b      	ldr	r3, [r3, #0]
 8001038:	6c5a      	ldr	r2, [r3, #68]	; 0x44
 800103a:	4b0a      	ldr	r3, [pc, #40]	; (8001064 <main+0x220>)
 800103c:	681b      	ldr	r3, [r3, #0]
 800103e:	f442 4200 	orr.w	r2, r2, #32768	; 0x8000
 8001042:	645a      	str	r2, [r3, #68]	; 0x44
	  }
	  HAL_GPIO_TogglePin(LED_B_GPIO_Port, LED_B_Pin);
 8001044:	2104      	movs	r1, #4
 8001046:	480b      	ldr	r0, [pc, #44]	; (8001074 <main+0x230>)
 8001048:	f005 fc39 	bl	80068be <HAL_GPIO_TogglePin>
	  if(pfc_err){
 800104c:	e784      	b.n	8000f58 <main+0x114>
 800104e:	bf00      	nop
 8001050:	e000ed00 	.word	0xe000ed00
 8001054:	240006d8 	.word	0x240006d8
 8001058:	24000814 	.word	0x24000814
 800105c:	24000001 	.word	0x24000001
 8001060:	240006c0 	.word	0x240006c0
 8001064:	240007c0 	.word	0x240007c0
 8001068:	24000238 	.word	0x24000238
 800106c:	2400023c 	.word	0x2400023c
 8001070:	24000240 	.word	0x24000240
 8001074:	58021000 	.word	0x58021000
 8001078:	240007bc 	.word	0x240007bc
 800107c:	240008f0 	.word	0x240008f0
 8001080:	428c0000 	.word	0x428c0000
 8001084:	2400020c 	.word	0x2400020c
 8001088:	24000210 	.word	0x24000210
 800108c:	24000214 	.word	0x24000214
 8001090:	24000218 	.word	0x24000218
 8001094:	2400021c 	.word	0x2400021c
 8001098:	24000220 	.word	0x24000220
 800109c:	24000224 	.word	0x24000224
 80010a0:	24000228 	.word	0x24000228
 80010a4:	2400022c 	.word	0x2400022c
 80010a8:	24000230 	.word	0x24000230
 80010ac:	24000234 	.word	0x24000234

080010b0 <SystemClock_Config>:
/**
  * @brief System Clock Configuration
  * @retval None
  */
void SystemClock_Config(void)
{
 80010b0:	b580      	push	{r7, lr}
 80010b2:	b09c      	sub	sp, #112	; 0x70
 80010b4:	af00      	add	r7, sp, #0
  RCC_OscInitTypeDef RCC_OscInitStruct = {0};
 80010b6:	f107 0324 	add.w	r3, r7, #36	; 0x24
 80010ba:	224c      	movs	r2, #76	; 0x4c
 80010bc:	2100      	movs	r1, #0
 80010be:	4618      	mov	r0, r3
 80010c0:	f00b fbf8 	bl	800c8b4 <memset>
  RCC_ClkInitTypeDef RCC_ClkInitStruct = {0};
 80010c4:	1d3b      	adds	r3, r7, #4
 80010c6:	2220      	movs	r2, #32
 80010c8:	2100      	movs	r1, #0
 80010ca:	4618      	mov	r0, r3
 80010cc:	f00b fbf2 	bl	800c8b4 <memset>

  /** Supply configuration update enable
  */
  HAL_PWREx_ConfigSupply(PWR_LDO_SUPPLY);
 80010d0:	2002      	movs	r0, #2
 80010d2:	f006 ff8d 	bl	8007ff0 <HAL_PWREx_ConfigSupply>
  /** Configure the main internal regulator output voltage
  */
  __HAL_PWR_VOLTAGESCALING_CONFIG(PWR_REGULATOR_VOLTAGE_SCALE1);
 80010d6:	2300      	movs	r3, #0
 80010d8:	603b      	str	r3, [r7, #0]
 80010da:	4b34      	ldr	r3, [pc, #208]	; (80011ac <SystemClock_Config+0xfc>)
 80010dc:	6adb      	ldr	r3, [r3, #44]	; 0x2c
 80010de:	4a33      	ldr	r2, [pc, #204]	; (80011ac <SystemClock_Config+0xfc>)
 80010e0:	f023 0301 	bic.w	r3, r3, #1
 80010e4:	62d3      	str	r3, [r2, #44]	; 0x2c
 80010e6:	4b31      	ldr	r3, [pc, #196]	; (80011ac <SystemClock_Config+0xfc>)
 80010e8:	6adb      	ldr	r3, [r3, #44]	; 0x2c
 80010ea:	f003 0301 	and.w	r3, r3, #1
 80010ee:	603b      	str	r3, [r7, #0]
 80010f0:	4b2f      	ldr	r3, [pc, #188]	; (80011b0 <SystemClock_Config+0x100>)
 80010f2:	699b      	ldr	r3, [r3, #24]
 80010f4:	4a2e      	ldr	r2, [pc, #184]	; (80011b0 <SystemClock_Config+0x100>)
 80010f6:	f443 4340 	orr.w	r3, r3, #49152	; 0xc000
 80010fa:	6193      	str	r3, [r2, #24]
 80010fc:	4b2c      	ldr	r3, [pc, #176]	; (80011b0 <SystemClock_Config+0x100>)
 80010fe:	699b      	ldr	r3, [r3, #24]
 8001100:	f403 4340 	and.w	r3, r3, #49152	; 0xc000
 8001104:	603b      	str	r3, [r7, #0]
 8001106:	683b      	ldr	r3, [r7, #0]

  while(!__HAL_PWR_GET_FLAG(PWR_FLAG_VOSRDY)) {}
 8001108:	bf00      	nop
 800110a:	4b29      	ldr	r3, [pc, #164]	; (80011b0 <SystemClock_Config+0x100>)
 800110c:	699b      	ldr	r3, [r3, #24]
 800110e:	f403 5300 	and.w	r3, r3, #8192	; 0x2000
 8001112:	f5b3 5f00 	cmp.w	r3, #8192	; 0x2000
 8001116:	d1f8      	bne.n	800110a <SystemClock_Config+0x5a>
  /** Macro to configure the PLL clock source
  */
  __HAL_RCC_PLL_PLLSOURCE_CONFIG(RCC_PLLSOURCE_HSE);
 8001118:	4b26      	ldr	r3, [pc, #152]	; (80011b4 <SystemClock_Config+0x104>)
 800111a:	6a9b      	ldr	r3, [r3, #40]	; 0x28
 800111c:	f023 0303 	bic.w	r3, r3, #3
 8001120:	4a24      	ldr	r2, [pc, #144]	; (80011b4 <SystemClock_Config+0x104>)
 8001122:	f043 0302 	orr.w	r3, r3, #2
 8001126:	6293      	str	r3, [r2, #40]	; 0x28
  /** Initializes the RCC Oscillators according to the specified parameters
  * in the RCC_OscInitTypeDef structure.
  */
  RCC_OscInitStruct.OscillatorType = RCC_OSCILLATORTYPE_HSE;
 8001128:	2301      	movs	r3, #1
 800112a:	627b      	str	r3, [r7, #36]	; 0x24
  RCC_OscInitStruct.HSEState = RCC_HSE_ON;
 800112c:	f44f 3380 	mov.w	r3, #65536	; 0x10000
 8001130:	62bb      	str	r3, [r7, #40]	; 0x28
  RCC_OscInitStruct.PLL.PLLState = RCC_PLL_ON;
 8001132:	2302      	movs	r3, #2
 8001134:	64bb      	str	r3, [r7, #72]	; 0x48
  RCC_OscInitStruct.PLL.PLLSource = RCC_PLLSOURCE_HSE;
 8001136:	2302      	movs	r3, #2
 8001138:	64fb      	str	r3, [r7, #76]	; 0x4c
  RCC_OscInitStruct.PLL.PLLM = 5;
 800113a:	2305      	movs	r3, #5
 800113c:	653b      	str	r3, [r7, #80]	; 0x50
  RCC_OscInitStruct.PLL.PLLN = 160;
 800113e:	23a0      	movs	r3, #160	; 0xa0
 8001140:	657b      	str	r3, [r7, #84]	; 0x54
  RCC_OscInitStruct.PLL.PLLP = 2;
 8001142:	2302      	movs	r3, #2
 8001144:	65bb      	str	r3, [r7, #88]	; 0x58
  RCC_OscInitStruct.PLL.PLLQ = 2;
 8001146:	2302      	movs	r3, #2
 8001148:	65fb      	str	r3, [r7, #92]	; 0x5c
  RCC_OscInitStruct.PLL.PLLR = 2;
 800114a:	2302      	movs	r3, #2
 800114c:	663b      	str	r3, [r7, #96]	; 0x60
  RCC_OscInitStruct.PLL.PLLRGE = RCC_PLL1VCIRANGE_2;
 800114e:	2308      	movs	r3, #8
 8001150:	667b      	str	r3, [r7, #100]	; 0x64
  RCC_OscInitStruct.PLL.PLLVCOSEL = RCC_PLL1VCOWIDE;
 8001152:	2300      	movs	r3, #0
 8001154:	66bb      	str	r3, [r7, #104]	; 0x68
  RCC_OscInitStruct.PLL.PLLFRACN = 0;
 8001156:	2300      	movs	r3, #0
 8001158:	66fb      	str	r3, [r7, #108]	; 0x6c
  if (HAL_RCC_OscConfig(&RCC_OscInitStruct) != HAL_OK)
 800115a:	f107 0324 	add.w	r3, r7, #36	; 0x24
 800115e:	4618      	mov	r0, r3
 8001160:	f006 ff80 	bl	8008064 <HAL_RCC_OscConfig>
 8001164:	4603      	mov	r3, r0
 8001166:	2b00      	cmp	r3, #0
 8001168:	d001      	beq.n	800116e <SystemClock_Config+0xbe>
  {
    Error_Handler();
 800116a:	f000 fc19 	bl	80019a0 <Error_Handler>
  }
  /** Initializes the CPU, AHB and APB buses clocks
  */
  RCC_ClkInitStruct.ClockType = RCC_CLOCKTYPE_HCLK|RCC_CLOCKTYPE_SYSCLK
 800116e:	233f      	movs	r3, #63	; 0x3f
 8001170:	607b      	str	r3, [r7, #4]
                              |RCC_CLOCKTYPE_PCLK1|RCC_CLOCKTYPE_PCLK2
                              |RCC_CLOCKTYPE_D3PCLK1|RCC_CLOCKTYPE_D1PCLK1;
  RCC_ClkInitStruct.SYSCLKSource = RCC_SYSCLKSOURCE_PLLCLK;
 8001172:	2303      	movs	r3, #3
 8001174:	60bb      	str	r3, [r7, #8]
  RCC_ClkInitStruct.SYSCLKDivider = RCC_SYSCLK_DIV1;
 8001176:	2300      	movs	r3, #0
 8001178:	60fb      	str	r3, [r7, #12]
  RCC_ClkInitStruct.AHBCLKDivider = RCC_HCLK_DIV2;
 800117a:	2308      	movs	r3, #8
 800117c:	613b      	str	r3, [r7, #16]
  RCC_ClkInitStruct.APB3CLKDivider = RCC_APB3_DIV2;
 800117e:	2340      	movs	r3, #64	; 0x40
 8001180:	617b      	str	r3, [r7, #20]
  RCC_ClkInitStruct.APB1CLKDivider = RCC_APB1_DIV2;
 8001182:	2340      	movs	r3, #64	; 0x40
 8001184:	61bb      	str	r3, [r7, #24]
  RCC_ClkInitStruct.APB2CLKDivider = RCC_APB2_DIV2;
 8001186:	f44f 6380 	mov.w	r3, #1024	; 0x400
 800118a:	61fb      	str	r3, [r7, #28]
  RCC_ClkInitStruct.APB4CLKDivider = RCC_APB4_DIV2;
 800118c:	2340      	movs	r3, #64	; 0x40
 800118e:	623b      	str	r3, [r7, #32]

  if (HAL_RCC_ClockConfig(&RCC_ClkInitStruct, FLASH_LATENCY_2) != HAL_OK)
 8001190:	1d3b      	adds	r3, r7, #4
 8001192:	2102      	movs	r1, #2
 8001194:	4618      	mov	r0, r3
 8001196:	f007 fb75 	bl	8008884 <HAL_RCC_ClockConfig>
 800119a:	4603      	mov	r3, r0
 800119c:	2b00      	cmp	r3, #0
 800119e:	d001      	beq.n	80011a4 <SystemClock_Config+0xf4>
  {
    Error_Handler();
 80011a0:	f000 fbfe 	bl	80019a0 <Error_Handler>
  }
}
 80011a4:	bf00      	nop
 80011a6:	3770      	adds	r7, #112	; 0x70
 80011a8:	46bd      	mov	sp, r7
 80011aa:	bd80      	pop	{r7, pc}
 80011ac:	58000400 	.word	0x58000400
 80011b0:	58024800 	.word	0x58024800
 80011b4:	58024400 	.word	0x58024400

080011b8 <MX_ADC1_Init>:
  * @brief ADC1 Initialization Function
  * @param None
  * @retval None
  */
static void MX_ADC1_Init(void)
{
 80011b8:	b580      	push	{r7, lr}
 80011ba:	b08a      	sub	sp, #40	; 0x28
 80011bc:	af00      	add	r7, sp, #0

  /* USER CODE BEGIN ADC1_Init 0 */

  /* USER CODE END ADC1_Init 0 */

  ADC_MultiModeTypeDef multimode = {0};
 80011be:	f107 031c 	add.w	r3, r7, #28
 80011c2:	2200      	movs	r2, #0
 80011c4:	601a      	str	r2, [r3, #0]
 80011c6:	605a      	str	r2, [r3, #4]
 80011c8:	609a      	str	r2, [r3, #8]
  ADC_ChannelConfTypeDef sConfig = {0};
 80011ca:	463b      	mov	r3, r7
 80011cc:	2200      	movs	r2, #0
 80011ce:	601a      	str	r2, [r3, #0]
 80011d0:	605a      	str	r2, [r3, #4]
 80011d2:	609a      	str	r2, [r3, #8]
 80011d4:	60da      	str	r2, [r3, #12]
 80011d6:	611a      	str	r2, [r3, #16]
 80011d8:	615a      	str	r2, [r3, #20]
 80011da:	619a      	str	r2, [r3, #24]
  /* USER CODE BEGIN ADC1_Init 1 */

  /* USER CODE END ADC1_Init 1 */
  /** Common config
  */
  hadc1.Instance = ADC1;
 80011dc:	4b6a      	ldr	r3, [pc, #424]	; (8001388 <MX_ADC1_Init+0x1d0>)
 80011de:	4a6b      	ldr	r2, [pc, #428]	; (800138c <MX_ADC1_Init+0x1d4>)
 80011e0:	601a      	str	r2, [r3, #0]
  hadc1.Init.ClockPrescaler = ADC_CLOCK_ASYNC_DIV1;
 80011e2:	4b69      	ldr	r3, [pc, #420]	; (8001388 <MX_ADC1_Init+0x1d0>)
 80011e4:	2200      	movs	r2, #0
 80011e6:	605a      	str	r2, [r3, #4]
  hadc1.Init.Resolution = ADC_RESOLUTION_12B;
 80011e8:	4b67      	ldr	r3, [pc, #412]	; (8001388 <MX_ADC1_Init+0x1d0>)
 80011ea:	2208      	movs	r2, #8
 80011ec:	609a      	str	r2, [r3, #8]
  hadc1.Init.ScanConvMode = ADC_SCAN_ENABLE;
 80011ee:	4b66      	ldr	r3, [pc, #408]	; (8001388 <MX_ADC1_Init+0x1d0>)
 80011f0:	2201      	movs	r2, #1
 80011f2:	60da      	str	r2, [r3, #12]
  hadc1.Init.EOCSelection = ADC_EOC_SEQ_CONV;
 80011f4:	4b64      	ldr	r3, [pc, #400]	; (8001388 <MX_ADC1_Init+0x1d0>)
 80011f6:	2208      	movs	r2, #8
 80011f8:	611a      	str	r2, [r3, #16]
  hadc1.Init.LowPowerAutoWait = DISABLE;
 80011fa:	4b63      	ldr	r3, [pc, #396]	; (8001388 <MX_ADC1_Init+0x1d0>)
 80011fc:	2200      	movs	r2, #0
 80011fe:	751a      	strb	r2, [r3, #20]
  hadc1.Init.ContinuousConvMode = ENABLE;
 8001200:	4b61      	ldr	r3, [pc, #388]	; (8001388 <MX_ADC1_Init+0x1d0>)
 8001202:	2201      	movs	r2, #1
 8001204:	755a      	strb	r2, [r3, #21]
  hadc1.Init.NbrOfConversion = 9;
 8001206:	4b60      	ldr	r3, [pc, #384]	; (8001388 <MX_ADC1_Init+0x1d0>)
 8001208:	2209      	movs	r2, #9
 800120a:	619a      	str	r2, [r3, #24]
  hadc1.Init.DiscontinuousConvMode = DISABLE;
 800120c:	4b5e      	ldr	r3, [pc, #376]	; (8001388 <MX_ADC1_Init+0x1d0>)
 800120e:	2200      	movs	r2, #0
 8001210:	771a      	strb	r2, [r3, #28]
  hadc1.Init.ExternalTrigConv = ADC_SOFTWARE_START;
 8001212:	4b5d      	ldr	r3, [pc, #372]	; (8001388 <MX_ADC1_Init+0x1d0>)
 8001214:	2200      	movs	r2, #0
 8001216:	625a      	str	r2, [r3, #36]	; 0x24
  hadc1.Init.ExternalTrigConvEdge = ADC_EXTERNALTRIGCONVEDGE_NONE;
 8001218:	4b5b      	ldr	r3, [pc, #364]	; (8001388 <MX_ADC1_Init+0x1d0>)
 800121a:	2200      	movs	r2, #0
 800121c:	629a      	str	r2, [r3, #40]	; 0x28
  hadc1.Init.ConversionDataManagement = ADC_CONVERSIONDATA_DMA_CIRCULAR;
 800121e:	4b5a      	ldr	r3, [pc, #360]	; (8001388 <MX_ADC1_Init+0x1d0>)
 8001220:	2203      	movs	r2, #3
 8001222:	62da      	str	r2, [r3, #44]	; 0x2c
  hadc1.Init.Overrun = ADC_OVR_DATA_OVERWRITTEN;
 8001224:	4b58      	ldr	r3, [pc, #352]	; (8001388 <MX_ADC1_Init+0x1d0>)
 8001226:	f44f 5280 	mov.w	r2, #4096	; 0x1000
 800122a:	631a      	str	r2, [r3, #48]	; 0x30
  hadc1.Init.LeftBitShift = ADC_LEFTBITSHIFT_NONE;
 800122c:	4b56      	ldr	r3, [pc, #344]	; (8001388 <MX_ADC1_Init+0x1d0>)
 800122e:	2200      	movs	r2, #0
 8001230:	635a      	str	r2, [r3, #52]	; 0x34
  hadc1.Init.OversamplingMode = DISABLE;
 8001232:	4b55      	ldr	r3, [pc, #340]	; (8001388 <MX_ADC1_Init+0x1d0>)
 8001234:	2200      	movs	r2, #0
 8001236:	f883 2038 	strb.w	r2, [r3, #56]	; 0x38
  if (HAL_ADC_Init(&hadc1) != HAL_OK)
 800123a:	4853      	ldr	r0, [pc, #332]	; (8001388 <MX_ADC1_Init+0x1d0>)
 800123c:	f001 fb2c 	bl	8002898 <HAL_ADC_Init>
 8001240:	4603      	mov	r3, r0
 8001242:	2b00      	cmp	r3, #0
 8001244:	d001      	beq.n	800124a <MX_ADC1_Init+0x92>
  {
    Error_Handler();
 8001246:	f000 fbab 	bl	80019a0 <Error_Handler>
  }
  /** Configure the ADC multi-mode
  */
  multimode.Mode = ADC_MODE_INDEPENDENT;
 800124a:	2300      	movs	r3, #0
 800124c:	61fb      	str	r3, [r7, #28]
  if (HAL_ADCEx_MultiModeConfigChannel(&hadc1, &multimode) != HAL_OK)
 800124e:	f107 031c 	add.w	r3, r7, #28
 8001252:	4619      	mov	r1, r3
 8001254:	484c      	ldr	r0, [pc, #304]	; (8001388 <MX_ADC1_Init+0x1d0>)
 8001256:	f002 fea3 	bl	8003fa0 <HAL_ADCEx_MultiModeConfigChannel>
 800125a:	4603      	mov	r3, r0
 800125c:	2b00      	cmp	r3, #0
 800125e:	d001      	beq.n	8001264 <MX_ADC1_Init+0xac>
  {
    Error_Handler();
 8001260:	f000 fb9e 	bl	80019a0 <Error_Handler>
  }
  /** Configure Regular Channel
  */
  sConfig.Channel = ADC_CHANNEL_11;
 8001264:	4b4a      	ldr	r3, [pc, #296]	; (8001390 <MX_ADC1_Init+0x1d8>)
 8001266:	603b      	str	r3, [r7, #0]
  sConfig.Rank = ADC_REGULAR_RANK_1;
 8001268:	2306      	movs	r3, #6
 800126a:	607b      	str	r3, [r7, #4]
  sConfig.SamplingTime = ADC_SAMPLETIME_16CYCLES_5;
 800126c:	2303      	movs	r3, #3
 800126e:	60bb      	str	r3, [r7, #8]
  sConfig.SingleDiff = ADC_SINGLE_ENDED;
 8001270:	f240 73ff 	movw	r3, #2047	; 0x7ff
 8001274:	60fb      	str	r3, [r7, #12]
  sConfig.OffsetNumber = ADC_OFFSET_NONE;
 8001276:	2304      	movs	r3, #4
 8001278:	613b      	str	r3, [r7, #16]
  sConfig.Offset = 0;
 800127a:	2300      	movs	r3, #0
 800127c:	617b      	str	r3, [r7, #20]
  sConfig.OffsetSignedSaturation = DISABLE;
 800127e:	2300      	movs	r3, #0
 8001280:	767b      	strb	r3, [r7, #25]
  if (HAL_ADC_ConfigChannel(&hadc1, &sConfig) != HAL_OK)
 8001282:	463b      	mov	r3, r7
 8001284:	4619      	mov	r1, r3
 8001286:	4840      	ldr	r0, [pc, #256]	; (8001388 <MX_ADC1_Init+0x1d0>)
 8001288:	f001 ffc2 	bl	8003210 <HAL_ADC_ConfigChannel>
 800128c:	4603      	mov	r3, r0
 800128e:	2b00      	cmp	r3, #0
 8001290:	d001      	beq.n	8001296 <MX_ADC1_Init+0xde>
  {
    Error_Handler();
 8001292:	f000 fb85 	bl	80019a0 <Error_Handler>
  }
  /** Configure Regular Channel
  */
  sConfig.Channel = ADC_CHANNEL_17;
 8001296:	4b3f      	ldr	r3, [pc, #252]	; (8001394 <MX_ADC1_Init+0x1dc>)
 8001298:	603b      	str	r3, [r7, #0]
  sConfig.Rank = ADC_REGULAR_RANK_2;
 800129a:	230c      	movs	r3, #12
 800129c:	607b      	str	r3, [r7, #4]
  if (HAL_ADC_ConfigChannel(&hadc1, &sConfig) != HAL_OK)
 800129e:	463b      	mov	r3, r7
 80012a0:	4619      	mov	r1, r3
 80012a2:	4839      	ldr	r0, [pc, #228]	; (8001388 <MX_ADC1_Init+0x1d0>)
 80012a4:	f001 ffb4 	bl	8003210 <HAL_ADC_ConfigChannel>
 80012a8:	4603      	mov	r3, r0
 80012aa:	2b00      	cmp	r3, #0
 80012ac:	d001      	beq.n	80012b2 <MX_ADC1_Init+0xfa>
  {
    Error_Handler();
 80012ae:	f000 fb77 	bl	80019a0 <Error_Handler>
  }
  /** Configure Regular Channel
  */
  sConfig.Channel = ADC_CHANNEL_10;
 80012b2:	4b39      	ldr	r3, [pc, #228]	; (8001398 <MX_ADC1_Init+0x1e0>)
 80012b4:	603b      	str	r3, [r7, #0]
  sConfig.Rank = ADC_REGULAR_RANK_3;
 80012b6:	2312      	movs	r3, #18
 80012b8:	607b      	str	r3, [r7, #4]
  if (HAL_ADC_ConfigChannel(&hadc1, &sConfig) != HAL_OK)
 80012ba:	463b      	mov	r3, r7
 80012bc:	4619      	mov	r1, r3
 80012be:	4832      	ldr	r0, [pc, #200]	; (8001388 <MX_ADC1_Init+0x1d0>)
 80012c0:	f001 ffa6 	bl	8003210 <HAL_ADC_ConfigChannel>
 80012c4:	4603      	mov	r3, r0
 80012c6:	2b00      	cmp	r3, #0
 80012c8:	d001      	beq.n	80012ce <MX_ADC1_Init+0x116>
  {
    Error_Handler();
 80012ca:	f000 fb69 	bl	80019a0 <Error_Handler>
  }
  /** Configure Regular Channel
  */
  sConfig.Channel = ADC_CHANNEL_16;
 80012ce:	4b33      	ldr	r3, [pc, #204]	; (800139c <MX_ADC1_Init+0x1e4>)
 80012d0:	603b      	str	r3, [r7, #0]
  sConfig.Rank = ADC_REGULAR_RANK_4;
 80012d2:	2318      	movs	r3, #24
 80012d4:	607b      	str	r3, [r7, #4]
  if (HAL_ADC_ConfigChannel(&hadc1, &sConfig) != HAL_OK)
 80012d6:	463b      	mov	r3, r7
 80012d8:	4619      	mov	r1, r3
 80012da:	482b      	ldr	r0, [pc, #172]	; (8001388 <MX_ADC1_Init+0x1d0>)
 80012dc:	f001 ff98 	bl	8003210 <HAL_ADC_ConfigChannel>
 80012e0:	4603      	mov	r3, r0
 80012e2:	2b00      	cmp	r3, #0
 80012e4:	d001      	beq.n	80012ea <MX_ADC1_Init+0x132>
  {
    Error_Handler();
 80012e6:	f000 fb5b 	bl	80019a0 <Error_Handler>
  }
  /** Configure Regular Channel
  */
  sConfig.Channel = ADC_CHANNEL_7;
 80012ea:	4b2d      	ldr	r3, [pc, #180]	; (80013a0 <MX_ADC1_Init+0x1e8>)
 80012ec:	603b      	str	r3, [r7, #0]
  sConfig.Rank = ADC_REGULAR_RANK_5;
 80012ee:	f44f 7380 	mov.w	r3, #256	; 0x100
 80012f2:	607b      	str	r3, [r7, #4]
  if (HAL_ADC_ConfigChannel(&hadc1, &sConfig) != HAL_OK)
 80012f4:	463b      	mov	r3, r7
 80012f6:	4619      	mov	r1, r3
 80012f8:	4823      	ldr	r0, [pc, #140]	; (8001388 <MX_ADC1_Init+0x1d0>)
 80012fa:	f001 ff89 	bl	8003210 <HAL_ADC_ConfigChannel>
 80012fe:	4603      	mov	r3, r0
 8001300:	2b00      	cmp	r3, #0
 8001302:	d001      	beq.n	8001308 <MX_ADC1_Init+0x150>
  {
    Error_Handler();
 8001304:	f000 fb4c 	bl	80019a0 <Error_Handler>
  }
  /** Configure Regular Channel
  */
  sConfig.Channel = ADC_CHANNEL_8;
 8001308:	4b26      	ldr	r3, [pc, #152]	; (80013a4 <MX_ADC1_Init+0x1ec>)
 800130a:	603b      	str	r3, [r7, #0]
  sConfig.Rank = ADC_REGULAR_RANK_6;
 800130c:	f44f 7383 	mov.w	r3, #262	; 0x106
 8001310:	607b      	str	r3, [r7, #4]
  if (HAL_ADC_ConfigChannel(&hadc1, &sConfig) != HAL_OK)
 8001312:	463b      	mov	r3, r7
 8001314:	4619      	mov	r1, r3
 8001316:	481c      	ldr	r0, [pc, #112]	; (8001388 <MX_ADC1_Init+0x1d0>)
 8001318:	f001 ff7a 	bl	8003210 <HAL_ADC_ConfigChannel>
 800131c:	4603      	mov	r3, r0
 800131e:	2b00      	cmp	r3, #0
 8001320:	d001      	beq.n	8001326 <MX_ADC1_Init+0x16e>
  {
    Error_Handler();
 8001322:	f000 fb3d 	bl	80019a0 <Error_Handler>
  }
  /** Configure Regular Channel
  */
  sConfig.Channel = ADC_CHANNEL_15;
 8001326:	4b20      	ldr	r3, [pc, #128]	; (80013a8 <MX_ADC1_Init+0x1f0>)
 8001328:	603b      	str	r3, [r7, #0]
  sConfig.Rank = ADC_REGULAR_RANK_7;
 800132a:	f44f 7386 	mov.w	r3, #268	; 0x10c
 800132e:	607b      	str	r3, [r7, #4]
  if (HAL_ADC_ConfigChannel(&hadc1, &sConfig) != HAL_OK)
 8001330:	463b      	mov	r3, r7
 8001332:	4619      	mov	r1, r3
 8001334:	4814      	ldr	r0, [pc, #80]	; (8001388 <MX_ADC1_Init+0x1d0>)
 8001336:	f001 ff6b 	bl	8003210 <HAL_ADC_ConfigChannel>
 800133a:	4603      	mov	r3, r0
 800133c:	2b00      	cmp	r3, #0
 800133e:	d001      	beq.n	8001344 <MX_ADC1_Init+0x18c>
  {
    Error_Handler();
 8001340:	f000 fb2e 	bl	80019a0 <Error_Handler>
  }
  /** Configure Regular Channel
  */
  sConfig.Channel = ADC_CHANNEL_19;
 8001344:	4b19      	ldr	r3, [pc, #100]	; (80013ac <MX_ADC1_Init+0x1f4>)
 8001346:	603b      	str	r3, [r7, #0]
  sConfig.Rank = ADC_REGULAR_RANK_8;
 8001348:	f44f 7389 	mov.w	r3, #274	; 0x112
 800134c:	607b      	str	r3, [r7, #4]
  if (HAL_ADC_ConfigChannel(&hadc1, &sConfig) != HAL_OK)
 800134e:	463b      	mov	r3, r7
 8001350:	4619      	mov	r1, r3
 8001352:	480d      	ldr	r0, [pc, #52]	; (8001388 <MX_ADC1_Init+0x1d0>)
 8001354:	f001 ff5c 	bl	8003210 <HAL_ADC_ConfigChannel>
 8001358:	4603      	mov	r3, r0
 800135a:	2b00      	cmp	r3, #0
 800135c:	d001      	beq.n	8001362 <MX_ADC1_Init+0x1aa>
  {
    Error_Handler();
 800135e:	f000 fb1f 	bl	80019a0 <Error_Handler>
  }
  /** Configure Regular Channel
  */
  sConfig.Channel = ADC_CHANNEL_14;
 8001362:	4b13      	ldr	r3, [pc, #76]	; (80013b0 <MX_ADC1_Init+0x1f8>)
 8001364:	603b      	str	r3, [r7, #0]
  sConfig.Rank = ADC_REGULAR_RANK_9;
 8001366:	f44f 738c 	mov.w	r3, #280	; 0x118
 800136a:	607b      	str	r3, [r7, #4]
  if (HAL_ADC_ConfigChannel(&hadc1, &sConfig) != HAL_OK)
 800136c:	463b      	mov	r3, r7
 800136e:	4619      	mov	r1, r3
 8001370:	4805      	ldr	r0, [pc, #20]	; (8001388 <MX_ADC1_Init+0x1d0>)
 8001372:	f001 ff4d 	bl	8003210 <HAL_ADC_ConfigChannel>
 8001376:	4603      	mov	r3, r0
 8001378:	2b00      	cmp	r3, #0
 800137a:	d001      	beq.n	8001380 <MX_ADC1_Init+0x1c8>
  {
    Error_Handler();
 800137c:	f000 fb10 	bl	80019a0 <Error_Handler>
  }
  /* USER CODE BEGIN ADC1_Init 2 */

  /* USER CODE END ADC1_Init 2 */

}
 8001380:	bf00      	nop
 8001382:	3728      	adds	r7, #40	; 0x28
 8001384:	46bd      	mov	sp, r7
 8001386:	bd80      	pop	{r7, pc}
 8001388:	240006d8 	.word	0x240006d8
 800138c:	40022000 	.word	0x40022000
 8001390:	2e300800 	.word	0x2e300800
 8001394:	47520000 	.word	0x47520000
 8001398:	2a000400 	.word	0x2a000400
 800139c:	43210000 	.word	0x43210000
 80013a0:	1d500080 	.word	0x1d500080
 80013a4:	21800100 	.word	0x21800100
 80013a8:	3ef08000 	.word	0x3ef08000
 80013ac:	4fb80000 	.word	0x4fb80000
 80013b0:	3ac04000 	.word	0x3ac04000

080013b4 <MX_HRTIM_Init>:
  * @brief HRTIM Initialization Function
  * @param None
  * @retval None
  */
static void MX_HRTIM_Init(void)
{
 80013b4:	b580      	push	{r7, lr}
 80013b6:	b0ae      	sub	sp, #184	; 0xb8
 80013b8:	af00      	add	r7, sp, #0

  /* USER CODE BEGIN HRTIM_Init 0 */

  /* USER CODE END HRTIM_Init 0 */

  HRTIM_TimeBaseCfgTypeDef pTimeBaseCfg = {0};
 80013ba:	f107 03a8 	add.w	r3, r7, #168	; 0xa8
 80013be:	2200      	movs	r2, #0
 80013c0:	601a      	str	r2, [r3, #0]
 80013c2:	605a      	str	r2, [r3, #4]
 80013c4:	609a      	str	r2, [r3, #8]
 80013c6:	60da      	str	r2, [r3, #12]
  HRTIM_TimerCfgTypeDef pTimerCfg = {0};
 80013c8:	f107 0354 	add.w	r3, r7, #84	; 0x54
 80013cc:	2254      	movs	r2, #84	; 0x54
 80013ce:	2100      	movs	r1, #0
 80013d0:	4618      	mov	r0, r3
 80013d2:	f00b fa6f 	bl	800c8b4 <memset>
  HRTIM_CompareCfgTypeDef pCompareCfg = {0};
 80013d6:	f107 0348 	add.w	r3, r7, #72	; 0x48
 80013da:	2200      	movs	r2, #0
 80013dc:	601a      	str	r2, [r3, #0]
 80013de:	605a      	str	r2, [r3, #4]
 80013e0:	609a      	str	r2, [r3, #8]
  HRTIM_OutputCfgTypeDef pOutputCfg = {0};
 80013e2:	f107 0328 	add.w	r3, r7, #40	; 0x28
 80013e6:	2220      	movs	r2, #32
 80013e8:	2100      	movs	r1, #0
 80013ea:	4618      	mov	r0, r3
 80013ec:	f00b fa62 	bl	800c8b4 <memset>
  HRTIM_DeadTimeCfgTypeDef pDeadTimeCfg = {0};
 80013f0:	1d3b      	adds	r3, r7, #4
 80013f2:	2224      	movs	r2, #36	; 0x24
 80013f4:	2100      	movs	r1, #0
 80013f6:	4618      	mov	r0, r3
 80013f8:	f00b fa5c 	bl	800c8b4 <memset>

  /* USER CODE BEGIN HRTIM_Init 1 */

  /* USER CODE END HRTIM_Init 1 */
  hhrtim.Instance = HRTIM1;
 80013fc:	4b82      	ldr	r3, [pc, #520]	; (8001608 <MX_HRTIM_Init+0x254>)
 80013fe:	4a83      	ldr	r2, [pc, #524]	; (800160c <MX_HRTIM_Init+0x258>)
 8001400:	601a      	str	r2, [r3, #0]
  hhrtim.Init.HRTIMInterruptResquests = HRTIM_IT_NONE;
 8001402:	4b81      	ldr	r3, [pc, #516]	; (8001608 <MX_HRTIM_Init+0x254>)
 8001404:	2200      	movs	r2, #0
 8001406:	605a      	str	r2, [r3, #4]
  hhrtim.Init.SyncOptions = HRTIM_SYNCOPTION_NONE;
 8001408:	4b7f      	ldr	r3, [pc, #508]	; (8001608 <MX_HRTIM_Init+0x254>)
 800140a:	2200      	movs	r2, #0
 800140c:	609a      	str	r2, [r3, #8]
  if (HAL_HRTIM_Init(&hhrtim) != HAL_OK)
 800140e:	487e      	ldr	r0, [pc, #504]	; (8001608 <MX_HRTIM_Init+0x254>)
 8001410:	f005 fa94 	bl	800693c <HAL_HRTIM_Init>
 8001414:	4603      	mov	r3, r0
 8001416:	2b00      	cmp	r3, #0
 8001418:	d001      	beq.n	800141e <MX_HRTIM_Init+0x6a>
  {
    Error_Handler();
 800141a:	f000 fac1 	bl	80019a0 <Error_Handler>
  }
  pTimeBaseCfg.Period = HR_PER;
 800141e:	f242 7310 	movw	r3, #10000	; 0x2710
 8001422:	f8c7 30a8 	str.w	r3, [r7, #168]	; 0xa8
  pTimeBaseCfg.RepetitionCounter = 0x00;
 8001426:	2300      	movs	r3, #0
 8001428:	f8c7 30ac 	str.w	r3, [r7, #172]	; 0xac
  pTimeBaseCfg.PrescalerRatio = HRTIM_PRESCALERRATIO_DIV1;
 800142c:	2305      	movs	r3, #5
 800142e:	f8c7 30b0 	str.w	r3, [r7, #176]	; 0xb0
  pTimeBaseCfg.Mode = HRTIM_MODE_CONTINUOUS;
 8001432:	2308      	movs	r3, #8
 8001434:	f8c7 30b4 	str.w	r3, [r7, #180]	; 0xb4
  if (HAL_HRTIM_TimeBaseConfig(&hhrtim, HRTIM_TIMERINDEX_TIMER_A, &pTimeBaseCfg) != HAL_OK)
 8001438:	f107 03a8 	add.w	r3, r7, #168	; 0xa8
 800143c:	461a      	mov	r2, r3
 800143e:	2100      	movs	r1, #0
 8001440:	4871      	ldr	r0, [pc, #452]	; (8001608 <MX_HRTIM_Init+0x254>)
 8001442:	f005 fb4b 	bl	8006adc <HAL_HRTIM_TimeBaseConfig>
 8001446:	4603      	mov	r3, r0
 8001448:	2b00      	cmp	r3, #0
 800144a:	d001      	beq.n	8001450 <MX_HRTIM_Init+0x9c>
  {
    Error_Handler();
 800144c:	f000 faa8 	bl	80019a0 <Error_Handler>
  }
  pTimerCfg.InterruptRequests = HRTIM_TIM_IT_NONE;
 8001450:	2300      	movs	r3, #0
 8001452:	657b      	str	r3, [r7, #84]	; 0x54
  pTimerCfg.DMARequests = HRTIM_TIM_DMA_NONE;
 8001454:	2300      	movs	r3, #0
 8001456:	65bb      	str	r3, [r7, #88]	; 0x58
  pTimerCfg.DMASrcAddress = 0x0000;
 8001458:	2300      	movs	r3, #0
 800145a:	65fb      	str	r3, [r7, #92]	; 0x5c
  pTimerCfg.DMADstAddress = 0x0000;
 800145c:	2300      	movs	r3, #0
 800145e:	663b      	str	r3, [r7, #96]	; 0x60
  pTimerCfg.DMASize = 0x1;
 8001460:	2301      	movs	r3, #1
 8001462:	667b      	str	r3, [r7, #100]	; 0x64
  pTimerCfg.HalfModeEnable = HRTIM_HALFMODE_DISABLED;
 8001464:	2300      	movs	r3, #0
 8001466:	66bb      	str	r3, [r7, #104]	; 0x68
  pTimerCfg.StartOnSync = HRTIM_SYNCSTART_DISABLED;
 8001468:	2300      	movs	r3, #0
 800146a:	66fb      	str	r3, [r7, #108]	; 0x6c
  pTimerCfg.ResetOnSync = HRTIM_SYNCRESET_DISABLED;
 800146c:	2300      	movs	r3, #0
 800146e:	673b      	str	r3, [r7, #112]	; 0x70
  pTimerCfg.DACSynchro = HRTIM_DACSYNC_NONE;
 8001470:	2300      	movs	r3, #0
 8001472:	677b      	str	r3, [r7, #116]	; 0x74
  pTimerCfg.PreloadEnable = HRTIM_PRELOAD_ENABLED;
 8001474:	f04f 6300 	mov.w	r3, #134217728	; 0x8000000
 8001478:	67bb      	str	r3, [r7, #120]	; 0x78
  pTimerCfg.UpdateGating = HRTIM_UPDATEGATING_INDEPENDENT;
 800147a:	2300      	movs	r3, #0
 800147c:	67fb      	str	r3, [r7, #124]	; 0x7c
  pTimerCfg.BurstMode = HRTIM_TIMERBURSTMODE_MAINTAINCLOCK;
 800147e:	2300      	movs	r3, #0
 8001480:	f8c7 3080 	str.w	r3, [r7, #128]	; 0x80
  pTimerCfg.RepetitionUpdate = HRTIM_UPDATEONREPETITION_ENABLED;
 8001484:	f04f 5300 	mov.w	r3, #536870912	; 0x20000000
 8001488:	f8c7 3084 	str.w	r3, [r7, #132]	; 0x84
  pTimerCfg.PushPull = HRTIM_TIMPUSHPULLMODE_DISABLED;
 800148c:	2300      	movs	r3, #0
 800148e:	f8c7 3088 	str.w	r3, [r7, #136]	; 0x88
  pTimerCfg.FaultEnable = HRTIM_TIMFAULTENABLE_NONE;
 8001492:	2300      	movs	r3, #0
 8001494:	f8c7 308c 	str.w	r3, [r7, #140]	; 0x8c
  pTimerCfg.FaultLock = HRTIM_TIMFAULTLOCK_READWRITE;
 8001498:	2300      	movs	r3, #0
 800149a:	f8c7 3090 	str.w	r3, [r7, #144]	; 0x90
  pTimerCfg.DeadTimeInsertion = HRTIM_TIMDEADTIMEINSERTION_DISABLED;
 800149e:	2300      	movs	r3, #0
 80014a0:	f8c7 3094 	str.w	r3, [r7, #148]	; 0x94
  pTimerCfg.DelayedProtectionMode = HRTIM_TIMER_A_B_C_DELAYEDPROTECTION_DISABLED;
 80014a4:	2300      	movs	r3, #0
 80014a6:	f8c7 3098 	str.w	r3, [r7, #152]	; 0x98
  pTimerCfg.UpdateTrigger = HRTIM_TIMUPDATETRIGGER_NONE;
 80014aa:	2300      	movs	r3, #0
 80014ac:	f8c7 309c 	str.w	r3, [r7, #156]	; 0x9c
  pTimerCfg.ResetTrigger = HRTIM_TIMRESETTRIGGER_NONE;
 80014b0:	2300      	movs	r3, #0
 80014b2:	f8c7 30a0 	str.w	r3, [r7, #160]	; 0xa0
  pTimerCfg.ResetUpdate = HRTIM_TIMUPDATEONRESET_DISABLED;
 80014b6:	2300      	movs	r3, #0
 80014b8:	f8c7 30a4 	str.w	r3, [r7, #164]	; 0xa4
  if (HAL_HRTIM_WaveformTimerConfig(&hhrtim, HRTIM_TIMERINDEX_TIMER_A, &pTimerCfg) != HAL_OK)
 80014bc:	f107 0354 	add.w	r3, r7, #84	; 0x54
 80014c0:	461a      	mov	r2, r3
 80014c2:	2100      	movs	r1, #0
 80014c4:	4850      	ldr	r0, [pc, #320]	; (8001608 <MX_HRTIM_Init+0x254>)
 80014c6:	f005 fb31 	bl	8006b2c <HAL_HRTIM_WaveformTimerConfig>
 80014ca:	4603      	mov	r3, r0
 80014cc:	2b00      	cmp	r3, #0
 80014ce:	d001      	beq.n	80014d4 <MX_HRTIM_Init+0x120>
  {
    Error_Handler();
 80014d0:	f000 fa66 	bl	80019a0 <Error_Handler>
  }
  pTimerCfg.DeadTimeInsertion = HRTIM_TIMDEADTIMEINSERTION_ENABLED;
 80014d4:	f44f 7380 	mov.w	r3, #256	; 0x100
 80014d8:	f8c7 3094 	str.w	r3, [r7, #148]	; 0x94
  pTimerCfg.DelayedProtectionMode = HRTIM_TIMER_D_E_DELAYEDPROTECTION_DISABLED;
 80014dc:	2300      	movs	r3, #0
 80014de:	f8c7 3098 	str.w	r3, [r7, #152]	; 0x98
  if (HAL_HRTIM_WaveformTimerConfig(&hhrtim, HRTIM_TIMERINDEX_TIMER_D, &pTimerCfg) != HAL_OK)
 80014e2:	f107 0354 	add.w	r3, r7, #84	; 0x54
 80014e6:	461a      	mov	r2, r3
 80014e8:	2103      	movs	r1, #3
 80014ea:	4847      	ldr	r0, [pc, #284]	; (8001608 <MX_HRTIM_Init+0x254>)
 80014ec:	f005 fb1e 	bl	8006b2c <HAL_HRTIM_WaveformTimerConfig>
 80014f0:	4603      	mov	r3, r0
 80014f2:	2b00      	cmp	r3, #0
 80014f4:	d001      	beq.n	80014fa <MX_HRTIM_Init+0x146>
  {
    Error_Handler();
 80014f6:	f000 fa53 	bl	80019a0 <Error_Handler>
  }
  pCompareCfg.CompareValue = 3500;
 80014fa:	f640 53ac 	movw	r3, #3500	; 0xdac
 80014fe:	64bb      	str	r3, [r7, #72]	; 0x48
  if (HAL_HRTIM_WaveformCompareConfig(&hhrtim, HRTIM_TIMERINDEX_TIMER_A, HRTIM_COMPAREUNIT_1, &pCompareCfg) != HAL_OK)
 8001500:	f107 0348 	add.w	r3, r7, #72	; 0x48
 8001504:	2201      	movs	r2, #1
 8001506:	2100      	movs	r1, #0
 8001508:	483f      	ldr	r0, [pc, #252]	; (8001608 <MX_HRTIM_Init+0x254>)
 800150a:	f005 fc01 	bl	8006d10 <HAL_HRTIM_WaveformCompareConfig>
 800150e:	4603      	mov	r3, r0
 8001510:	2b00      	cmp	r3, #0
 8001512:	d001      	beq.n	8001518 <MX_HRTIM_Init+0x164>
  {
    Error_Handler();
 8001514:	f000 fa44 	bl	80019a0 <Error_Handler>
  }
  pOutputCfg.Polarity = HRTIM_OUTPUTPOLARITY_HIGH;
 8001518:	2300      	movs	r3, #0
 800151a:	62bb      	str	r3, [r7, #40]	; 0x28
  pOutputCfg.SetSource = HRTIM_OUTPUTSET_TIMPER;
 800151c:	2304      	movs	r3, #4
 800151e:	62fb      	str	r3, [r7, #44]	; 0x2c
  pOutputCfg.ResetSource = HRTIM_OUTPUTRESET_TIMCMP1;
 8001520:	2308      	movs	r3, #8
 8001522:	633b      	str	r3, [r7, #48]	; 0x30
  pOutputCfg.IdleMode = HRTIM_OUTPUTIDLEMODE_NONE;
 8001524:	2300      	movs	r3, #0
 8001526:	637b      	str	r3, [r7, #52]	; 0x34
  pOutputCfg.IdleLevel = HRTIM_OUTPUTIDLELEVEL_INACTIVE;
 8001528:	2300      	movs	r3, #0
 800152a:	63bb      	str	r3, [r7, #56]	; 0x38
  pOutputCfg.FaultLevel = HRTIM_OUTPUTFAULTLEVEL_NONE;
 800152c:	2300      	movs	r3, #0
 800152e:	63fb      	str	r3, [r7, #60]	; 0x3c
  pOutputCfg.ChopperModeEnable = HRTIM_OUTPUTCHOPPERMODE_DISABLED;
 8001530:	2300      	movs	r3, #0
 8001532:	643b      	str	r3, [r7, #64]	; 0x40
  pOutputCfg.BurstModeEntryDelayed = HRTIM_OUTPUTBURSTMODEENTRY_REGULAR;
 8001534:	2300      	movs	r3, #0
 8001536:	647b      	str	r3, [r7, #68]	; 0x44
  if (HAL_HRTIM_WaveformOutputConfig(&hhrtim, HRTIM_TIMERINDEX_TIMER_A, HRTIM_OUTPUT_TA1, &pOutputCfg) != HAL_OK)
 8001538:	f107 0328 	add.w	r3, r7, #40	; 0x28
 800153c:	2201      	movs	r2, #1
 800153e:	2100      	movs	r1, #0
 8001540:	4831      	ldr	r0, [pc, #196]	; (8001608 <MX_HRTIM_Init+0x254>)
 8001542:	f005 fd53 	bl	8006fec <HAL_HRTIM_WaveformOutputConfig>
 8001546:	4603      	mov	r3, r0
 8001548:	2b00      	cmp	r3, #0
 800154a:	d001      	beq.n	8001550 <MX_HRTIM_Init+0x19c>
  {
    Error_Handler();
 800154c:	f000 fa28 	bl	80019a0 <Error_Handler>
  }
  if (HAL_HRTIM_WaveformOutputConfig(&hhrtim, HRTIM_TIMERINDEX_TIMER_D, HRTIM_OUTPUT_TD1, &pOutputCfg) != HAL_OK)
 8001550:	f107 0328 	add.w	r3, r7, #40	; 0x28
 8001554:	2240      	movs	r2, #64	; 0x40
 8001556:	2103      	movs	r1, #3
 8001558:	482b      	ldr	r0, [pc, #172]	; (8001608 <MX_HRTIM_Init+0x254>)
 800155a:	f005 fd47 	bl	8006fec <HAL_HRTIM_WaveformOutputConfig>
 800155e:	4603      	mov	r3, r0
 8001560:	2b00      	cmp	r3, #0
 8001562:	d001      	beq.n	8001568 <MX_HRTIM_Init+0x1b4>
  {
    Error_Handler();
 8001564:	f000 fa1c 	bl	80019a0 <Error_Handler>
  }
  if (HAL_HRTIM_TimeBaseConfig(&hhrtim, HRTIM_TIMERINDEX_TIMER_D, &pTimeBaseCfg) != HAL_OK)
 8001568:	f107 03a8 	add.w	r3, r7, #168	; 0xa8
 800156c:	461a      	mov	r2, r3
 800156e:	2103      	movs	r1, #3
 8001570:	4825      	ldr	r0, [pc, #148]	; (8001608 <MX_HRTIM_Init+0x254>)
 8001572:	f005 fab3 	bl	8006adc <HAL_HRTIM_TimeBaseConfig>
 8001576:	4603      	mov	r3, r0
 8001578:	2b00      	cmp	r3, #0
 800157a:	d001      	beq.n	8001580 <MX_HRTIM_Init+0x1cc>
  {
    Error_Handler();
 800157c:	f000 fa10 	bl	80019a0 <Error_Handler>
  }
  pCompareCfg.CompareValue = 3;
 8001580:	2303      	movs	r3, #3
 8001582:	64bb      	str	r3, [r7, #72]	; 0x48
  if (HAL_HRTIM_WaveformCompareConfig(&hhrtim, HRTIM_TIMERINDEX_TIMER_D, HRTIM_COMPAREUNIT_1, &pCompareCfg) != HAL_OK)
 8001584:	f107 0348 	add.w	r3, r7, #72	; 0x48
 8001588:	2201      	movs	r2, #1
 800158a:	2103      	movs	r1, #3
 800158c:	481e      	ldr	r0, [pc, #120]	; (8001608 <MX_HRTIM_Init+0x254>)
 800158e:	f005 fbbf 	bl	8006d10 <HAL_HRTIM_WaveformCompareConfig>
 8001592:	4603      	mov	r3, r0
 8001594:	2b00      	cmp	r3, #0
 8001596:	d001      	beq.n	800159c <MX_HRTIM_Init+0x1e8>
  {
    Error_Handler();
 8001598:	f000 fa02 	bl	80019a0 <Error_Handler>
  }
  pDeadTimeCfg.Prescaler = HRTIM_TIMDEADTIME_PRESCALERRATIO_DIV1;
 800159c:	f44f 6340 	mov.w	r3, #3072	; 0xc00
 80015a0:	607b      	str	r3, [r7, #4]
  pDeadTimeCfg.RisingValue = HR_DT;
 80015a2:	23c8      	movs	r3, #200	; 0xc8
 80015a4:	60bb      	str	r3, [r7, #8]
  pDeadTimeCfg.RisingSign = HRTIM_TIMDEADTIME_RISINGSIGN_POSITIVE;
 80015a6:	2300      	movs	r3, #0
 80015a8:	60fb      	str	r3, [r7, #12]
  pDeadTimeCfg.RisingLock = HRTIM_TIMDEADTIME_RISINGLOCK_WRITE;
 80015aa:	2300      	movs	r3, #0
 80015ac:	613b      	str	r3, [r7, #16]
  pDeadTimeCfg.RisingSignLock = HRTIM_TIMDEADTIME_RISINGSIGNLOCK_WRITE;
 80015ae:	2300      	movs	r3, #0
 80015b0:	617b      	str	r3, [r7, #20]
  pDeadTimeCfg.FallingValue = HR_DT;
 80015b2:	23c8      	movs	r3, #200	; 0xc8
 80015b4:	61bb      	str	r3, [r7, #24]
  pDeadTimeCfg.FallingSign = HRTIM_TIMDEADTIME_FALLINGSIGN_POSITIVE;
 80015b6:	2300      	movs	r3, #0
 80015b8:	61fb      	str	r3, [r7, #28]
  pDeadTimeCfg.FallingLock = HRTIM_TIMDEADTIME_FALLINGLOCK_WRITE;
 80015ba:	2300      	movs	r3, #0
 80015bc:	623b      	str	r3, [r7, #32]
  pDeadTimeCfg.FallingSignLock = HRTIM_TIMDEADTIME_FALLINGSIGNLOCK_WRITE;
 80015be:	2300      	movs	r3, #0
 80015c0:	627b      	str	r3, [r7, #36]	; 0x24
  if (HAL_HRTIM_DeadTimeConfig(&hhrtim, HRTIM_TIMERINDEX_TIMER_D, &pDeadTimeCfg) != HAL_OK)
 80015c2:	1d3b      	adds	r3, r7, #4
 80015c4:	461a      	mov	r2, r3
 80015c6:	2103      	movs	r1, #3
 80015c8:	480f      	ldr	r0, [pc, #60]	; (8001608 <MX_HRTIM_Init+0x254>)
 80015ca:	f005 fb21 	bl	8006c10 <HAL_HRTIM_DeadTimeConfig>
 80015ce:	4603      	mov	r3, r0
 80015d0:	2b00      	cmp	r3, #0
 80015d2:	d001      	beq.n	80015d8 <MX_HRTIM_Init+0x224>
  {
    Error_Handler();
 80015d4:	f000 f9e4 	bl	80019a0 <Error_Handler>
  }
  pOutputCfg.SetSource = HRTIM_OUTPUTSET_NONE;
 80015d8:	2300      	movs	r3, #0
 80015da:	62fb      	str	r3, [r7, #44]	; 0x2c
  pOutputCfg.ResetSource = HRTIM_OUTPUTRESET_NONE;
 80015dc:	2300      	movs	r3, #0
 80015de:	633b      	str	r3, [r7, #48]	; 0x30
  if (HAL_HRTIM_WaveformOutputConfig(&hhrtim, HRTIM_TIMERINDEX_TIMER_D, HRTIM_OUTPUT_TD2, &pOutputCfg) != HAL_OK)
 80015e0:	f107 0328 	add.w	r3, r7, #40	; 0x28
 80015e4:	2280      	movs	r2, #128	; 0x80
 80015e6:	2103      	movs	r1, #3
 80015e8:	4807      	ldr	r0, [pc, #28]	; (8001608 <MX_HRTIM_Init+0x254>)
 80015ea:	f005 fcff 	bl	8006fec <HAL_HRTIM_WaveformOutputConfig>
 80015ee:	4603      	mov	r3, r0
 80015f0:	2b00      	cmp	r3, #0
 80015f2:	d001      	beq.n	80015f8 <MX_HRTIM_Init+0x244>
  {
    Error_Handler();
 80015f4:	f000 f9d4 	bl	80019a0 <Error_Handler>
  }
  /* USER CODE BEGIN HRTIM_Init 2 */

  /* USER CODE END HRTIM_Init 2 */
  HAL_HRTIM_MspPostInit(&hhrtim);
 80015f8:	4803      	ldr	r0, [pc, #12]	; (8001608 <MX_HRTIM_Init+0x254>)
 80015fa:	f000 fb09 	bl	8001c10 <HAL_HRTIM_MspPostInit>

}
 80015fe:	bf00      	nop
 8001600:	37b8      	adds	r7, #184	; 0xb8
 8001602:	46bd      	mov	sp, r7
 8001604:	bd80      	pop	{r7, pc}
 8001606:	bf00      	nop
 8001608:	24000814 	.word	0x24000814
 800160c:	40017400 	.word	0x40017400

08001610 <MX_I2C1_Init>:
  * @brief I2C1 Initialization Function
  * @param None
  * @retval None
  */
static void MX_I2C1_Init(void)
{
 8001610:	b580      	push	{r7, lr}
 8001612:	af00      	add	r7, sp, #0
  /* USER CODE END I2C1_Init 0 */

  /* USER CODE BEGIN I2C1_Init 1 */

  /* USER CODE END I2C1_Init 1 */
  hi2c1.Instance = I2C1;
 8001614:	4b1b      	ldr	r3, [pc, #108]	; (8001684 <MX_I2C1_Init+0x74>)
 8001616:	4a1c      	ldr	r2, [pc, #112]	; (8001688 <MX_I2C1_Init+0x78>)
 8001618:	601a      	str	r2, [r3, #0]
  hi2c1.Init.Timing = 0x10C0ECFF;
 800161a:	4b1a      	ldr	r3, [pc, #104]	; (8001684 <MX_I2C1_Init+0x74>)
 800161c:	4a1b      	ldr	r2, [pc, #108]	; (800168c <MX_I2C1_Init+0x7c>)
 800161e:	605a      	str	r2, [r3, #4]
  hi2c1.Init.OwnAddress1 = 0;
 8001620:	4b18      	ldr	r3, [pc, #96]	; (8001684 <MX_I2C1_Init+0x74>)
 8001622:	2200      	movs	r2, #0
 8001624:	609a      	str	r2, [r3, #8]
  hi2c1.Init.AddressingMode = I2C_ADDRESSINGMODE_7BIT;
 8001626:	4b17      	ldr	r3, [pc, #92]	; (8001684 <MX_I2C1_Init+0x74>)
 8001628:	2201      	movs	r2, #1
 800162a:	60da      	str	r2, [r3, #12]
  hi2c1.Init.DualAddressMode = I2C_DUALADDRESS_DISABLE;
 800162c:	4b15      	ldr	r3, [pc, #84]	; (8001684 <MX_I2C1_Init+0x74>)
 800162e:	2200      	movs	r2, #0
 8001630:	611a      	str	r2, [r3, #16]
  hi2c1.Init.OwnAddress2 = 0;
 8001632:	4b14      	ldr	r3, [pc, #80]	; (8001684 <MX_I2C1_Init+0x74>)
 8001634:	2200      	movs	r2, #0
 8001636:	615a      	str	r2, [r3, #20]
  hi2c1.Init.OwnAddress2Masks = I2C_OA2_NOMASK;
 8001638:	4b12      	ldr	r3, [pc, #72]	; (8001684 <MX_I2C1_Init+0x74>)
 800163a:	2200      	movs	r2, #0
 800163c:	619a      	str	r2, [r3, #24]
  hi2c1.Init.GeneralCallMode = I2C_GENERALCALL_DISABLE;
 800163e:	4b11      	ldr	r3, [pc, #68]	; (8001684 <MX_I2C1_Init+0x74>)
 8001640:	2200      	movs	r2, #0
 8001642:	61da      	str	r2, [r3, #28]
  hi2c1.Init.NoStretchMode = I2C_NOSTRETCH_DISABLE;
 8001644:	4b0f      	ldr	r3, [pc, #60]	; (8001684 <MX_I2C1_Init+0x74>)
 8001646:	2200      	movs	r2, #0
 8001648:	621a      	str	r2, [r3, #32]
  if (HAL_I2C_Init(&hi2c1) != HAL_OK)
 800164a:	480e      	ldr	r0, [pc, #56]	; (8001684 <MX_I2C1_Init+0x74>)
 800164c:	f006 f8cc 	bl	80077e8 <HAL_I2C_Init>
 8001650:	4603      	mov	r3, r0
 8001652:	2b00      	cmp	r3, #0
 8001654:	d001      	beq.n	800165a <MX_I2C1_Init+0x4a>
  {
    Error_Handler();
 8001656:	f000 f9a3 	bl	80019a0 <Error_Handler>
  }
  /** Configure Analogue filter
  */
  if (HAL_I2CEx_ConfigAnalogFilter(&hi2c1, I2C_ANALOGFILTER_ENABLE) != HAL_OK)
 800165a:	2100      	movs	r1, #0
 800165c:	4809      	ldr	r0, [pc, #36]	; (8001684 <MX_I2C1_Init+0x74>)
 800165e:	f006 fc2f 	bl	8007ec0 <HAL_I2CEx_ConfigAnalogFilter>
 8001662:	4603      	mov	r3, r0
 8001664:	2b00      	cmp	r3, #0
 8001666:	d001      	beq.n	800166c <MX_I2C1_Init+0x5c>
  {
    Error_Handler();
 8001668:	f000 f99a 	bl	80019a0 <Error_Handler>
  }
  /** Configure Digital filter
  */
  if (HAL_I2CEx_ConfigDigitalFilter(&hi2c1, 0) != HAL_OK)
 800166c:	2100      	movs	r1, #0
 800166e:	4805      	ldr	r0, [pc, #20]	; (8001684 <MX_I2C1_Init+0x74>)
 8001670:	f006 fc71 	bl	8007f56 <HAL_I2CEx_ConfigDigitalFilter>
 8001674:	4603      	mov	r3, r0
 8001676:	2b00      	cmp	r3, #0
 8001678:	d001      	beq.n	800167e <MX_I2C1_Init+0x6e>
  {
    Error_Handler();
 800167a:	f000 f991 	bl	80019a0 <Error_Handler>
  }
  /* USER CODE BEGIN I2C1_Init 2 */

  /* USER CODE END I2C1_Init 2 */

}
 800167e:	bf00      	nop
 8001680:	bd80      	pop	{r7, pc}
 8001682:	bf00      	nop
 8001684:	24000670 	.word	0x24000670
 8001688:	40005400 	.word	0x40005400
 800168c:	10c0ecff 	.word	0x10c0ecff

08001690 <MX_TIM1_Init>:
  * @brief TIM1 Initialization Function
  * @param None
  * @retval None
  */
static void MX_TIM1_Init(void)
{
 8001690:	b580      	push	{r7, lr}
 8001692:	b09a      	sub	sp, #104	; 0x68
 8001694:	af00      	add	r7, sp, #0

  /* USER CODE BEGIN TIM1_Init 0 */

  /* USER CODE END TIM1_Init 0 */

  TIM_ClockConfigTypeDef sClockSourceConfig = {0};
 8001696:	f107 0358 	add.w	r3, r7, #88	; 0x58
 800169a:	2200      	movs	r2, #0
 800169c:	601a      	str	r2, [r3, #0]
 800169e:	605a      	str	r2, [r3, #4]
 80016a0:	609a      	str	r2, [r3, #8]
 80016a2:	60da      	str	r2, [r3, #12]
  TIM_MasterConfigTypeDef sMasterConfig = {0};
 80016a4:	f107 034c 	add.w	r3, r7, #76	; 0x4c
 80016a8:	2200      	movs	r2, #0
 80016aa:	601a      	str	r2, [r3, #0]
 80016ac:	605a      	str	r2, [r3, #4]
 80016ae:	609a      	str	r2, [r3, #8]
  TIM_OC_InitTypeDef sConfigOC = {0};
 80016b0:	f107 0330 	add.w	r3, r7, #48	; 0x30
 80016b4:	2200      	movs	r2, #0
 80016b6:	601a      	str	r2, [r3, #0]
 80016b8:	605a      	str	r2, [r3, #4]
 80016ba:	609a      	str	r2, [r3, #8]
 80016bc:	60da      	str	r2, [r3, #12]
 80016be:	611a      	str	r2, [r3, #16]
 80016c0:	615a      	str	r2, [r3, #20]
 80016c2:	619a      	str	r2, [r3, #24]
  TIM_BreakDeadTimeConfigTypeDef sBreakDeadTimeConfig = {0};
 80016c4:	1d3b      	adds	r3, r7, #4
 80016c6:	222c      	movs	r2, #44	; 0x2c
 80016c8:	2100      	movs	r1, #0
 80016ca:	4618      	mov	r0, r3
 80016cc:	f00b f8f2 	bl	800c8b4 <memset>

  /* USER CODE BEGIN TIM1_Init 1 */

  /* USER CODE END TIM1_Init 1 */
  htim1.Instance = TIM1;
 80016d0:	4b4f      	ldr	r3, [pc, #316]	; (8001810 <MX_TIM1_Init+0x180>)
 80016d2:	4a50      	ldr	r2, [pc, #320]	; (8001814 <MX_TIM1_Init+0x184>)
 80016d4:	601a      	str	r2, [r3, #0]
  htim1.Init.Prescaler = 0;
 80016d6:	4b4e      	ldr	r3, [pc, #312]	; (8001810 <MX_TIM1_Init+0x180>)
 80016d8:	2200      	movs	r2, #0
 80016da:	605a      	str	r2, [r3, #4]
  htim1.Init.CounterMode = TIM_COUNTERMODE_UP;
 80016dc:	4b4c      	ldr	r3, [pc, #304]	; (8001810 <MX_TIM1_Init+0x180>)
 80016de:	2200      	movs	r2, #0
 80016e0:	609a      	str	r2, [r3, #8]
  htim1.Init.Period = 5000;
 80016e2:	4b4b      	ldr	r3, [pc, #300]	; (8001810 <MX_TIM1_Init+0x180>)
 80016e4:	f241 3288 	movw	r2, #5000	; 0x1388
 80016e8:	60da      	str	r2, [r3, #12]
  htim1.Init.ClockDivision = TIM_CLOCKDIVISION_DIV1;
 80016ea:	4b49      	ldr	r3, [pc, #292]	; (8001810 <MX_TIM1_Init+0x180>)
 80016ec:	2200      	movs	r2, #0
 80016ee:	611a      	str	r2, [r3, #16]
  htim1.Init.RepetitionCounter = 0;
 80016f0:	4b47      	ldr	r3, [pc, #284]	; (8001810 <MX_TIM1_Init+0x180>)
 80016f2:	2200      	movs	r2, #0
 80016f4:	615a      	str	r2, [r3, #20]
  htim1.Init.AutoReloadPreload = TIM_AUTORELOAD_PRELOAD_DISABLE;
 80016f6:	4b46      	ldr	r3, [pc, #280]	; (8001810 <MX_TIM1_Init+0x180>)
 80016f8:	2200      	movs	r2, #0
 80016fa:	619a      	str	r2, [r3, #24]
  if (HAL_TIM_Base_Init(&htim1) != HAL_OK)
 80016fc:	4844      	ldr	r0, [pc, #272]	; (8001810 <MX_TIM1_Init+0x180>)
 80016fe:	f009 fda7 	bl	800b250 <HAL_TIM_Base_Init>
 8001702:	4603      	mov	r3, r0
 8001704:	2b00      	cmp	r3, #0
 8001706:	d001      	beq.n	800170c <MX_TIM1_Init+0x7c>
  {
    Error_Handler();
 8001708:	f000 f94a 	bl	80019a0 <Error_Handler>
  }
  sClockSourceConfig.ClockSource = TIM_CLOCKSOURCE_INTERNAL;
 800170c:	f44f 5380 	mov.w	r3, #4096	; 0x1000
 8001710:	65bb      	str	r3, [r7, #88]	; 0x58
  if (HAL_TIM_ConfigClockSource(&htim1, &sClockSourceConfig) != HAL_OK)
 8001712:	f107 0358 	add.w	r3, r7, #88	; 0x58
 8001716:	4619      	mov	r1, r3
 8001718:	483d      	ldr	r0, [pc, #244]	; (8001810 <MX_TIM1_Init+0x180>)
 800171a:	f00a f869 	bl	800b7f0 <HAL_TIM_ConfigClockSource>
 800171e:	4603      	mov	r3, r0
 8001720:	2b00      	cmp	r3, #0
 8001722:	d001      	beq.n	8001728 <MX_TIM1_Init+0x98>
  {
    Error_Handler();
 8001724:	f000 f93c 	bl	80019a0 <Error_Handler>
  }
  if (HAL_TIM_PWM_Init(&htim1) != HAL_OK)
 8001728:	4839      	ldr	r0, [pc, #228]	; (8001810 <MX_TIM1_Init+0x180>)
 800172a:	f009 fde8 	bl	800b2fe <HAL_TIM_PWM_Init>
 800172e:	4603      	mov	r3, r0
 8001730:	2b00      	cmp	r3, #0
 8001732:	d001      	beq.n	8001738 <MX_TIM1_Init+0xa8>
  {
    Error_Handler();
 8001734:	f000 f934 	bl	80019a0 <Error_Handler>
  }
  sMasterConfig.MasterOutputTrigger = TIM_TRGO_RESET;
 8001738:	2300      	movs	r3, #0
 800173a:	64fb      	str	r3, [r7, #76]	; 0x4c
  sMasterConfig.MasterOutputTrigger2 = TIM_TRGO2_RESET;
 800173c:	2300      	movs	r3, #0
 800173e:	653b      	str	r3, [r7, #80]	; 0x50
  sMasterConfig.MasterSlaveMode = TIM_MASTERSLAVEMODE_DISABLE;
 8001740:	2300      	movs	r3, #0
 8001742:	657b      	str	r3, [r7, #84]	; 0x54
  if (HAL_TIMEx_MasterConfigSynchronization(&htim1, &sMasterConfig) != HAL_OK)
 8001744:	f107 034c 	add.w	r3, r7, #76	; 0x4c
 8001748:	4619      	mov	r1, r3
 800174a:	4831      	ldr	r0, [pc, #196]	; (8001810 <MX_TIM1_Init+0x180>)
 800174c:	f00a fe2a 	bl	800c3a4 <HAL_TIMEx_MasterConfigSynchronization>
 8001750:	4603      	mov	r3, r0
 8001752:	2b00      	cmp	r3, #0
 8001754:	d001      	beq.n	800175a <MX_TIM1_Init+0xca>
  {
    Error_Handler();
 8001756:	f000 f923 	bl	80019a0 <Error_Handler>
  }
  sConfigOC.OCMode = TIM_OCMODE_PWM1;
 800175a:	2360      	movs	r3, #96	; 0x60
 800175c:	633b      	str	r3, [r7, #48]	; 0x30
  sConfigOC.Pulse = 0;
 800175e:	2300      	movs	r3, #0
 8001760:	637b      	str	r3, [r7, #52]	; 0x34
  sConfigOC.OCPolarity = TIM_OCPOLARITY_HIGH;
 8001762:	2300      	movs	r3, #0
 8001764:	63bb      	str	r3, [r7, #56]	; 0x38
  sConfigOC.OCNPolarity = TIM_OCNPOLARITY_HIGH;
 8001766:	2300      	movs	r3, #0
 8001768:	63fb      	str	r3, [r7, #60]	; 0x3c
  sConfigOC.OCFastMode = TIM_OCFAST_DISABLE;
 800176a:	2300      	movs	r3, #0
 800176c:	643b      	str	r3, [r7, #64]	; 0x40
  sConfigOC.OCIdleState = TIM_OCIDLESTATE_RESET;
 800176e:	2300      	movs	r3, #0
 8001770:	647b      	str	r3, [r7, #68]	; 0x44
  sConfigOC.OCNIdleState = TIM_OCNIDLESTATE_RESET;
 8001772:	2300      	movs	r3, #0
 8001774:	64bb      	str	r3, [r7, #72]	; 0x48
  if (HAL_TIM_PWM_ConfigChannel(&htim1, &sConfigOC, TIM_CHANNEL_1) != HAL_OK)
 8001776:	f107 0330 	add.w	r3, r7, #48	; 0x30
 800177a:	2200      	movs	r2, #0
 800177c:	4619      	mov	r1, r3
 800177e:	4824      	ldr	r0, [pc, #144]	; (8001810 <MX_TIM1_Init+0x180>)
 8001780:	f009 ff26 	bl	800b5d0 <HAL_TIM_PWM_ConfigChannel>
 8001784:	4603      	mov	r3, r0
 8001786:	2b00      	cmp	r3, #0
 8001788:	d001      	beq.n	800178e <MX_TIM1_Init+0xfe>
  {
    Error_Handler();
 800178a:	f000 f909 	bl	80019a0 <Error_Handler>
  }
  if (HAL_TIM_PWM_ConfigChannel(&htim1, &sConfigOC, TIM_CHANNEL_2) != HAL_OK)
 800178e:	f107 0330 	add.w	r3, r7, #48	; 0x30
 8001792:	2204      	movs	r2, #4
 8001794:	4619      	mov	r1, r3
 8001796:	481e      	ldr	r0, [pc, #120]	; (8001810 <MX_TIM1_Init+0x180>)
 8001798:	f009 ff1a 	bl	800b5d0 <HAL_TIM_PWM_ConfigChannel>
 800179c:	4603      	mov	r3, r0
 800179e:	2b00      	cmp	r3, #0
 80017a0:	d001      	beq.n	80017a6 <MX_TIM1_Init+0x116>
  {
    Error_Handler();
 80017a2:	f000 f8fd 	bl	80019a0 <Error_Handler>
  }
  if (HAL_TIM_PWM_ConfigChannel(&htim1, &sConfigOC, TIM_CHANNEL_3) != HAL_OK)
 80017a6:	f107 0330 	add.w	r3, r7, #48	; 0x30
 80017aa:	2208      	movs	r2, #8
 80017ac:	4619      	mov	r1, r3
 80017ae:	4818      	ldr	r0, [pc, #96]	; (8001810 <MX_TIM1_Init+0x180>)
 80017b0:	f009 ff0e 	bl	800b5d0 <HAL_TIM_PWM_ConfigChannel>
 80017b4:	4603      	mov	r3, r0
 80017b6:	2b00      	cmp	r3, #0
 80017b8:	d001      	beq.n	80017be <MX_TIM1_Init+0x12e>
  {
    Error_Handler();
 80017ba:	f000 f8f1 	bl	80019a0 <Error_Handler>
  }
  sBreakDeadTimeConfig.OffStateRunMode = TIM_OSSR_DISABLE;
 80017be:	2300      	movs	r3, #0
 80017c0:	607b      	str	r3, [r7, #4]
  sBreakDeadTimeConfig.OffStateIDLEMode = TIM_OSSI_DISABLE;
 80017c2:	2300      	movs	r3, #0
 80017c4:	60bb      	str	r3, [r7, #8]
  sBreakDeadTimeConfig.LockLevel = TIM_LOCKLEVEL_OFF;
 80017c6:	2300      	movs	r3, #0
 80017c8:	60fb      	str	r3, [r7, #12]
  sBreakDeadTimeConfig.DeadTime = 50;
 80017ca:	2332      	movs	r3, #50	; 0x32
 80017cc:	613b      	str	r3, [r7, #16]
  sBreakDeadTimeConfig.BreakState = TIM_BREAK_DISABLE;
 80017ce:	2300      	movs	r3, #0
 80017d0:	617b      	str	r3, [r7, #20]
  sBreakDeadTimeConfig.BreakPolarity = TIM_BREAKPOLARITY_HIGH;
 80017d2:	f44f 5300 	mov.w	r3, #8192	; 0x2000
 80017d6:	61bb      	str	r3, [r7, #24]
  sBreakDeadTimeConfig.BreakFilter = 0;
 80017d8:	2300      	movs	r3, #0
 80017da:	61fb      	str	r3, [r7, #28]
  sBreakDeadTimeConfig.Break2State = TIM_BREAK2_DISABLE;
 80017dc:	2300      	movs	r3, #0
 80017de:	623b      	str	r3, [r7, #32]
  sBreakDeadTimeConfig.Break2Polarity = TIM_BREAK2POLARITY_HIGH;
 80017e0:	f04f 7300 	mov.w	r3, #33554432	; 0x2000000
 80017e4:	627b      	str	r3, [r7, #36]	; 0x24
  sBreakDeadTimeConfig.Break2Filter = 0;
 80017e6:	2300      	movs	r3, #0
 80017e8:	62bb      	str	r3, [r7, #40]	; 0x28
  sBreakDeadTimeConfig.AutomaticOutput = TIM_AUTOMATICOUTPUT_DISABLE;
 80017ea:	2300      	movs	r3, #0
 80017ec:	62fb      	str	r3, [r7, #44]	; 0x2c
  if (HAL_TIMEx_ConfigBreakDeadTime(&htim1, &sBreakDeadTimeConfig) != HAL_OK)
 80017ee:	1d3b      	adds	r3, r7, #4
 80017f0:	4619      	mov	r1, r3
 80017f2:	4807      	ldr	r0, [pc, #28]	; (8001810 <MX_TIM1_Init+0x180>)
 80017f4:	f00a fe5e 	bl	800c4b4 <HAL_TIMEx_ConfigBreakDeadTime>
 80017f8:	4603      	mov	r3, r0
 80017fa:	2b00      	cmp	r3, #0
 80017fc:	d001      	beq.n	8001802 <MX_TIM1_Init+0x172>
  {
    Error_Handler();
 80017fe:	f000 f8cf 	bl	80019a0 <Error_Handler>
  }
  /* USER CODE BEGIN TIM1_Init 2 */

  /* USER CODE END TIM1_Init 2 */
  HAL_TIM_MspPostInit(&htim1);
 8001802:	4803      	ldr	r0, [pc, #12]	; (8001810 <MX_TIM1_Init+0x180>)
 8001804:	f000 fae6 	bl	8001dd4 <HAL_TIM_MspPostInit>

}
 8001808:	bf00      	nop
 800180a:	3768      	adds	r7, #104	; 0x68
 800180c:	46bd      	mov	sp, r7
 800180e:	bd80      	pop	{r7, pc}
 8001810:	240007c0 	.word	0x240007c0
 8001814:	40010000 	.word	0x40010000

08001818 <MX_DMA_Init>:

/**
  * Enable DMA controller clock
  */
static void MX_DMA_Init(void)
{
 8001818:	b580      	push	{r7, lr}
 800181a:	b082      	sub	sp, #8
 800181c:	af00      	add	r7, sp, #0

  /* DMA controller clock enable */
  __HAL_RCC_DMA1_CLK_ENABLE();
 800181e:	4b0d      	ldr	r3, [pc, #52]	; (8001854 <MX_DMA_Init+0x3c>)
 8001820:	f8d3 30d8 	ldr.w	r3, [r3, #216]	; 0xd8
 8001824:	4a0b      	ldr	r2, [pc, #44]	; (8001854 <MX_DMA_Init+0x3c>)
 8001826:	f043 0301 	orr.w	r3, r3, #1
 800182a:	f8c2 30d8 	str.w	r3, [r2, #216]	; 0xd8
 800182e:	4b09      	ldr	r3, [pc, #36]	; (8001854 <MX_DMA_Init+0x3c>)
 8001830:	f8d3 30d8 	ldr.w	r3, [r3, #216]	; 0xd8
 8001834:	f003 0301 	and.w	r3, r3, #1
 8001838:	607b      	str	r3, [r7, #4]
 800183a:	687b      	ldr	r3, [r7, #4]

  /* DMA interrupt init */
  /* DMA1_Stream0_IRQn interrupt configuration */
  HAL_NVIC_SetPriority(DMA1_Stream0_IRQn, 0, 0);
 800183c:	2200      	movs	r2, #0
 800183e:	2100      	movs	r1, #0
 8001840:	200b      	movs	r0, #11
 8001842:	f002 fd66 	bl	8004312 <HAL_NVIC_SetPriority>
  HAL_NVIC_EnableIRQ(DMA1_Stream0_IRQn);
 8001846:	200b      	movs	r0, #11
 8001848:	f002 fd7d 	bl	8004346 <HAL_NVIC_EnableIRQ>

}
 800184c:	bf00      	nop
 800184e:	3708      	adds	r7, #8
 8001850:	46bd      	mov	sp, r7
 8001852:	bd80      	pop	{r7, pc}
 8001854:	58024400 	.word	0x58024400

08001858 <MX_GPIO_Init>:
  * @brief GPIO Initialization Function
  * @param None
  * @retval None
  */
static void MX_GPIO_Init(void)
{
 8001858:	b580      	push	{r7, lr}
 800185a:	b08a      	sub	sp, #40	; 0x28
 800185c:	af00      	add	r7, sp, #0
  GPIO_InitTypeDef GPIO_InitStruct = {0};
 800185e:	f107 0314 	add.w	r3, r7, #20
 8001862:	2200      	movs	r2, #0
 8001864:	601a      	str	r2, [r3, #0]
 8001866:	605a      	str	r2, [r3, #4]
 8001868:	609a      	str	r2, [r3, #8]
 800186a:	60da      	str	r2, [r3, #12]
 800186c:	611a      	str	r2, [r3, #16]

  /* GPIO Ports Clock Enable */
  __HAL_RCC_GPIOE_CLK_ENABLE();
 800186e:	4b48      	ldr	r3, [pc, #288]	; (8001990 <MX_GPIO_Init+0x138>)
 8001870:	f8d3 30e0 	ldr.w	r3, [r3, #224]	; 0xe0
 8001874:	4a46      	ldr	r2, [pc, #280]	; (8001990 <MX_GPIO_Init+0x138>)
 8001876:	f043 0310 	orr.w	r3, r3, #16
 800187a:	f8c2 30e0 	str.w	r3, [r2, #224]	; 0xe0
 800187e:	4b44      	ldr	r3, [pc, #272]	; (8001990 <MX_GPIO_Init+0x138>)
 8001880:	f8d3 30e0 	ldr.w	r3, [r3, #224]	; 0xe0
 8001884:	f003 0310 	and.w	r3, r3, #16
 8001888:	613b      	str	r3, [r7, #16]
 800188a:	693b      	ldr	r3, [r7, #16]
  __HAL_RCC_GPIOC_CLK_ENABLE();
 800188c:	4b40      	ldr	r3, [pc, #256]	; (8001990 <MX_GPIO_Init+0x138>)
 800188e:	f8d3 30e0 	ldr.w	r3, [r3, #224]	; 0xe0
 8001892:	4a3f      	ldr	r2, [pc, #252]	; (8001990 <MX_GPIO_Init+0x138>)
 8001894:	f043 0304 	orr.w	r3, r3, #4
 8001898:	f8c2 30e0 	str.w	r3, [r2, #224]	; 0xe0
 800189c:	4b3c      	ldr	r3, [pc, #240]	; (8001990 <MX_GPIO_Init+0x138>)
 800189e:	f8d3 30e0 	ldr.w	r3, [r3, #224]	; 0xe0
 80018a2:	f003 0304 	and.w	r3, r3, #4
 80018a6:	60fb      	str	r3, [r7, #12]
 80018a8:	68fb      	ldr	r3, [r7, #12]
  __HAL_RCC_GPIOH_CLK_ENABLE();
 80018aa:	4b39      	ldr	r3, [pc, #228]	; (8001990 <MX_GPIO_Init+0x138>)
 80018ac:	f8d3 30e0 	ldr.w	r3, [r3, #224]	; 0xe0
 80018b0:	4a37      	ldr	r2, [pc, #220]	; (8001990 <MX_GPIO_Init+0x138>)
 80018b2:	f043 0380 	orr.w	r3, r3, #128	; 0x80
 80018b6:	f8c2 30e0 	str.w	r3, [r2, #224]	; 0xe0
 80018ba:	4b35      	ldr	r3, [pc, #212]	; (8001990 <MX_GPIO_Init+0x138>)
 80018bc:	f8d3 30e0 	ldr.w	r3, [r3, #224]	; 0xe0
 80018c0:	f003 0380 	and.w	r3, r3, #128	; 0x80
 80018c4:	60bb      	str	r3, [r7, #8]
 80018c6:	68bb      	ldr	r3, [r7, #8]
  __HAL_RCC_GPIOA_CLK_ENABLE();
 80018c8:	4b31      	ldr	r3, [pc, #196]	; (8001990 <MX_GPIO_Init+0x138>)
 80018ca:	f8d3 30e0 	ldr.w	r3, [r3, #224]	; 0xe0
 80018ce:	4a30      	ldr	r2, [pc, #192]	; (8001990 <MX_GPIO_Init+0x138>)
 80018d0:	f043 0301 	orr.w	r3, r3, #1
 80018d4:	f8c2 30e0 	str.w	r3, [r2, #224]	; 0xe0
 80018d8:	4b2d      	ldr	r3, [pc, #180]	; (8001990 <MX_GPIO_Init+0x138>)
 80018da:	f8d3 30e0 	ldr.w	r3, [r3, #224]	; 0xe0
 80018de:	f003 0301 	and.w	r3, r3, #1
 80018e2:	607b      	str	r3, [r7, #4]
 80018e4:	687b      	ldr	r3, [r7, #4]
  __HAL_RCC_GPIOB_CLK_ENABLE();
 80018e6:	4b2a      	ldr	r3, [pc, #168]	; (8001990 <MX_GPIO_Init+0x138>)
 80018e8:	f8d3 30e0 	ldr.w	r3, [r3, #224]	; 0xe0
 80018ec:	4a28      	ldr	r2, [pc, #160]	; (8001990 <MX_GPIO_Init+0x138>)
 80018ee:	f043 0302 	orr.w	r3, r3, #2
 80018f2:	f8c2 30e0 	str.w	r3, [r2, #224]	; 0xe0
 80018f6:	4b26      	ldr	r3, [pc, #152]	; (8001990 <MX_GPIO_Init+0x138>)
 80018f8:	f8d3 30e0 	ldr.w	r3, [r3, #224]	; 0xe0
 80018fc:	f003 0302 	and.w	r3, r3, #2
 8001900:	603b      	str	r3, [r7, #0]
 8001902:	683b      	ldr	r3, [r7, #0]

  /*Configure GPIO pin Output Level */
  HAL_GPIO_WritePin(GPIOE, LED_B_Pin|LED_G_Pin|LED_R_Pin, GPIO_PIN_SET);
 8001904:	2201      	movs	r2, #1
 8001906:	211c      	movs	r1, #28
 8001908:	4822      	ldr	r0, [pc, #136]	; (8001994 <MX_GPIO_Init+0x13c>)
 800190a:	f004 ffbf 	bl	800688c <HAL_GPIO_WritePin>

  /*Configure GPIO pins : LED_B_Pin LED_G_Pin LED_R_Pin */
  GPIO_InitStruct.Pin = LED_B_Pin|LED_G_Pin|LED_R_Pin;
 800190e:	231c      	movs	r3, #28
 8001910:	617b      	str	r3, [r7, #20]
  GPIO_InitStruct.Mode = GPIO_MODE_OUTPUT_OD;
 8001912:	2311      	movs	r3, #17
 8001914:	61bb      	str	r3, [r7, #24]
  GPIO_InitStruct.Pull = GPIO_NOPULL;
 8001916:	2300      	movs	r3, #0
 8001918:	61fb      	str	r3, [r7, #28]
  GPIO_InitStruct.Speed = GPIO_SPEED_FREQ_LOW;
 800191a:	2300      	movs	r3, #0
 800191c:	623b      	str	r3, [r7, #32]
  HAL_GPIO_Init(GPIOE, &GPIO_InitStruct);
 800191e:	f107 0314 	add.w	r3, r7, #20
 8001922:	4619      	mov	r1, r3
 8001924:	481b      	ldr	r0, [pc, #108]	; (8001994 <MX_GPIO_Init+0x13c>)
 8001926:	f004 fe01 	bl	800652c <HAL_GPIO_Init>

  /*Configure GPIO pins : S_RIGHT_Pin S_LEFT_Pin */
  GPIO_InitStruct.Pin = S_RIGHT_Pin|S_LEFT_Pin;
 800192a:	f44f 73c0 	mov.w	r3, #384	; 0x180
 800192e:	617b      	str	r3, [r7, #20]
  GPIO_InitStruct.Mode = GPIO_MODE_INPUT;
 8001930:	2300      	movs	r3, #0
 8001932:	61bb      	str	r3, [r7, #24]
  GPIO_InitStruct.Pull = GPIO_NOPULL;
 8001934:	2300      	movs	r3, #0
 8001936:	61fb      	str	r3, [r7, #28]
  HAL_GPIO_Init(GPIOE, &GPIO_InitStruct);
 8001938:	f107 0314 	add.w	r3, r7, #20
 800193c:	4619      	mov	r1, r3
 800193e:	4815      	ldr	r0, [pc, #84]	; (8001994 <MX_GPIO_Init+0x13c>)
 8001940:	f004 fdf4 	bl	800652c <HAL_GPIO_Init>

  /*Configure GPIO pins : K_LEFT_Pin K_DOWN_Pin */
  GPIO_InitStruct.Pin = K_LEFT_Pin|K_DOWN_Pin;
 8001944:	f44f 4340 	mov.w	r3, #49152	; 0xc000
 8001948:	617b      	str	r3, [r7, #20]
  GPIO_InitStruct.Mode = GPIO_MODE_IT_FALLING;
 800194a:	4b13      	ldr	r3, [pc, #76]	; (8001998 <MX_GPIO_Init+0x140>)
 800194c:	61bb      	str	r3, [r7, #24]
  GPIO_InitStruct.Pull = GPIO_NOPULL;
 800194e:	2300      	movs	r3, #0
 8001950:	61fb      	str	r3, [r7, #28]
  HAL_GPIO_Init(GPIOE, &GPIO_InitStruct);
 8001952:	f107 0314 	add.w	r3, r7, #20
 8001956:	4619      	mov	r1, r3
 8001958:	480e      	ldr	r0, [pc, #56]	; (8001994 <MX_GPIO_Init+0x13c>)
 800195a:	f004 fde7 	bl	800652c <HAL_GPIO_Init>

  /*Configure GPIO pins : K_UP_Pin K_RIGHT_Pin */
  GPIO_InitStruct.Pin = K_UP_Pin|K_RIGHT_Pin;
 800195e:	f44f 6340 	mov.w	r3, #3072	; 0xc00
 8001962:	617b      	str	r3, [r7, #20]
  GPIO_InitStruct.Mode = GPIO_MODE_IT_FALLING;
 8001964:	4b0c      	ldr	r3, [pc, #48]	; (8001998 <MX_GPIO_Init+0x140>)
 8001966:	61bb      	str	r3, [r7, #24]
  GPIO_InitStruct.Pull = GPIO_NOPULL;
 8001968:	2300      	movs	r3, #0
 800196a:	61fb      	str	r3, [r7, #28]
  HAL_GPIO_Init(GPIOB, &GPIO_InitStruct);
 800196c:	f107 0314 	add.w	r3, r7, #20
 8001970:	4619      	mov	r1, r3
 8001972:	480a      	ldr	r0, [pc, #40]	; (800199c <MX_GPIO_Init+0x144>)
 8001974:	f004 fdda 	bl	800652c <HAL_GPIO_Init>

  /* EXTI interrupt init*/
  HAL_NVIC_SetPriority(EXTI15_10_IRQn, 1, 0);
 8001978:	2200      	movs	r2, #0
 800197a:	2101      	movs	r1, #1
 800197c:	2028      	movs	r0, #40	; 0x28
 800197e:	f002 fcc8 	bl	8004312 <HAL_NVIC_SetPriority>
  HAL_NVIC_EnableIRQ(EXTI15_10_IRQn);
 8001982:	2028      	movs	r0, #40	; 0x28
 8001984:	f002 fcdf 	bl	8004346 <HAL_NVIC_EnableIRQ>

}
 8001988:	bf00      	nop
 800198a:	3728      	adds	r7, #40	; 0x28
 800198c:	46bd      	mov	sp, r7
 800198e:	bd80      	pop	{r7, pc}
 8001990:	58024400 	.word	0x58024400
 8001994:	58021000 	.word	0x58021000
 8001998:	11210000 	.word	0x11210000
 800199c:	58020400 	.word	0x58020400

080019a0 <Error_Handler>:
/**
  * @brief  This function is executed in case of error occurrence.
  * @retval None
  */
void Error_Handler(void)
{
 80019a0:	b480      	push	{r7}
 80019a2:	af00      	add	r7, sp, #0
  __ASM volatile ("cpsid i" : : : "memory");
 80019a4:	b672      	cpsid	i
}
 80019a6:	bf00      	nop
  /* USER CODE BEGIN Error_Handler_Debug */
  /* User can add his own implementation to report the HAL error return state */
  __disable_irq();
  while (1)
 80019a8:	e7fe      	b.n	80019a8 <Error_Handler+0x8>
	...

080019ac <HAL_MspInit>:
void HAL_TIM_MspPostInit(TIM_HandleTypeDef *htim);
                    /**
  * Initializes the Global MSP.
  */
void HAL_MspInit(void)
{
 80019ac:	b580      	push	{r7, lr}
 80019ae:	b082      	sub	sp, #8
 80019b0:	af00      	add	r7, sp, #0
  /* USER CODE BEGIN MspInit 0 */

  /* USER CODE END MspInit 0 */

  __HAL_RCC_SYSCFG_CLK_ENABLE();
 80019b2:	4b13      	ldr	r3, [pc, #76]	; (8001a00 <HAL_MspInit+0x54>)
 80019b4:	f8d3 30f4 	ldr.w	r3, [r3, #244]	; 0xf4
 80019b8:	4a11      	ldr	r2, [pc, #68]	; (8001a00 <HAL_MspInit+0x54>)
 80019ba:	f043 0302 	orr.w	r3, r3, #2
 80019be:	f8c2 30f4 	str.w	r3, [r2, #244]	; 0xf4
 80019c2:	4b0f      	ldr	r3, [pc, #60]	; (8001a00 <HAL_MspInit+0x54>)
 80019c4:	f8d3 30f4 	ldr.w	r3, [r3, #244]	; 0xf4
 80019c8:	f003 0302 	and.w	r3, r3, #2
 80019cc:	607b      	str	r3, [r7, #4]
 80019ce:	687b      	ldr	r3, [r7, #4]

  /* System interrupt init*/

  /** Enable the VREF clock
  */
  __HAL_RCC_VREF_CLK_ENABLE();
 80019d0:	4b0b      	ldr	r3, [pc, #44]	; (8001a00 <HAL_MspInit+0x54>)
 80019d2:	f8d3 30f4 	ldr.w	r3, [r3, #244]	; 0xf4
 80019d6:	4a0a      	ldr	r2, [pc, #40]	; (8001a00 <HAL_MspInit+0x54>)
 80019d8:	f443 4300 	orr.w	r3, r3, #32768	; 0x8000
 80019dc:	f8c2 30f4 	str.w	r3, [r2, #244]	; 0xf4
 80019e0:	4b07      	ldr	r3, [pc, #28]	; (8001a00 <HAL_MspInit+0x54>)
 80019e2:	f8d3 30f4 	ldr.w	r3, [r3, #244]	; 0xf4
 80019e6:	f403 4300 	and.w	r3, r3, #32768	; 0x8000
 80019ea:	603b      	str	r3, [r7, #0]
 80019ec:	683b      	ldr	r3, [r7, #0]
  /** Disable the Internal Voltage Reference buffer
  */
  HAL_SYSCFG_DisableVREFBUF();
 80019ee:	f000 fd15 	bl	800241c <HAL_SYSCFG_DisableVREFBUF>
  /** Configure the internal voltage reference buffer high impedance mode
  */
  HAL_SYSCFG_VREFBUF_HighImpedanceConfig(SYSCFG_VREFBUF_HIGH_IMPEDANCE_ENABLE);
 80019f2:	2002      	movs	r0, #2
 80019f4:	f000 fcfe 	bl	80023f4 <HAL_SYSCFG_VREFBUF_HighImpedanceConfig>

  /* USER CODE BEGIN MspInit 1 */

  /* USER CODE END MspInit 1 */
}
 80019f8:	bf00      	nop
 80019fa:	3708      	adds	r7, #8
 80019fc:	46bd      	mov	sp, r7
 80019fe:	bd80      	pop	{r7, pc}
 8001a00:	58024400 	.word	0x58024400

08001a04 <HAL_ADC_MspInit>:
* This function configures the hardware resources used in this example
* @param hadc: ADC handle pointer
* @retval None
*/
void HAL_ADC_MspInit(ADC_HandleTypeDef* hadc)
{
 8001a04:	b580      	push	{r7, lr}
 8001a06:	b0ba      	sub	sp, #232	; 0xe8
 8001a08:	af00      	add	r7, sp, #0
 8001a0a:	6078      	str	r0, [r7, #4]
  GPIO_InitTypeDef GPIO_InitStruct = {0};
 8001a0c:	f107 03d4 	add.w	r3, r7, #212	; 0xd4
 8001a10:	2200      	movs	r2, #0
 8001a12:	601a      	str	r2, [r3, #0]
 8001a14:	605a      	str	r2, [r3, #4]
 8001a16:	609a      	str	r2, [r3, #8]
 8001a18:	60da      	str	r2, [r3, #12]
 8001a1a:	611a      	str	r2, [r3, #16]
  RCC_PeriphCLKInitTypeDef PeriphClkInitStruct = {0};
 8001a1c:	f107 0318 	add.w	r3, r7, #24
 8001a20:	22bc      	movs	r2, #188	; 0xbc
 8001a22:	2100      	movs	r1, #0
 8001a24:	4618      	mov	r0, r3
 8001a26:	f00a ff45 	bl	800c8b4 <memset>
  if(hadc->Instance==ADC1)
 8001a2a:	687b      	ldr	r3, [r7, #4]
 8001a2c:	681b      	ldr	r3, [r3, #0]
 8001a2e:	4a56      	ldr	r2, [pc, #344]	; (8001b88 <HAL_ADC_MspInit+0x184>)
 8001a30:	4293      	cmp	r3, r2
 8001a32:	f040 80a5 	bne.w	8001b80 <HAL_ADC_MspInit+0x17c>
  /* USER CODE BEGIN ADC1_MspInit 0 */

  /* USER CODE END ADC1_MspInit 0 */
  /** Initializes the peripherals clock
  */
    PeriphClkInitStruct.PeriphClockSelection = RCC_PERIPHCLK_ADC;
 8001a36:	f44f 2300 	mov.w	r3, #524288	; 0x80000
 8001a3a:	61bb      	str	r3, [r7, #24]
    PeriphClkInitStruct.PLL2.PLL2M = 25;
 8001a3c:	2319      	movs	r3, #25
 8001a3e:	61fb      	str	r3, [r7, #28]
    PeriphClkInitStruct.PLL2.PLL2N = 256;
 8001a40:	f44f 7380 	mov.w	r3, #256	; 0x100
 8001a44:	623b      	str	r3, [r7, #32]
    PeriphClkInitStruct.PLL2.PLL2P = 8;
 8001a46:	2308      	movs	r3, #8
 8001a48:	627b      	str	r3, [r7, #36]	; 0x24
    PeriphClkInitStruct.PLL2.PLL2Q = 2;
 8001a4a:	2302      	movs	r3, #2
 8001a4c:	62bb      	str	r3, [r7, #40]	; 0x28
    PeriphClkInitStruct.PLL2.PLL2R = 2;
 8001a4e:	2302      	movs	r3, #2
 8001a50:	62fb      	str	r3, [r7, #44]	; 0x2c
    PeriphClkInitStruct.PLL2.PLL2RGE = RCC_PLL2VCIRANGE_0;
 8001a52:	2300      	movs	r3, #0
 8001a54:	633b      	str	r3, [r7, #48]	; 0x30
    PeriphClkInitStruct.PLL2.PLL2VCOSEL = RCC_PLL2VCOWIDE;
 8001a56:	2300      	movs	r3, #0
 8001a58:	637b      	str	r3, [r7, #52]	; 0x34
    PeriphClkInitStruct.PLL2.PLL2FRACN = 0;
 8001a5a:	2300      	movs	r3, #0
 8001a5c:	63bb      	str	r3, [r7, #56]	; 0x38
    PeriphClkInitStruct.AdcClockSelection = RCC_ADCCLKSOURCE_PLL2;
 8001a5e:	2300      	movs	r3, #0
 8001a60:	f8c7 30b8 	str.w	r3, [r7, #184]	; 0xb8
    if (HAL_RCCEx_PeriphCLKConfig(&PeriphClkInitStruct) != HAL_OK)
 8001a64:	f107 0318 	add.w	r3, r7, #24
 8001a68:	4618      	mov	r0, r3
 8001a6a:	f007 fa6b 	bl	8008f44 <HAL_RCCEx_PeriphCLKConfig>
 8001a6e:	4603      	mov	r3, r0
 8001a70:	2b00      	cmp	r3, #0
 8001a72:	d001      	beq.n	8001a78 <HAL_ADC_MspInit+0x74>
    {
      Error_Handler();
 8001a74:	f7ff ff94 	bl	80019a0 <Error_Handler>
    }

    /* Peripheral clock enable */
    __HAL_RCC_ADC12_CLK_ENABLE();
 8001a78:	4b44      	ldr	r3, [pc, #272]	; (8001b8c <HAL_ADC_MspInit+0x188>)
 8001a7a:	f8d3 30d8 	ldr.w	r3, [r3, #216]	; 0xd8
 8001a7e:	4a43      	ldr	r2, [pc, #268]	; (8001b8c <HAL_ADC_MspInit+0x188>)
 8001a80:	f043 0320 	orr.w	r3, r3, #32
 8001a84:	f8c2 30d8 	str.w	r3, [r2, #216]	; 0xd8
 8001a88:	4b40      	ldr	r3, [pc, #256]	; (8001b8c <HAL_ADC_MspInit+0x188>)
 8001a8a:	f8d3 30d8 	ldr.w	r3, [r3, #216]	; 0xd8
 8001a8e:	f003 0320 	and.w	r3, r3, #32
 8001a92:	617b      	str	r3, [r7, #20]
 8001a94:	697b      	ldr	r3, [r7, #20]

    __HAL_RCC_GPIOC_CLK_ENABLE();
 8001a96:	4b3d      	ldr	r3, [pc, #244]	; (8001b8c <HAL_ADC_MspInit+0x188>)
 8001a98:	f8d3 30e0 	ldr.w	r3, [r3, #224]	; 0xe0
 8001a9c:	4a3b      	ldr	r2, [pc, #236]	; (8001b8c <HAL_ADC_MspInit+0x188>)
 8001a9e:	f043 0304 	orr.w	r3, r3, #4
 8001aa2:	f8c2 30e0 	str.w	r3, [r2, #224]	; 0xe0
 8001aa6:	4b39      	ldr	r3, [pc, #228]	; (8001b8c <HAL_ADC_MspInit+0x188>)
 8001aa8:	f8d3 30e0 	ldr.w	r3, [r3, #224]	; 0xe0
 8001aac:	f003 0304 	and.w	r3, r3, #4
 8001ab0:	613b      	str	r3, [r7, #16]
 8001ab2:	693b      	ldr	r3, [r7, #16]
    __HAL_RCC_GPIOA_CLK_ENABLE();
 8001ab4:	4b35      	ldr	r3, [pc, #212]	; (8001b8c <HAL_ADC_MspInit+0x188>)
 8001ab6:	f8d3 30e0 	ldr.w	r3, [r3, #224]	; 0xe0
 8001aba:	4a34      	ldr	r2, [pc, #208]	; (8001b8c <HAL_ADC_MspInit+0x188>)
 8001abc:	f043 0301 	orr.w	r3, r3, #1
 8001ac0:	f8c2 30e0 	str.w	r3, [r2, #224]	; 0xe0
 8001ac4:	4b31      	ldr	r3, [pc, #196]	; (8001b8c <HAL_ADC_MspInit+0x188>)
 8001ac6:	f8d3 30e0 	ldr.w	r3, [r3, #224]	; 0xe0
 8001aca:	f003 0301 	and.w	r3, r3, #1
 8001ace:	60fb      	str	r3, [r7, #12]
 8001ad0:	68fb      	ldr	r3, [r7, #12]
    PA3     ------> ADC1_INP15
    PA5     ------> ADC1_INP19
    PA7     ------> ADC1_INP7
    PC5     ------> ADC1_INP8
    */
    GPIO_InitStruct.Pin = GPIO_PIN_0|GPIO_PIN_1|GPIO_PIN_5;
 8001ad2:	2323      	movs	r3, #35	; 0x23
 8001ad4:	f8c7 30d4 	str.w	r3, [r7, #212]	; 0xd4
    GPIO_InitStruct.Mode = GPIO_MODE_ANALOG;
 8001ad8:	2303      	movs	r3, #3
 8001ada:	f8c7 30d8 	str.w	r3, [r7, #216]	; 0xd8
    GPIO_InitStruct.Pull = GPIO_NOPULL;
 8001ade:	2300      	movs	r3, #0
 8001ae0:	f8c7 30dc 	str.w	r3, [r7, #220]	; 0xdc
    HAL_GPIO_Init(GPIOC, &GPIO_InitStruct);
 8001ae4:	f107 03d4 	add.w	r3, r7, #212	; 0xd4
 8001ae8:	4619      	mov	r1, r3
 8001aea:	4829      	ldr	r0, [pc, #164]	; (8001b90 <HAL_ADC_MspInit+0x18c>)
 8001aec:	f004 fd1e 	bl	800652c <HAL_GPIO_Init>

    GPIO_InitStruct.Pin = GPIO_PIN_0|GPIO_PIN_1|GPIO_PIN_2|GPIO_PIN_3
 8001af0:	23af      	movs	r3, #175	; 0xaf
 8001af2:	f8c7 30d4 	str.w	r3, [r7, #212]	; 0xd4
                          |GPIO_PIN_5|GPIO_PIN_7;
    GPIO_InitStruct.Mode = GPIO_MODE_ANALOG;
 8001af6:	2303      	movs	r3, #3
 8001af8:	f8c7 30d8 	str.w	r3, [r7, #216]	; 0xd8
    GPIO_InitStruct.Pull = GPIO_NOPULL;
 8001afc:	2300      	movs	r3, #0
 8001afe:	f8c7 30dc 	str.w	r3, [r7, #220]	; 0xdc
    HAL_GPIO_Init(GPIOA, &GPIO_InitStruct);
 8001b02:	f107 03d4 	add.w	r3, r7, #212	; 0xd4
 8001b06:	4619      	mov	r1, r3
 8001b08:	4822      	ldr	r0, [pc, #136]	; (8001b94 <HAL_ADC_MspInit+0x190>)
 8001b0a:	f004 fd0f 	bl	800652c <HAL_GPIO_Init>

    /* ADC1 DMA Init */
    /* ADC1 Init */
    hdma_adc1.Instance = DMA1_Stream0;
 8001b0e:	4b22      	ldr	r3, [pc, #136]	; (8001b98 <HAL_ADC_MspInit+0x194>)
 8001b10:	4a22      	ldr	r2, [pc, #136]	; (8001b9c <HAL_ADC_MspInit+0x198>)
 8001b12:	601a      	str	r2, [r3, #0]
    hdma_adc1.Init.Request = DMA_REQUEST_ADC1;
 8001b14:	4b20      	ldr	r3, [pc, #128]	; (8001b98 <HAL_ADC_MspInit+0x194>)
 8001b16:	2209      	movs	r2, #9
 8001b18:	605a      	str	r2, [r3, #4]
    hdma_adc1.Init.Direction = DMA_PERIPH_TO_MEMORY;
 8001b1a:	4b1f      	ldr	r3, [pc, #124]	; (8001b98 <HAL_ADC_MspInit+0x194>)
 8001b1c:	2200      	movs	r2, #0
 8001b1e:	609a      	str	r2, [r3, #8]
    hdma_adc1.Init.PeriphInc = DMA_PINC_DISABLE;
 8001b20:	4b1d      	ldr	r3, [pc, #116]	; (8001b98 <HAL_ADC_MspInit+0x194>)
 8001b22:	2200      	movs	r2, #0
 8001b24:	60da      	str	r2, [r3, #12]
    hdma_adc1.Init.MemInc = DMA_MINC_ENABLE;
 8001b26:	4b1c      	ldr	r3, [pc, #112]	; (8001b98 <HAL_ADC_MspInit+0x194>)
 8001b28:	f44f 6280 	mov.w	r2, #1024	; 0x400
 8001b2c:	611a      	str	r2, [r3, #16]
    hdma_adc1.Init.PeriphDataAlignment = DMA_PDATAALIGN_HALFWORD;
 8001b2e:	4b1a      	ldr	r3, [pc, #104]	; (8001b98 <HAL_ADC_MspInit+0x194>)
 8001b30:	f44f 6200 	mov.w	r2, #2048	; 0x800
 8001b34:	615a      	str	r2, [r3, #20]
    hdma_adc1.Init.MemDataAlignment = DMA_MDATAALIGN_HALFWORD;
 8001b36:	4b18      	ldr	r3, [pc, #96]	; (8001b98 <HAL_ADC_MspInit+0x194>)
 8001b38:	f44f 5200 	mov.w	r2, #8192	; 0x2000
 8001b3c:	619a      	str	r2, [r3, #24]
    hdma_adc1.Init.Mode = DMA_CIRCULAR;
 8001b3e:	4b16      	ldr	r3, [pc, #88]	; (8001b98 <HAL_ADC_MspInit+0x194>)
 8001b40:	f44f 7280 	mov.w	r2, #256	; 0x100
 8001b44:	61da      	str	r2, [r3, #28]
    hdma_adc1.Init.Priority = DMA_PRIORITY_HIGH;
 8001b46:	4b14      	ldr	r3, [pc, #80]	; (8001b98 <HAL_ADC_MspInit+0x194>)
 8001b48:	f44f 3200 	mov.w	r2, #131072	; 0x20000
 8001b4c:	621a      	str	r2, [r3, #32]
    hdma_adc1.Init.FIFOMode = DMA_FIFOMODE_DISABLE;
 8001b4e:	4b12      	ldr	r3, [pc, #72]	; (8001b98 <HAL_ADC_MspInit+0x194>)
 8001b50:	2200      	movs	r2, #0
 8001b52:	625a      	str	r2, [r3, #36]	; 0x24
    if (HAL_DMA_Init(&hdma_adc1) != HAL_OK)
 8001b54:	4810      	ldr	r0, [pc, #64]	; (8001b98 <HAL_ADC_MspInit+0x194>)
 8001b56:	f002 fc11 	bl	800437c <HAL_DMA_Init>
 8001b5a:	4603      	mov	r3, r0
 8001b5c:	2b00      	cmp	r3, #0
 8001b5e:	d001      	beq.n	8001b64 <HAL_ADC_MspInit+0x160>
    {
      Error_Handler();
 8001b60:	f7ff ff1e 	bl	80019a0 <Error_Handler>
    }

    __HAL_LINKDMA(hadc,DMA_Handle,hdma_adc1);
 8001b64:	687b      	ldr	r3, [r7, #4]
 8001b66:	4a0c      	ldr	r2, [pc, #48]	; (8001b98 <HAL_ADC_MspInit+0x194>)
 8001b68:	64da      	str	r2, [r3, #76]	; 0x4c
 8001b6a:	4a0b      	ldr	r2, [pc, #44]	; (8001b98 <HAL_ADC_MspInit+0x194>)
 8001b6c:	687b      	ldr	r3, [r7, #4]
 8001b6e:	6393      	str	r3, [r2, #56]	; 0x38

    /* ADC1 interrupt Init */
    HAL_NVIC_SetPriority(ADC_IRQn, 0, 0);
 8001b70:	2200      	movs	r2, #0
 8001b72:	2100      	movs	r1, #0
 8001b74:	2012      	movs	r0, #18
 8001b76:	f002 fbcc 	bl	8004312 <HAL_NVIC_SetPriority>
    HAL_NVIC_EnableIRQ(ADC_IRQn);
 8001b7a:	2012      	movs	r0, #18
 8001b7c:	f002 fbe3 	bl	8004346 <HAL_NVIC_EnableIRQ>
  /* USER CODE BEGIN ADC1_MspInit 1 */

  /* USER CODE END ADC1_MspInit 1 */
  }

}
 8001b80:	bf00      	nop
 8001b82:	37e8      	adds	r7, #232	; 0xe8
 8001b84:	46bd      	mov	sp, r7
 8001b86:	bd80      	pop	{r7, pc}
 8001b88:	40022000 	.word	0x40022000
 8001b8c:	58024400 	.word	0x58024400
 8001b90:	58020800 	.word	0x58020800
 8001b94:	58020000 	.word	0x58020000
 8001b98:	24000744 	.word	0x24000744
 8001b9c:	40020010 	.word	0x40020010

08001ba0 <HAL_HRTIM_MspInit>:
* This function configures the hardware resources used in this example
* @param hhrtim: HRTIM handle pointer
* @retval None
*/
void HAL_HRTIM_MspInit(HRTIM_HandleTypeDef* hhrtim)
{
 8001ba0:	b580      	push	{r7, lr}
 8001ba2:	b0b2      	sub	sp, #200	; 0xc8
 8001ba4:	af00      	add	r7, sp, #0
 8001ba6:	6078      	str	r0, [r7, #4]
  RCC_PeriphCLKInitTypeDef PeriphClkInitStruct = {0};
 8001ba8:	f107 030c 	add.w	r3, r7, #12
 8001bac:	22bc      	movs	r2, #188	; 0xbc
 8001bae:	2100      	movs	r1, #0
 8001bb0:	4618      	mov	r0, r3
 8001bb2:	f00a fe7f 	bl	800c8b4 <memset>
  if(hhrtim->Instance==HRTIM1)
 8001bb6:	687b      	ldr	r3, [r7, #4]
 8001bb8:	681b      	ldr	r3, [r3, #0]
 8001bba:	4a13      	ldr	r2, [pc, #76]	; (8001c08 <HAL_HRTIM_MspInit+0x68>)
 8001bbc:	4293      	cmp	r3, r2
 8001bbe:	d11f      	bne.n	8001c00 <HAL_HRTIM_MspInit+0x60>
  /* USER CODE BEGIN HRTIM1_MspInit 0 */

  /* USER CODE END HRTIM1_MspInit 0 */
  /** Initializes the peripherals clock
  */
    PeriphClkInitStruct.PeriphClockSelection = RCC_PERIPHCLK_HRTIM1;
 8001bc0:	f04f 5380 	mov.w	r3, #268435456	; 0x10000000
 8001bc4:	60fb      	str	r3, [r7, #12]
    PeriphClkInitStruct.Hrtim1ClockSelection = RCC_HRTIM1CLK_CPUCLK;
 8001bc6:	f44f 4380 	mov.w	r3, #16384	; 0x4000
 8001bca:	f8c7 30c0 	str.w	r3, [r7, #192]	; 0xc0
    if (HAL_RCCEx_PeriphCLKConfig(&PeriphClkInitStruct) != HAL_OK)
 8001bce:	f107 030c 	add.w	r3, r7, #12
 8001bd2:	4618      	mov	r0, r3
 8001bd4:	f007 f9b6 	bl	8008f44 <HAL_RCCEx_PeriphCLKConfig>
 8001bd8:	4603      	mov	r3, r0
 8001bda:	2b00      	cmp	r3, #0
 8001bdc:	d001      	beq.n	8001be2 <HAL_HRTIM_MspInit+0x42>
    {
      Error_Handler();
 8001bde:	f7ff fedf 	bl	80019a0 <Error_Handler>
    }

    /* Peripheral clock enable */
    __HAL_RCC_HRTIM1_CLK_ENABLE();
 8001be2:	4b0a      	ldr	r3, [pc, #40]	; (8001c0c <HAL_HRTIM_MspInit+0x6c>)
 8001be4:	f8d3 30f0 	ldr.w	r3, [r3, #240]	; 0xf0
 8001be8:	4a08      	ldr	r2, [pc, #32]	; (8001c0c <HAL_HRTIM_MspInit+0x6c>)
 8001bea:	f043 5300 	orr.w	r3, r3, #536870912	; 0x20000000
 8001bee:	f8c2 30f0 	str.w	r3, [r2, #240]	; 0xf0
 8001bf2:	4b06      	ldr	r3, [pc, #24]	; (8001c0c <HAL_HRTIM_MspInit+0x6c>)
 8001bf4:	f8d3 30f0 	ldr.w	r3, [r3, #240]	; 0xf0
 8001bf8:	f003 5300 	and.w	r3, r3, #536870912	; 0x20000000
 8001bfc:	60bb      	str	r3, [r7, #8]
 8001bfe:	68bb      	ldr	r3, [r7, #8]
  /* USER CODE BEGIN HRTIM1_MspInit 1 */

  /* USER CODE END HRTIM1_MspInit 1 */
  }

}
 8001c00:	bf00      	nop
 8001c02:	37c8      	adds	r7, #200	; 0xc8
 8001c04:	46bd      	mov	sp, r7
 8001c06:	bd80      	pop	{r7, pc}
 8001c08:	40017400 	.word	0x40017400
 8001c0c:	58024400 	.word	0x58024400

08001c10 <HAL_HRTIM_MspPostInit>:

void HAL_HRTIM_MspPostInit(HRTIM_HandleTypeDef* hhrtim)
{
 8001c10:	b580      	push	{r7, lr}
 8001c12:	b08a      	sub	sp, #40	; 0x28
 8001c14:	af00      	add	r7, sp, #0
 8001c16:	6078      	str	r0, [r7, #4]
  GPIO_InitTypeDef GPIO_InitStruct = {0};
 8001c18:	f107 0314 	add.w	r3, r7, #20
 8001c1c:	2200      	movs	r2, #0
 8001c1e:	601a      	str	r2, [r3, #0]
 8001c20:	605a      	str	r2, [r3, #4]
 8001c22:	609a      	str	r2, [r3, #8]
 8001c24:	60da      	str	r2, [r3, #12]
 8001c26:	611a      	str	r2, [r3, #16]
  if(hhrtim->Instance==HRTIM1)
 8001c28:	687b      	ldr	r3, [r7, #4]
 8001c2a:	681b      	ldr	r3, [r3, #0]
 8001c2c:	4a22      	ldr	r2, [pc, #136]	; (8001cb8 <HAL_HRTIM_MspPostInit+0xa8>)
 8001c2e:	4293      	cmp	r3, r2
 8001c30:	d13e      	bne.n	8001cb0 <HAL_HRTIM_MspPostInit+0xa0>
  {
  /* USER CODE BEGIN HRTIM1_MspPostInit 0 */

  /* USER CODE END HRTIM1_MspPostInit 0 */

    __HAL_RCC_GPIOC_CLK_ENABLE();
 8001c32:	4b22      	ldr	r3, [pc, #136]	; (8001cbc <HAL_HRTIM_MspPostInit+0xac>)
 8001c34:	f8d3 30e0 	ldr.w	r3, [r3, #224]	; 0xe0
 8001c38:	4a20      	ldr	r2, [pc, #128]	; (8001cbc <HAL_HRTIM_MspPostInit+0xac>)
 8001c3a:	f043 0304 	orr.w	r3, r3, #4
 8001c3e:	f8c2 30e0 	str.w	r3, [r2, #224]	; 0xe0
 8001c42:	4b1e      	ldr	r3, [pc, #120]	; (8001cbc <HAL_HRTIM_MspPostInit+0xac>)
 8001c44:	f8d3 30e0 	ldr.w	r3, [r3, #224]	; 0xe0
 8001c48:	f003 0304 	and.w	r3, r3, #4
 8001c4c:	613b      	str	r3, [r7, #16]
 8001c4e:	693b      	ldr	r3, [r7, #16]
    __HAL_RCC_GPIOA_CLK_ENABLE();
 8001c50:	4b1a      	ldr	r3, [pc, #104]	; (8001cbc <HAL_HRTIM_MspPostInit+0xac>)
 8001c52:	f8d3 30e0 	ldr.w	r3, [r3, #224]	; 0xe0
 8001c56:	4a19      	ldr	r2, [pc, #100]	; (8001cbc <HAL_HRTIM_MspPostInit+0xac>)
 8001c58:	f043 0301 	orr.w	r3, r3, #1
 8001c5c:	f8c2 30e0 	str.w	r3, [r2, #224]	; 0xe0
 8001c60:	4b16      	ldr	r3, [pc, #88]	; (8001cbc <HAL_HRTIM_MspPostInit+0xac>)
 8001c62:	f8d3 30e0 	ldr.w	r3, [r3, #224]	; 0xe0
 8001c66:	f003 0301 	and.w	r3, r3, #1
 8001c6a:	60fb      	str	r3, [r7, #12]
 8001c6c:	68fb      	ldr	r3, [r7, #12]
    /**HRTIM GPIO Configuration
    PC6     ------> HRTIM_CHA1
    PA11     ------> HRTIM_CHD1
    PA12     ------> HRTIM_CHD2
    */
    GPIO_InitStruct.Pin = GPIO_PIN_6;
 8001c6e:	2340      	movs	r3, #64	; 0x40
 8001c70:	617b      	str	r3, [r7, #20]
    GPIO_InitStruct.Mode = GPIO_MODE_AF_PP;
 8001c72:	2302      	movs	r3, #2
 8001c74:	61bb      	str	r3, [r7, #24]
    GPIO_InitStruct.Pull = GPIO_NOPULL;
 8001c76:	2300      	movs	r3, #0
 8001c78:	61fb      	str	r3, [r7, #28]
    GPIO_InitStruct.Speed = GPIO_SPEED_FREQ_VERY_HIGH;
 8001c7a:	2303      	movs	r3, #3
 8001c7c:	623b      	str	r3, [r7, #32]
    GPIO_InitStruct.Alternate = GPIO_AF1_HRTIM1;
 8001c7e:	2301      	movs	r3, #1
 8001c80:	627b      	str	r3, [r7, #36]	; 0x24
    HAL_GPIO_Init(GPIOC, &GPIO_InitStruct);
 8001c82:	f107 0314 	add.w	r3, r7, #20
 8001c86:	4619      	mov	r1, r3
 8001c88:	480d      	ldr	r0, [pc, #52]	; (8001cc0 <HAL_HRTIM_MspPostInit+0xb0>)
 8001c8a:	f004 fc4f 	bl	800652c <HAL_GPIO_Init>

    GPIO_InitStruct.Pin = GPIO_PIN_11|GPIO_PIN_12;
 8001c8e:	f44f 53c0 	mov.w	r3, #6144	; 0x1800
 8001c92:	617b      	str	r3, [r7, #20]
    GPIO_InitStruct.Mode = GPIO_MODE_AF_PP;
 8001c94:	2302      	movs	r3, #2
 8001c96:	61bb      	str	r3, [r7, #24]
    GPIO_InitStruct.Pull = GPIO_NOPULL;
 8001c98:	2300      	movs	r3, #0
 8001c9a:	61fb      	str	r3, [r7, #28]
    GPIO_InitStruct.Speed = GPIO_SPEED_FREQ_VERY_HIGH;
 8001c9c:	2303      	movs	r3, #3
 8001c9e:	623b      	str	r3, [r7, #32]
    GPIO_InitStruct.Alternate = GPIO_AF2_HRTIM1;
 8001ca0:	2302      	movs	r3, #2
 8001ca2:	627b      	str	r3, [r7, #36]	; 0x24
    HAL_GPIO_Init(GPIOA, &GPIO_InitStruct);
 8001ca4:	f107 0314 	add.w	r3, r7, #20
 8001ca8:	4619      	mov	r1, r3
 8001caa:	4806      	ldr	r0, [pc, #24]	; (8001cc4 <HAL_HRTIM_MspPostInit+0xb4>)
 8001cac:	f004 fc3e 	bl	800652c <HAL_GPIO_Init>
  /* USER CODE BEGIN HRTIM1_MspPostInit 1 */

  /* USER CODE END HRTIM1_MspPostInit 1 */
  }

}
 8001cb0:	bf00      	nop
 8001cb2:	3728      	adds	r7, #40	; 0x28
 8001cb4:	46bd      	mov	sp, r7
 8001cb6:	bd80      	pop	{r7, pc}
 8001cb8:	40017400 	.word	0x40017400
 8001cbc:	58024400 	.word	0x58024400
 8001cc0:	58020800 	.word	0x58020800
 8001cc4:	58020000 	.word	0x58020000

08001cc8 <HAL_I2C_MspInit>:
* This function configures the hardware resources used in this example
* @param hi2c: I2C handle pointer
* @retval None
*/
void HAL_I2C_MspInit(I2C_HandleTypeDef* hi2c)
{
 8001cc8:	b580      	push	{r7, lr}
 8001cca:	b0b8      	sub	sp, #224	; 0xe0
 8001ccc:	af00      	add	r7, sp, #0
 8001cce:	6078      	str	r0, [r7, #4]
  GPIO_InitTypeDef GPIO_InitStruct = {0};
 8001cd0:	f107 03cc 	add.w	r3, r7, #204	; 0xcc
 8001cd4:	2200      	movs	r2, #0
 8001cd6:	601a      	str	r2, [r3, #0]
 8001cd8:	605a      	str	r2, [r3, #4]
 8001cda:	609a      	str	r2, [r3, #8]
 8001cdc:	60da      	str	r2, [r3, #12]
 8001cde:	611a      	str	r2, [r3, #16]
  RCC_PeriphCLKInitTypeDef PeriphClkInitStruct = {0};
 8001ce0:	f107 0310 	add.w	r3, r7, #16
 8001ce4:	22bc      	movs	r2, #188	; 0xbc
 8001ce6:	2100      	movs	r1, #0
 8001ce8:	4618      	mov	r0, r3
 8001cea:	f00a fde3 	bl	800c8b4 <memset>
  if(hi2c->Instance==I2C1)
 8001cee:	687b      	ldr	r3, [r7, #4]
 8001cf0:	681b      	ldr	r3, [r3, #0]
 8001cf2:	4a24      	ldr	r2, [pc, #144]	; (8001d84 <HAL_I2C_MspInit+0xbc>)
 8001cf4:	4293      	cmp	r3, r2
 8001cf6:	d141      	bne.n	8001d7c <HAL_I2C_MspInit+0xb4>
  /* USER CODE BEGIN I2C1_MspInit 0 */

  /* USER CODE END I2C1_MspInit 0 */
  /** Initializes the peripherals clock
  */
    PeriphClkInitStruct.PeriphClockSelection = RCC_PERIPHCLK_I2C1;
 8001cf8:	2308      	movs	r3, #8
 8001cfa:	613b      	str	r3, [r7, #16]
    PeriphClkInitStruct.I2c123ClockSelection = RCC_I2C123CLKSOURCE_D2PCLK1;
 8001cfc:	2300      	movs	r3, #0
 8001cfe:	f8c7 3090 	str.w	r3, [r7, #144]	; 0x90
    if (HAL_RCCEx_PeriphCLKConfig(&PeriphClkInitStruct) != HAL_OK)
 8001d02:	f107 0310 	add.w	r3, r7, #16
 8001d06:	4618      	mov	r0, r3
 8001d08:	f007 f91c 	bl	8008f44 <HAL_RCCEx_PeriphCLKConfig>
 8001d0c:	4603      	mov	r3, r0
 8001d0e:	2b00      	cmp	r3, #0
 8001d10:	d001      	beq.n	8001d16 <HAL_I2C_MspInit+0x4e>
    {
      Error_Handler();
 8001d12:	f7ff fe45 	bl	80019a0 <Error_Handler>
    }

    __HAL_RCC_GPIOB_CLK_ENABLE();
 8001d16:	4b1c      	ldr	r3, [pc, #112]	; (8001d88 <HAL_I2C_MspInit+0xc0>)
 8001d18:	f8d3 30e0 	ldr.w	r3, [r3, #224]	; 0xe0
 8001d1c:	4a1a      	ldr	r2, [pc, #104]	; (8001d88 <HAL_I2C_MspInit+0xc0>)
 8001d1e:	f043 0302 	orr.w	r3, r3, #2
 8001d22:	f8c2 30e0 	str.w	r3, [r2, #224]	; 0xe0
 8001d26:	4b18      	ldr	r3, [pc, #96]	; (8001d88 <HAL_I2C_MspInit+0xc0>)
 8001d28:	f8d3 30e0 	ldr.w	r3, [r3, #224]	; 0xe0
 8001d2c:	f003 0302 	and.w	r3, r3, #2
 8001d30:	60fb      	str	r3, [r7, #12]
 8001d32:	68fb      	ldr	r3, [r7, #12]
    /**I2C1 GPIO Configuration
    PB6     ------> I2C1_SCL
    PB7     ------> I2C1_SDA
    */
    GPIO_InitStruct.Pin = GPIO_PIN_6|GPIO_PIN_7;
 8001d34:	23c0      	movs	r3, #192	; 0xc0
 8001d36:	f8c7 30cc 	str.w	r3, [r7, #204]	; 0xcc
    GPIO_InitStruct.Mode = GPIO_MODE_AF_OD;
 8001d3a:	2312      	movs	r3, #18
 8001d3c:	f8c7 30d0 	str.w	r3, [r7, #208]	; 0xd0
    GPIO_InitStruct.Pull = GPIO_NOPULL;
 8001d40:	2300      	movs	r3, #0
 8001d42:	f8c7 30d4 	str.w	r3, [r7, #212]	; 0xd4
    GPIO_InitStruct.Speed = GPIO_SPEED_FREQ_LOW;
 8001d46:	2300      	movs	r3, #0
 8001d48:	f8c7 30d8 	str.w	r3, [r7, #216]	; 0xd8
    GPIO_InitStruct.Alternate = GPIO_AF4_I2C1;
 8001d4c:	2304      	movs	r3, #4
 8001d4e:	f8c7 30dc 	str.w	r3, [r7, #220]	; 0xdc
    HAL_GPIO_Init(GPIOB, &GPIO_InitStruct);
 8001d52:	f107 03cc 	add.w	r3, r7, #204	; 0xcc
 8001d56:	4619      	mov	r1, r3
 8001d58:	480c      	ldr	r0, [pc, #48]	; (8001d8c <HAL_I2C_MspInit+0xc4>)
 8001d5a:	f004 fbe7 	bl	800652c <HAL_GPIO_Init>

    /* Peripheral clock enable */
    __HAL_RCC_I2C1_CLK_ENABLE();
 8001d5e:	4b0a      	ldr	r3, [pc, #40]	; (8001d88 <HAL_I2C_MspInit+0xc0>)
 8001d60:	f8d3 30e8 	ldr.w	r3, [r3, #232]	; 0xe8
 8001d64:	4a08      	ldr	r2, [pc, #32]	; (8001d88 <HAL_I2C_MspInit+0xc0>)
 8001d66:	f443 1300 	orr.w	r3, r3, #2097152	; 0x200000
 8001d6a:	f8c2 30e8 	str.w	r3, [r2, #232]	; 0xe8
 8001d6e:	4b06      	ldr	r3, [pc, #24]	; (8001d88 <HAL_I2C_MspInit+0xc0>)
 8001d70:	f8d3 30e8 	ldr.w	r3, [r3, #232]	; 0xe8
 8001d74:	f403 1300 	and.w	r3, r3, #2097152	; 0x200000
 8001d78:	60bb      	str	r3, [r7, #8]
 8001d7a:	68bb      	ldr	r3, [r7, #8]
  /* USER CODE BEGIN I2C1_MspInit 1 */

  /* USER CODE END I2C1_MspInit 1 */
  }

}
 8001d7c:	bf00      	nop
 8001d7e:	37e0      	adds	r7, #224	; 0xe0
 8001d80:	46bd      	mov	sp, r7
 8001d82:	bd80      	pop	{r7, pc}
 8001d84:	40005400 	.word	0x40005400
 8001d88:	58024400 	.word	0x58024400
 8001d8c:	58020400 	.word	0x58020400

08001d90 <HAL_TIM_Base_MspInit>:
* This function configures the hardware resources used in this example
* @param htim_base: TIM_Base handle pointer
* @retval None
*/
void HAL_TIM_Base_MspInit(TIM_HandleTypeDef* htim_base)
{
 8001d90:	b480      	push	{r7}
 8001d92:	b085      	sub	sp, #20
 8001d94:	af00      	add	r7, sp, #0
 8001d96:	6078      	str	r0, [r7, #4]
  if(htim_base->Instance==TIM1)
 8001d98:	687b      	ldr	r3, [r7, #4]
 8001d9a:	681b      	ldr	r3, [r3, #0]
 8001d9c:	4a0b      	ldr	r2, [pc, #44]	; (8001dcc <HAL_TIM_Base_MspInit+0x3c>)
 8001d9e:	4293      	cmp	r3, r2
 8001da0:	d10e      	bne.n	8001dc0 <HAL_TIM_Base_MspInit+0x30>
  {
  /* USER CODE BEGIN TIM1_MspInit 0 */

  /* USER CODE END TIM1_MspInit 0 */
    /* Peripheral clock enable */
    __HAL_RCC_TIM1_CLK_ENABLE();
 8001da2:	4b0b      	ldr	r3, [pc, #44]	; (8001dd0 <HAL_TIM_Base_MspInit+0x40>)
 8001da4:	f8d3 30f0 	ldr.w	r3, [r3, #240]	; 0xf0
 8001da8:	4a09      	ldr	r2, [pc, #36]	; (8001dd0 <HAL_TIM_Base_MspInit+0x40>)
 8001daa:	f043 0301 	orr.w	r3, r3, #1
 8001dae:	f8c2 30f0 	str.w	r3, [r2, #240]	; 0xf0
 8001db2:	4b07      	ldr	r3, [pc, #28]	; (8001dd0 <HAL_TIM_Base_MspInit+0x40>)
 8001db4:	f8d3 30f0 	ldr.w	r3, [r3, #240]	; 0xf0
 8001db8:	f003 0301 	and.w	r3, r3, #1
 8001dbc:	60fb      	str	r3, [r7, #12]
 8001dbe:	68fb      	ldr	r3, [r7, #12]
  /* USER CODE BEGIN TIM1_MspInit 1 */

  /* USER CODE END TIM1_MspInit 1 */
  }

}
 8001dc0:	bf00      	nop
 8001dc2:	3714      	adds	r7, #20
 8001dc4:	46bd      	mov	sp, r7
 8001dc6:	f85d 7b04 	ldr.w	r7, [sp], #4
 8001dca:	4770      	bx	lr
 8001dcc:	40010000 	.word	0x40010000
 8001dd0:	58024400 	.word	0x58024400

08001dd4 <HAL_TIM_MspPostInit>:

void HAL_TIM_MspPostInit(TIM_HandleTypeDef* htim)
{
 8001dd4:	b580      	push	{r7, lr}
 8001dd6:	b08a      	sub	sp, #40	; 0x28
 8001dd8:	af00      	add	r7, sp, #0
 8001dda:	6078      	str	r0, [r7, #4]
  GPIO_InitTypeDef GPIO_InitStruct = {0};
 8001ddc:	f107 0314 	add.w	r3, r7, #20
 8001de0:	2200      	movs	r2, #0
 8001de2:	601a      	str	r2, [r3, #0]
 8001de4:	605a      	str	r2, [r3, #4]
 8001de6:	609a      	str	r2, [r3, #8]
 8001de8:	60da      	str	r2, [r3, #12]
 8001dea:	611a      	str	r2, [r3, #16]
  if(htim->Instance==TIM1)
 8001dec:	687b      	ldr	r3, [r7, #4]
 8001dee:	681b      	ldr	r3, [r3, #0]
 8001df0:	4a33      	ldr	r2, [pc, #204]	; (8001ec0 <HAL_TIM_MspPostInit+0xec>)
 8001df2:	4293      	cmp	r3, r2
 8001df4:	d15f      	bne.n	8001eb6 <HAL_TIM_MspPostInit+0xe2>
  {
  /* USER CODE BEGIN TIM1_MspPostInit 0 */

  /* USER CODE END TIM1_MspPostInit 0 */

    __HAL_RCC_GPIOE_CLK_ENABLE();
 8001df6:	4b33      	ldr	r3, [pc, #204]	; (8001ec4 <HAL_TIM_MspPostInit+0xf0>)
 8001df8:	f8d3 30e0 	ldr.w	r3, [r3, #224]	; 0xe0
 8001dfc:	4a31      	ldr	r2, [pc, #196]	; (8001ec4 <HAL_TIM_MspPostInit+0xf0>)
 8001dfe:	f043 0310 	orr.w	r3, r3, #16
 8001e02:	f8c2 30e0 	str.w	r3, [r2, #224]	; 0xe0
 8001e06:	4b2f      	ldr	r3, [pc, #188]	; (8001ec4 <HAL_TIM_MspPostInit+0xf0>)
 8001e08:	f8d3 30e0 	ldr.w	r3, [r3, #224]	; 0xe0
 8001e0c:	f003 0310 	and.w	r3, r3, #16
 8001e10:	613b      	str	r3, [r7, #16]
 8001e12:	693b      	ldr	r3, [r7, #16]
    __HAL_RCC_GPIOB_CLK_ENABLE();
 8001e14:	4b2b      	ldr	r3, [pc, #172]	; (8001ec4 <HAL_TIM_MspPostInit+0xf0>)
 8001e16:	f8d3 30e0 	ldr.w	r3, [r3, #224]	; 0xe0
 8001e1a:	4a2a      	ldr	r2, [pc, #168]	; (8001ec4 <HAL_TIM_MspPostInit+0xf0>)
 8001e1c:	f043 0302 	orr.w	r3, r3, #2
 8001e20:	f8c2 30e0 	str.w	r3, [r2, #224]	; 0xe0
 8001e24:	4b27      	ldr	r3, [pc, #156]	; (8001ec4 <HAL_TIM_MspPostInit+0xf0>)
 8001e26:	f8d3 30e0 	ldr.w	r3, [r3, #224]	; 0xe0
 8001e2a:	f003 0302 	and.w	r3, r3, #2
 8001e2e:	60fb      	str	r3, [r7, #12]
 8001e30:	68fb      	ldr	r3, [r7, #12]
    __HAL_RCC_GPIOA_CLK_ENABLE();
 8001e32:	4b24      	ldr	r3, [pc, #144]	; (8001ec4 <HAL_TIM_MspPostInit+0xf0>)
 8001e34:	f8d3 30e0 	ldr.w	r3, [r3, #224]	; 0xe0
 8001e38:	4a22      	ldr	r2, [pc, #136]	; (8001ec4 <HAL_TIM_MspPostInit+0xf0>)
 8001e3a:	f043 0301 	orr.w	r3, r3, #1
 8001e3e:	f8c2 30e0 	str.w	r3, [r2, #224]	; 0xe0
 8001e42:	4b20      	ldr	r3, [pc, #128]	; (8001ec4 <HAL_TIM_MspPostInit+0xf0>)
 8001e44:	f8d3 30e0 	ldr.w	r3, [r3, #224]	; 0xe0
 8001e48:	f003 0301 	and.w	r3, r3, #1
 8001e4c:	60bb      	str	r3, [r7, #8]
 8001e4e:	68bb      	ldr	r3, [r7, #8]
    PE12     ------> TIM1_CH3N
    PE13     ------> TIM1_CH3
    PB13     ------> TIM1_CH1N
    PA8     ------> TIM1_CH1
    */
    GPIO_InitStruct.Pin = GPIO_PIN_10|GPIO_PIN_11|GPIO_PIN_12|GPIO_PIN_13;
 8001e50:	f44f 5370 	mov.w	r3, #15360	; 0x3c00
 8001e54:	617b      	str	r3, [r7, #20]
    GPIO_InitStruct.Mode = GPIO_MODE_AF_PP;
 8001e56:	2302      	movs	r3, #2
 8001e58:	61bb      	str	r3, [r7, #24]
    GPIO_InitStruct.Pull = GPIO_NOPULL;
 8001e5a:	2300      	movs	r3, #0
 8001e5c:	61fb      	str	r3, [r7, #28]
    GPIO_InitStruct.Speed = GPIO_SPEED_FREQ_LOW;
 8001e5e:	2300      	movs	r3, #0
 8001e60:	623b      	str	r3, [r7, #32]
    GPIO_InitStruct.Alternate = GPIO_AF1_TIM1;
 8001e62:	2301      	movs	r3, #1
 8001e64:	627b      	str	r3, [r7, #36]	; 0x24
    HAL_GPIO_Init(GPIOE, &GPIO_InitStruct);
 8001e66:	f107 0314 	add.w	r3, r7, #20
 8001e6a:	4619      	mov	r1, r3
 8001e6c:	4816      	ldr	r0, [pc, #88]	; (8001ec8 <HAL_TIM_MspPostInit+0xf4>)
 8001e6e:	f004 fb5d 	bl	800652c <HAL_GPIO_Init>

    GPIO_InitStruct.Pin = GPIO_PIN_13;
 8001e72:	f44f 5300 	mov.w	r3, #8192	; 0x2000
 8001e76:	617b      	str	r3, [r7, #20]
    GPIO_InitStruct.Mode = GPIO_MODE_AF_PP;
 8001e78:	2302      	movs	r3, #2
 8001e7a:	61bb      	str	r3, [r7, #24]
    GPIO_InitStruct.Pull = GPIO_NOPULL;
 8001e7c:	2300      	movs	r3, #0
 8001e7e:	61fb      	str	r3, [r7, #28]
    GPIO_InitStruct.Speed = GPIO_SPEED_FREQ_LOW;
 8001e80:	2300      	movs	r3, #0
 8001e82:	623b      	str	r3, [r7, #32]
    GPIO_InitStruct.Alternate = GPIO_AF1_TIM1;
 8001e84:	2301      	movs	r3, #1
 8001e86:	627b      	str	r3, [r7, #36]	; 0x24
    HAL_GPIO_Init(GPIOB, &GPIO_InitStruct);
 8001e88:	f107 0314 	add.w	r3, r7, #20
 8001e8c:	4619      	mov	r1, r3
 8001e8e:	480f      	ldr	r0, [pc, #60]	; (8001ecc <HAL_TIM_MspPostInit+0xf8>)
 8001e90:	f004 fb4c 	bl	800652c <HAL_GPIO_Init>

    GPIO_InitStruct.Pin = GPIO_PIN_8;
 8001e94:	f44f 7380 	mov.w	r3, #256	; 0x100
 8001e98:	617b      	str	r3, [r7, #20]
    GPIO_InitStruct.Mode = GPIO_MODE_AF_PP;
 8001e9a:	2302      	movs	r3, #2
 8001e9c:	61bb      	str	r3, [r7, #24]
    GPIO_InitStruct.Pull = GPIO_NOPULL;
 8001e9e:	2300      	movs	r3, #0
 8001ea0:	61fb      	str	r3, [r7, #28]
    GPIO_InitStruct.Speed = GPIO_SPEED_FREQ_LOW;
 8001ea2:	2300      	movs	r3, #0
 8001ea4:	623b      	str	r3, [r7, #32]
    GPIO_InitStruct.Alternate = GPIO_AF1_TIM1;
 8001ea6:	2301      	movs	r3, #1
 8001ea8:	627b      	str	r3, [r7, #36]	; 0x24
    HAL_GPIO_Init(GPIOA, &GPIO_InitStruct);
 8001eaa:	f107 0314 	add.w	r3, r7, #20
 8001eae:	4619      	mov	r1, r3
 8001eb0:	4807      	ldr	r0, [pc, #28]	; (8001ed0 <HAL_TIM_MspPostInit+0xfc>)
 8001eb2:	f004 fb3b 	bl	800652c <HAL_GPIO_Init>
  /* USER CODE BEGIN TIM1_MspPostInit 1 */

  /* USER CODE END TIM1_MspPostInit 1 */
  }

}
 8001eb6:	bf00      	nop
 8001eb8:	3728      	adds	r7, #40	; 0x28
 8001eba:	46bd      	mov	sp, r7
 8001ebc:	bd80      	pop	{r7, pc}
 8001ebe:	bf00      	nop
 8001ec0:	40010000 	.word	0x40010000
 8001ec4:	58024400 	.word	0x58024400
 8001ec8:	58021000 	.word	0x58021000
 8001ecc:	58020400 	.word	0x58020400
 8001ed0:	58020000 	.word	0x58020000

08001ed4 <NMI_Handler>:
/******************************************************************************/
/**
  * @brief This function handles Non maskable interrupt.
  */
void NMI_Handler(void)
{
 8001ed4:	b480      	push	{r7}
 8001ed6:	af00      	add	r7, sp, #0
  /* USER CODE BEGIN NonMaskableInt_IRQn 0 */

  /* USER CODE END NonMaskableInt_IRQn 0 */
  /* USER CODE BEGIN NonMaskableInt_IRQn 1 */
  while (1)
 8001ed8:	e7fe      	b.n	8001ed8 <NMI_Handler+0x4>

08001eda <HardFault_Handler>:

/**
  * @brief This function handles Hard fault interrupt.
  */
void HardFault_Handler(void)
{
 8001eda:	b480      	push	{r7}
 8001edc:	af00      	add	r7, sp, #0
  /* USER CODE BEGIN HardFault_IRQn 0 */

  /* USER CODE END HardFault_IRQn 0 */
  while (1)
 8001ede:	e7fe      	b.n	8001ede <HardFault_Handler+0x4>

08001ee0 <MemManage_Handler>:

/**
  * @brief This function handles Memory management fault.
  */
void MemManage_Handler(void)
{
 8001ee0:	b480      	push	{r7}
 8001ee2:	af00      	add	r7, sp, #0
  /* USER CODE BEGIN MemoryManagement_IRQn 0 */

  /* USER CODE END MemoryManagement_IRQn 0 */
  while (1)
 8001ee4:	e7fe      	b.n	8001ee4 <MemManage_Handler+0x4>

08001ee6 <BusFault_Handler>:

/**
  * @brief This function handles Pre-fetch fault, memory access fault.
  */
void BusFault_Handler(void)
{
 8001ee6:	b480      	push	{r7}
 8001ee8:	af00      	add	r7, sp, #0
  /* USER CODE BEGIN BusFault_IRQn 0 */

  /* USER CODE END BusFault_IRQn 0 */
  while (1)
 8001eea:	e7fe      	b.n	8001eea <BusFault_Handler+0x4>

08001eec <UsageFault_Handler>:

/**
  * @brief This function handles Undefined instruction or illegal state.
  */
void UsageFault_Handler(void)
{
 8001eec:	b480      	push	{r7}
 8001eee:	af00      	add	r7, sp, #0
  /* USER CODE BEGIN UsageFault_IRQn 0 */

  /* USER CODE END UsageFault_IRQn 0 */
  while (1)
 8001ef0:	e7fe      	b.n	8001ef0 <UsageFault_Handler+0x4>

08001ef2 <SVC_Handler>:

/**
  * @brief This function handles System service call via SWI instruction.
  */
void SVC_Handler(void)
{
 8001ef2:	b480      	push	{r7}
 8001ef4:	af00      	add	r7, sp, #0

  /* USER CODE END SVCall_IRQn 0 */
  /* USER CODE BEGIN SVCall_IRQn 1 */

  /* USER CODE END SVCall_IRQn 1 */
}
 8001ef6:	bf00      	nop
 8001ef8:	46bd      	mov	sp, r7
 8001efa:	f85d 7b04 	ldr.w	r7, [sp], #4
 8001efe:	4770      	bx	lr

08001f00 <DebugMon_Handler>:

/**
  * @brief This function handles Debug monitor.
  */
void DebugMon_Handler(void)
{
 8001f00:	b480      	push	{r7}
 8001f02:	af00      	add	r7, sp, #0

  /* USER CODE END DebugMonitor_IRQn 0 */
  /* USER CODE BEGIN DebugMonitor_IRQn 1 */

  /* USER CODE END DebugMonitor_IRQn 1 */
}
 8001f04:	bf00      	nop
 8001f06:	46bd      	mov	sp, r7
 8001f08:	f85d 7b04 	ldr.w	r7, [sp], #4
 8001f0c:	4770      	bx	lr

08001f0e <PendSV_Handler>:

/**
  * @brief This function handles Pendable request for system service.
  */
void PendSV_Handler(void)
{
 8001f0e:	b480      	push	{r7}
 8001f10:	af00      	add	r7, sp, #0

  /* USER CODE END PendSV_IRQn 0 */
  /* USER CODE BEGIN PendSV_IRQn 1 */

  /* USER CODE END PendSV_IRQn 1 */
}
 8001f12:	bf00      	nop
 8001f14:	46bd      	mov	sp, r7
 8001f16:	f85d 7b04 	ldr.w	r7, [sp], #4
 8001f1a:	4770      	bx	lr

08001f1c <SysTick_Handler>:

/**
  * @brief This function handles System tick timer.
  */
void SysTick_Handler(void)
{
 8001f1c:	b580      	push	{r7, lr}
 8001f1e:	af00      	add	r7, sp, #0
  /* USER CODE BEGIN SysTick_IRQn 0 */

  /* USER CODE END SysTick_IRQn 0 */
  HAL_IncTick();
 8001f20:	f000 fa18 	bl	8002354 <HAL_IncTick>
  /* USER CODE BEGIN SysTick_IRQn 1 */

  /* USER CODE END SysTick_IRQn 1 */
}
 8001f24:	bf00      	nop
 8001f26:	bd80      	pop	{r7, pc}

08001f28 <DMA1_Stream0_IRQHandler>:

/**
  * @brief This function handles DMA1 stream0 global interrupt.
  */
void DMA1_Stream0_IRQHandler(void)
{
 8001f28:	b580      	push	{r7, lr}
 8001f2a:	af00      	add	r7, sp, #0
  /* USER CODE BEGIN DMA1_Stream0_IRQn 0 */

  /* USER CODE END DMA1_Stream0_IRQn 0 */
  HAL_DMA_IRQHandler(&hdma_adc1);
 8001f2c:	4802      	ldr	r0, [pc, #8]	; (8001f38 <DMA1_Stream0_IRQHandler+0x10>)
 8001f2e:	f002 ffeb 	bl	8004f08 <HAL_DMA_IRQHandler>
  /* USER CODE BEGIN DMA1_Stream0_IRQn 1 */

  /* USER CODE END DMA1_Stream0_IRQn 1 */
}
 8001f32:	bf00      	nop
 8001f34:	bd80      	pop	{r7, pc}
 8001f36:	bf00      	nop
 8001f38:	24000744 	.word	0x24000744

08001f3c <ADC_IRQHandler>:

/**
  * @brief This function handles ADC1 and ADC2 global interrupts.
  */
void ADC_IRQHandler(void)
{
 8001f3c:	b580      	push	{r7, lr}
 8001f3e:	af00      	add	r7, sp, #0
  /* USER CODE BEGIN ADC_IRQn 0 */

  /* USER CODE END ADC_IRQn 0 */
  HAL_ADC_IRQHandler(&hadc1);
 8001f40:	4802      	ldr	r0, [pc, #8]	; (8001f4c <ADC_IRQHandler+0x10>)
 8001f42:	f000 ff0d 	bl	8002d60 <HAL_ADC_IRQHandler>
  /* USER CODE BEGIN ADC_IRQn 1 */

  /* USER CODE END ADC_IRQn 1 */
}
 8001f46:	bf00      	nop
 8001f48:	bd80      	pop	{r7, pc}
 8001f4a:	bf00      	nop
 8001f4c:	240006d8 	.word	0x240006d8

08001f50 <EXTI15_10_IRQHandler>:

/**
  * @brief This function handles EXTI line[15:10] interrupts.
  */
void EXTI15_10_IRQHandler(void)
{
 8001f50:	b580      	push	{r7, lr}
 8001f52:	af00      	add	r7, sp, #0
  /* USER CODE BEGIN EXTI15_10_IRQn 0 */

  /* USER CODE END EXTI15_10_IRQn 0 */
  HAL_GPIO_EXTI_IRQHandler(GPIO_PIN_10);
 8001f54:	f44f 6080 	mov.w	r0, #1024	; 0x400
 8001f58:	f004 fccb 	bl	80068f2 <HAL_GPIO_EXTI_IRQHandler>
  HAL_GPIO_EXTI_IRQHandler(GPIO_PIN_11);
 8001f5c:	f44f 6000 	mov.w	r0, #2048	; 0x800
 8001f60:	f004 fcc7 	bl	80068f2 <HAL_GPIO_EXTI_IRQHandler>
  HAL_GPIO_EXTI_IRQHandler(GPIO_PIN_14);
 8001f64:	f44f 4080 	mov.w	r0, #16384	; 0x4000
 8001f68:	f004 fcc3 	bl	80068f2 <HAL_GPIO_EXTI_IRQHandler>
  HAL_GPIO_EXTI_IRQHandler(GPIO_PIN_15);
 8001f6c:	f44f 4000 	mov.w	r0, #32768	; 0x8000
 8001f70:	f004 fcbf 	bl	80068f2 <HAL_GPIO_EXTI_IRQHandler>
  /* USER CODE BEGIN EXTI15_10_IRQn 1 */

  /* USER CODE END EXTI15_10_IRQn 1 */
}
 8001f74:	bf00      	nop
 8001f76:	bd80      	pop	{r7, pc}

08001f78 <_getpid>:
void initialise_monitor_handles()
{
}

int _getpid(void)
{
 8001f78:	b480      	push	{r7}
 8001f7a:	af00      	add	r7, sp, #0
	return 1;
 8001f7c:	2301      	movs	r3, #1
}
 8001f7e:	4618      	mov	r0, r3
 8001f80:	46bd      	mov	sp, r7
 8001f82:	f85d 7b04 	ldr.w	r7, [sp], #4
 8001f86:	4770      	bx	lr

08001f88 <_kill>:

int _kill(int pid, int sig)
{
 8001f88:	b580      	push	{r7, lr}
 8001f8a:	b082      	sub	sp, #8
 8001f8c:	af00      	add	r7, sp, #0
 8001f8e:	6078      	str	r0, [r7, #4]
 8001f90:	6039      	str	r1, [r7, #0]
	errno = EINVAL;
 8001f92:	f00a fc57 	bl	800c844 <__errno>
 8001f96:	4603      	mov	r3, r0
 8001f98:	2216      	movs	r2, #22
 8001f9a:	601a      	str	r2, [r3, #0]
	return -1;
 8001f9c:	f04f 33ff 	mov.w	r3, #4294967295
}
 8001fa0:	4618      	mov	r0, r3
 8001fa2:	3708      	adds	r7, #8
 8001fa4:	46bd      	mov	sp, r7
 8001fa6:	bd80      	pop	{r7, pc}

08001fa8 <_exit>:

void _exit (int status)
{
 8001fa8:	b580      	push	{r7, lr}
 8001faa:	b082      	sub	sp, #8
 8001fac:	af00      	add	r7, sp, #0
 8001fae:	6078      	str	r0, [r7, #4]
	_kill(status, -1);
 8001fb0:	f04f 31ff 	mov.w	r1, #4294967295
 8001fb4:	6878      	ldr	r0, [r7, #4]
 8001fb6:	f7ff ffe7 	bl	8001f88 <_kill>
	while (1) {}		/* Make sure we hang here */
 8001fba:	e7fe      	b.n	8001fba <_exit+0x12>

08001fbc <_read>:
}

__attribute__((weak)) int _read(int file, char *ptr, int len)
{
 8001fbc:	b580      	push	{r7, lr}
 8001fbe:	b086      	sub	sp, #24
 8001fc0:	af00      	add	r7, sp, #0
 8001fc2:	60f8      	str	r0, [r7, #12]
 8001fc4:	60b9      	str	r1, [r7, #8]
 8001fc6:	607a      	str	r2, [r7, #4]
	int DataIdx;

	for (DataIdx = 0; DataIdx < len; DataIdx++)
 8001fc8:	2300      	movs	r3, #0
 8001fca:	617b      	str	r3, [r7, #20]
 8001fcc:	e00a      	b.n	8001fe4 <_read+0x28>
	{
		*ptr++ = __io_getchar();
 8001fce:	f3af 8000 	nop.w
 8001fd2:	4601      	mov	r1, r0
 8001fd4:	68bb      	ldr	r3, [r7, #8]
 8001fd6:	1c5a      	adds	r2, r3, #1
 8001fd8:	60ba      	str	r2, [r7, #8]
 8001fda:	b2ca      	uxtb	r2, r1
 8001fdc:	701a      	strb	r2, [r3, #0]
	for (DataIdx = 0; DataIdx < len; DataIdx++)
 8001fde:	697b      	ldr	r3, [r7, #20]
 8001fe0:	3301      	adds	r3, #1
 8001fe2:	617b      	str	r3, [r7, #20]
 8001fe4:	697a      	ldr	r2, [r7, #20]
 8001fe6:	687b      	ldr	r3, [r7, #4]
 8001fe8:	429a      	cmp	r2, r3
 8001fea:	dbf0      	blt.n	8001fce <_read+0x12>
	}

return len;
 8001fec:	687b      	ldr	r3, [r7, #4]
}
 8001fee:	4618      	mov	r0, r3
 8001ff0:	3718      	adds	r7, #24
 8001ff2:	46bd      	mov	sp, r7
 8001ff4:	bd80      	pop	{r7, pc}

08001ff6 <_write>:

__attribute__((weak)) int _write(int file, char *ptr, int len)
{
 8001ff6:	b580      	push	{r7, lr}
 8001ff8:	b086      	sub	sp, #24
 8001ffa:	af00      	add	r7, sp, #0
 8001ffc:	60f8      	str	r0, [r7, #12]
 8001ffe:	60b9      	str	r1, [r7, #8]
 8002000:	607a      	str	r2, [r7, #4]
	int DataIdx;

	for (DataIdx = 0; DataIdx < len; DataIdx++)
 8002002:	2300      	movs	r3, #0
 8002004:	617b      	str	r3, [r7, #20]
 8002006:	e009      	b.n	800201c <_write+0x26>
	{
		__io_putchar(*ptr++);
 8002008:	68bb      	ldr	r3, [r7, #8]
 800200a:	1c5a      	adds	r2, r3, #1
 800200c:	60ba      	str	r2, [r7, #8]
 800200e:	781b      	ldrb	r3, [r3, #0]
 8002010:	4618      	mov	r0, r3
 8002012:	f3af 8000 	nop.w
	for (DataIdx = 0; DataIdx < len; DataIdx++)
 8002016:	697b      	ldr	r3, [r7, #20]
 8002018:	3301      	adds	r3, #1
 800201a:	617b      	str	r3, [r7, #20]
 800201c:	697a      	ldr	r2, [r7, #20]
 800201e:	687b      	ldr	r3, [r7, #4]
 8002020:	429a      	cmp	r2, r3
 8002022:	dbf1      	blt.n	8002008 <_write+0x12>
	}
	return len;
 8002024:	687b      	ldr	r3, [r7, #4]
}
 8002026:	4618      	mov	r0, r3
 8002028:	3718      	adds	r7, #24
 800202a:	46bd      	mov	sp, r7
 800202c:	bd80      	pop	{r7, pc}

0800202e <_close>:

int _close(int file)
{
 800202e:	b480      	push	{r7}
 8002030:	b083      	sub	sp, #12
 8002032:	af00      	add	r7, sp, #0
 8002034:	6078      	str	r0, [r7, #4]
	return -1;
 8002036:	f04f 33ff 	mov.w	r3, #4294967295
}
 800203a:	4618      	mov	r0, r3
 800203c:	370c      	adds	r7, #12
 800203e:	46bd      	mov	sp, r7
 8002040:	f85d 7b04 	ldr.w	r7, [sp], #4
 8002044:	4770      	bx	lr

08002046 <_fstat>:


int _fstat(int file, struct stat *st)
{
 8002046:	b480      	push	{r7}
 8002048:	b083      	sub	sp, #12
 800204a:	af00      	add	r7, sp, #0
 800204c:	6078      	str	r0, [r7, #4]
 800204e:	6039      	str	r1, [r7, #0]
	st->st_mode = S_IFCHR;
 8002050:	683b      	ldr	r3, [r7, #0]
 8002052:	f44f 5200 	mov.w	r2, #8192	; 0x2000
 8002056:	605a      	str	r2, [r3, #4]
	return 0;
 8002058:	2300      	movs	r3, #0
}
 800205a:	4618      	mov	r0, r3
 800205c:	370c      	adds	r7, #12
 800205e:	46bd      	mov	sp, r7
 8002060:	f85d 7b04 	ldr.w	r7, [sp], #4
 8002064:	4770      	bx	lr

08002066 <_isatty>:

int _isatty(int file)
{
 8002066:	b480      	push	{r7}
 8002068:	b083      	sub	sp, #12
 800206a:	af00      	add	r7, sp, #0
 800206c:	6078      	str	r0, [r7, #4]
	return 1;
 800206e:	2301      	movs	r3, #1
}
 8002070:	4618      	mov	r0, r3
 8002072:	370c      	adds	r7, #12
 8002074:	46bd      	mov	sp, r7
 8002076:	f85d 7b04 	ldr.w	r7, [sp], #4
 800207a:	4770      	bx	lr

0800207c <_lseek>:

int _lseek(int file, int ptr, int dir)
{
 800207c:	b480      	push	{r7}
 800207e:	b085      	sub	sp, #20
 8002080:	af00      	add	r7, sp, #0
 8002082:	60f8      	str	r0, [r7, #12]
 8002084:	60b9      	str	r1, [r7, #8]
 8002086:	607a      	str	r2, [r7, #4]
	return 0;
 8002088:	2300      	movs	r3, #0
}
 800208a:	4618      	mov	r0, r3
 800208c:	3714      	adds	r7, #20
 800208e:	46bd      	mov	sp, r7
 8002090:	f85d 7b04 	ldr.w	r7, [sp], #4
 8002094:	4770      	bx	lr
	...

08002098 <_sbrk>:
 *
 * @param incr Memory size
 * @return Pointer to allocated memory
 */
void *_sbrk(ptrdiff_t incr)
{
 8002098:	b580      	push	{r7, lr}
 800209a:	b086      	sub	sp, #24
 800209c:	af00      	add	r7, sp, #0
 800209e:	6078      	str	r0, [r7, #4]
  extern uint8_t _end; /* Symbol defined in the linker script */
  extern uint8_t _estack; /* Symbol defined in the linker script */
  extern uint32_t _Min_Stack_Size; /* Symbol defined in the linker script */
  const uint32_t stack_limit = (uint32_t)&_estack - (uint32_t)&_Min_Stack_Size;
 80020a0:	4a14      	ldr	r2, [pc, #80]	; (80020f4 <_sbrk+0x5c>)
 80020a2:	4b15      	ldr	r3, [pc, #84]	; (80020f8 <_sbrk+0x60>)
 80020a4:	1ad3      	subs	r3, r2, r3
 80020a6:	617b      	str	r3, [r7, #20]
  const uint8_t *max_heap = (uint8_t *)stack_limit;
 80020a8:	697b      	ldr	r3, [r7, #20]
 80020aa:	613b      	str	r3, [r7, #16]
  uint8_t *prev_heap_end;

  /* Initialize heap end at first call */
  if (NULL == __sbrk_heap_end)
 80020ac:	4b13      	ldr	r3, [pc, #76]	; (80020fc <_sbrk+0x64>)
 80020ae:	681b      	ldr	r3, [r3, #0]
 80020b0:	2b00      	cmp	r3, #0
 80020b2:	d102      	bne.n	80020ba <_sbrk+0x22>
  {
    __sbrk_heap_end = &_end;
 80020b4:	4b11      	ldr	r3, [pc, #68]	; (80020fc <_sbrk+0x64>)
 80020b6:	4a12      	ldr	r2, [pc, #72]	; (8002100 <_sbrk+0x68>)
 80020b8:	601a      	str	r2, [r3, #0]
  }

  /* Protect heap from growing into the reserved MSP stack */
  if (__sbrk_heap_end + incr > max_heap)
 80020ba:	4b10      	ldr	r3, [pc, #64]	; (80020fc <_sbrk+0x64>)
 80020bc:	681a      	ldr	r2, [r3, #0]
 80020be:	687b      	ldr	r3, [r7, #4]
 80020c0:	4413      	add	r3, r2
 80020c2:	693a      	ldr	r2, [r7, #16]
 80020c4:	429a      	cmp	r2, r3
 80020c6:	d207      	bcs.n	80020d8 <_sbrk+0x40>
  {
    errno = ENOMEM;
 80020c8:	f00a fbbc 	bl	800c844 <__errno>
 80020cc:	4603      	mov	r3, r0
 80020ce:	220c      	movs	r2, #12
 80020d0:	601a      	str	r2, [r3, #0]
    return (void *)-1;
 80020d2:	f04f 33ff 	mov.w	r3, #4294967295
 80020d6:	e009      	b.n	80020ec <_sbrk+0x54>
  }

  prev_heap_end = __sbrk_heap_end;
 80020d8:	4b08      	ldr	r3, [pc, #32]	; (80020fc <_sbrk+0x64>)
 80020da:	681b      	ldr	r3, [r3, #0]
 80020dc:	60fb      	str	r3, [r7, #12]
  __sbrk_heap_end += incr;
 80020de:	4b07      	ldr	r3, [pc, #28]	; (80020fc <_sbrk+0x64>)
 80020e0:	681a      	ldr	r2, [r3, #0]
 80020e2:	687b      	ldr	r3, [r7, #4]
 80020e4:	4413      	add	r3, r2
 80020e6:	4a05      	ldr	r2, [pc, #20]	; (80020fc <_sbrk+0x64>)
 80020e8:	6013      	str	r3, [r2, #0]

  return (void *)prev_heap_end;
 80020ea:	68fb      	ldr	r3, [r7, #12]
}
 80020ec:	4618      	mov	r0, r3
 80020ee:	3718      	adds	r7, #24
 80020f0:	46bd      	mov	sp, r7
 80020f2:	bd80      	pop	{r7, pc}
 80020f4:	24080000 	.word	0x24080000
 80020f8:	00000400 	.word	0x00000400
 80020fc:	24000244 	.word	0x24000244
 8002100:	24000908 	.word	0x24000908

08002104 <SystemInit>:
  *         configuration.
  * @param  None
  * @retval None
  */
void SystemInit (void)
{
 8002104:	b480      	push	{r7}
 8002106:	af00      	add	r7, sp, #0
 __IO uint32_t tmpreg;
#endif /* DATA_IN_D2_SRAM */

  /* FPU settings ------------------------------------------------------------*/
  #if (__FPU_PRESENT == 1) && (__FPU_USED == 1)
    SCB->CPACR |= ((3UL << (10*2))|(3UL << (11*2)));  /* set CP10 and CP11 Full Access */
 8002108:	4b39      	ldr	r3, [pc, #228]	; (80021f0 <SystemInit+0xec>)
 800210a:	f8d3 3088 	ldr.w	r3, [r3, #136]	; 0x88
 800210e:	4a38      	ldr	r2, [pc, #224]	; (80021f0 <SystemInit+0xec>)
 8002110:	f443 0370 	orr.w	r3, r3, #15728640	; 0xf00000
 8002114:	f8c2 3088 	str.w	r3, [r2, #136]	; 0x88
  #endif
  /* Reset the RCC clock configuration to the default reset state ------------*/

   /* Increasing the CPU frequency */
  if(FLASH_LATENCY_DEFAULT  > (READ_BIT((FLASH->ACR), FLASH_ACR_LATENCY)))
 8002118:	4b36      	ldr	r3, [pc, #216]	; (80021f4 <SystemInit+0xf0>)
 800211a:	681b      	ldr	r3, [r3, #0]
 800211c:	f003 030f 	and.w	r3, r3, #15
 8002120:	2b06      	cmp	r3, #6
 8002122:	d807      	bhi.n	8002134 <SystemInit+0x30>
  {
    /* Program the new number of wait states to the LATENCY bits in the FLASH_ACR register */
	MODIFY_REG(FLASH->ACR, FLASH_ACR_LATENCY, (uint32_t)(FLASH_LATENCY_DEFAULT));
 8002124:	4b33      	ldr	r3, [pc, #204]	; (80021f4 <SystemInit+0xf0>)
 8002126:	681b      	ldr	r3, [r3, #0]
 8002128:	f023 030f 	bic.w	r3, r3, #15
 800212c:	4a31      	ldr	r2, [pc, #196]	; (80021f4 <SystemInit+0xf0>)
 800212e:	f043 0307 	orr.w	r3, r3, #7
 8002132:	6013      	str	r3, [r2, #0]
  }

  /* Set HSION bit */
  RCC->CR |= RCC_CR_HSION;
 8002134:	4b30      	ldr	r3, [pc, #192]	; (80021f8 <SystemInit+0xf4>)
 8002136:	681b      	ldr	r3, [r3, #0]
 8002138:	4a2f      	ldr	r2, [pc, #188]	; (80021f8 <SystemInit+0xf4>)
 800213a:	f043 0301 	orr.w	r3, r3, #1
 800213e:	6013      	str	r3, [r2, #0]

  /* Reset CFGR register */
  RCC->CFGR = 0x00000000;
 8002140:	4b2d      	ldr	r3, [pc, #180]	; (80021f8 <SystemInit+0xf4>)
 8002142:	2200      	movs	r2, #0
 8002144:	611a      	str	r2, [r3, #16]

  /* Reset HSEON, HSECSSON, CSION, HSI48ON, CSIKERON, PLL1ON, PLL2ON and PLL3ON bits */
  RCC->CR &= 0xEAF6ED7FU;
 8002146:	4b2c      	ldr	r3, [pc, #176]	; (80021f8 <SystemInit+0xf4>)
 8002148:	681a      	ldr	r2, [r3, #0]
 800214a:	492b      	ldr	r1, [pc, #172]	; (80021f8 <SystemInit+0xf4>)
 800214c:	4b2b      	ldr	r3, [pc, #172]	; (80021fc <SystemInit+0xf8>)
 800214e:	4013      	ands	r3, r2
 8002150:	600b      	str	r3, [r1, #0]
  
   /* Decreasing the number of wait states because of lower CPU frequency */
  if(FLASH_LATENCY_DEFAULT  < (READ_BIT((FLASH->ACR), FLASH_ACR_LATENCY)))
 8002152:	4b28      	ldr	r3, [pc, #160]	; (80021f4 <SystemInit+0xf0>)
 8002154:	681b      	ldr	r3, [r3, #0]
 8002156:	f003 0308 	and.w	r3, r3, #8
 800215a:	2b00      	cmp	r3, #0
 800215c:	d007      	beq.n	800216e <SystemInit+0x6a>
  {
    /* Program the new number of wait states to the LATENCY bits in the FLASH_ACR register */
	MODIFY_REG(FLASH->ACR, FLASH_ACR_LATENCY, (uint32_t)(FLASH_LATENCY_DEFAULT));
 800215e:	4b25      	ldr	r3, [pc, #148]	; (80021f4 <SystemInit+0xf0>)
 8002160:	681b      	ldr	r3, [r3, #0]
 8002162:	f023 030f 	bic.w	r3, r3, #15
 8002166:	4a23      	ldr	r2, [pc, #140]	; (80021f4 <SystemInit+0xf0>)
 8002168:	f043 0307 	orr.w	r3, r3, #7
 800216c:	6013      	str	r3, [r2, #0]
  }

#if defined(D3_SRAM_BASE)
  /* Reset D1CFGR register */
  RCC->D1CFGR = 0x00000000;
 800216e:	4b22      	ldr	r3, [pc, #136]	; (80021f8 <SystemInit+0xf4>)
 8002170:	2200      	movs	r2, #0
 8002172:	619a      	str	r2, [r3, #24]

  /* Reset D2CFGR register */
  RCC->D2CFGR = 0x00000000;
 8002174:	4b20      	ldr	r3, [pc, #128]	; (80021f8 <SystemInit+0xf4>)
 8002176:	2200      	movs	r2, #0
 8002178:	61da      	str	r2, [r3, #28]

  /* Reset D3CFGR register */
  RCC->D3CFGR = 0x00000000;
 800217a:	4b1f      	ldr	r3, [pc, #124]	; (80021f8 <SystemInit+0xf4>)
 800217c:	2200      	movs	r2, #0
 800217e:	621a      	str	r2, [r3, #32]

  /* Reset SRDCFGR register */
  RCC->SRDCFGR = 0x00000000;
#endif
  /* Reset PLLCKSELR register */
  RCC->PLLCKSELR = 0x02020200;
 8002180:	4b1d      	ldr	r3, [pc, #116]	; (80021f8 <SystemInit+0xf4>)
 8002182:	4a1f      	ldr	r2, [pc, #124]	; (8002200 <SystemInit+0xfc>)
 8002184:	629a      	str	r2, [r3, #40]	; 0x28

  /* Reset PLLCFGR register */
  RCC->PLLCFGR = 0x01FF0000;
 8002186:	4b1c      	ldr	r3, [pc, #112]	; (80021f8 <SystemInit+0xf4>)
 8002188:	4a1e      	ldr	r2, [pc, #120]	; (8002204 <SystemInit+0x100>)
 800218a:	62da      	str	r2, [r3, #44]	; 0x2c
  /* Reset PLL1DIVR register */
  RCC->PLL1DIVR = 0x01010280;
 800218c:	4b1a      	ldr	r3, [pc, #104]	; (80021f8 <SystemInit+0xf4>)
 800218e:	4a1e      	ldr	r2, [pc, #120]	; (8002208 <SystemInit+0x104>)
 8002190:	631a      	str	r2, [r3, #48]	; 0x30
  /* Reset PLL1FRACR register */
  RCC->PLL1FRACR = 0x00000000;
 8002192:	4b19      	ldr	r3, [pc, #100]	; (80021f8 <SystemInit+0xf4>)
 8002194:	2200      	movs	r2, #0
 8002196:	635a      	str	r2, [r3, #52]	; 0x34

  /* Reset PLL2DIVR register */
  RCC->PLL2DIVR = 0x01010280;
 8002198:	4b17      	ldr	r3, [pc, #92]	; (80021f8 <SystemInit+0xf4>)
 800219a:	4a1b      	ldr	r2, [pc, #108]	; (8002208 <SystemInit+0x104>)
 800219c:	639a      	str	r2, [r3, #56]	; 0x38

  /* Reset PLL2FRACR register */

  RCC->PLL2FRACR = 0x00000000;
 800219e:	4b16      	ldr	r3, [pc, #88]	; (80021f8 <SystemInit+0xf4>)
 80021a0:	2200      	movs	r2, #0
 80021a2:	63da      	str	r2, [r3, #60]	; 0x3c
  /* Reset PLL3DIVR register */
  RCC->PLL3DIVR = 0x01010280;
 80021a4:	4b14      	ldr	r3, [pc, #80]	; (80021f8 <SystemInit+0xf4>)
 80021a6:	4a18      	ldr	r2, [pc, #96]	; (8002208 <SystemInit+0x104>)
 80021a8:	641a      	str	r2, [r3, #64]	; 0x40

  /* Reset PLL3FRACR register */
  RCC->PLL3FRACR = 0x00000000;
 80021aa:	4b13      	ldr	r3, [pc, #76]	; (80021f8 <SystemInit+0xf4>)
 80021ac:	2200      	movs	r2, #0
 80021ae:	645a      	str	r2, [r3, #68]	; 0x44

  /* Reset HSEBYP bit */
  RCC->CR &= 0xFFFBFFFFU;
 80021b0:	4b11      	ldr	r3, [pc, #68]	; (80021f8 <SystemInit+0xf4>)
 80021b2:	681b      	ldr	r3, [r3, #0]
 80021b4:	4a10      	ldr	r2, [pc, #64]	; (80021f8 <SystemInit+0xf4>)
 80021b6:	f423 2380 	bic.w	r3, r3, #262144	; 0x40000
 80021ba:	6013      	str	r3, [r2, #0]

  /* Disable all interrupts */
  RCC->CIER = 0x00000000;
 80021bc:	4b0e      	ldr	r3, [pc, #56]	; (80021f8 <SystemInit+0xf4>)
 80021be:	2200      	movs	r2, #0
 80021c0:	661a      	str	r2, [r3, #96]	; 0x60

#if (STM32H7_DEV_ID == 0x450UL)
  /* dual core CM7 or single core line */
  if((DBGMCU->IDCODE & 0xFFFF0000U) < 0x20000000U)
 80021c2:	4b12      	ldr	r3, [pc, #72]	; (800220c <SystemInit+0x108>)
 80021c4:	681a      	ldr	r2, [r3, #0]
 80021c6:	4b12      	ldr	r3, [pc, #72]	; (8002210 <SystemInit+0x10c>)
 80021c8:	4013      	ands	r3, r2
 80021ca:	f1b3 5f00 	cmp.w	r3, #536870912	; 0x20000000
 80021ce:	d202      	bcs.n	80021d6 <SystemInit+0xd2>
  {
    /* if stm32h7 revY*/
    /* Change  the switch matrix read issuing capability to 1 for the AXI SRAM target (Target 7) */
    *((__IO uint32_t*)0x51008108) = 0x000000001U;
 80021d0:	4b10      	ldr	r3, [pc, #64]	; (8002214 <SystemInit+0x110>)
 80021d2:	2201      	movs	r2, #1
 80021d4:	601a      	str	r2, [r3, #0]
  /*
   * Disable the FMC bank1 (enabled after reset).
   * This, prevents CPU speculation access on this bank which blocks the use of FMC during
   * 24us. During this time the others FMC master (such as LTDC) cannot use it!
   */
  FMC_Bank1_R->BTCR[0] = 0x000030D2;
 80021d6:	4b10      	ldr	r3, [pc, #64]	; (8002218 <SystemInit+0x114>)
 80021d8:	f243 02d2 	movw	r2, #12498	; 0x30d2
 80021dc:	601a      	str	r2, [r3, #0]

  /* Configure the Vector Table location add offset address for cortex-M7 ------------------*/
#ifdef VECT_TAB_SRAM
  SCB->VTOR = D1_AXISRAM_BASE  | VECT_TAB_OFFSET; /* Vector Table Relocation in Internal AXI-RAM */
#else
  SCB->VTOR = FLASH_BANK1_BASE | VECT_TAB_OFFSET; /* Vector Table Relocation in Internal FLASH */
 80021de:	4b04      	ldr	r3, [pc, #16]	; (80021f0 <SystemInit+0xec>)
 80021e0:	f04f 6200 	mov.w	r2, #134217728	; 0x8000000
 80021e4:	609a      	str	r2, [r3, #8]
#endif

#endif /*DUAL_CORE && CORE_CM4*/

}
 80021e6:	bf00      	nop
 80021e8:	46bd      	mov	sp, r7
 80021ea:	f85d 7b04 	ldr.w	r7, [sp], #4
 80021ee:	4770      	bx	lr
 80021f0:	e000ed00 	.word	0xe000ed00
 80021f4:	52002000 	.word	0x52002000
 80021f8:	58024400 	.word	0x58024400
 80021fc:	eaf6ed7f 	.word	0xeaf6ed7f
 8002200:	02020200 	.word	0x02020200
 8002204:	01ff0000 	.word	0x01ff0000
 8002208:	01010280 	.word	0x01010280
 800220c:	5c001000 	.word	0x5c001000
 8002210:	ffff0000 	.word	0xffff0000
 8002214:	51008108 	.word	0x51008108
 8002218:	52004000 	.word	0x52004000

0800221c <Reset_Handler>:

    .section  .text.Reset_Handler
  .weak  Reset_Handler
  .type  Reset_Handler, %function
Reset_Handler:
  ldr   sp, =_estack      /* set stack pointer */
 800221c:	f8df d034 	ldr.w	sp, [pc, #52]	; 8002254 <LoopFillZerobss+0xe>

/* Call the clock system initialization function.*/
  bl  SystemInit
 8002220:	f7ff ff70 	bl	8002104 <SystemInit>

/* Copy the data segment initializers from flash to SRAM */
  ldr r0, =_sdata
 8002224:	480c      	ldr	r0, [pc, #48]	; (8002258 <LoopFillZerobss+0x12>)
  ldr r1, =_edata
 8002226:	490d      	ldr	r1, [pc, #52]	; (800225c <LoopFillZerobss+0x16>)
  ldr r2, =_sidata
 8002228:	4a0d      	ldr	r2, [pc, #52]	; (8002260 <LoopFillZerobss+0x1a>)
  movs r3, #0
 800222a:	2300      	movs	r3, #0
  b LoopCopyDataInit
 800222c:	e002      	b.n	8002234 <LoopCopyDataInit>

0800222e <CopyDataInit>:

CopyDataInit:
  ldr r4, [r2, r3]
 800222e:	58d4      	ldr	r4, [r2, r3]
  str r4, [r0, r3]
 8002230:	50c4      	str	r4, [r0, r3]
  adds r3, r3, #4
 8002232:	3304      	adds	r3, #4

08002234 <LoopCopyDataInit>:

LoopCopyDataInit:
  adds r4, r0, r3
 8002234:	18c4      	adds	r4, r0, r3
  cmp r4, r1
 8002236:	428c      	cmp	r4, r1
  bcc CopyDataInit
 8002238:	d3f9      	bcc.n	800222e <CopyDataInit>
/* Zero fill the bss segment. */
  ldr r2, =_sbss
 800223a:	4a0a      	ldr	r2, [pc, #40]	; (8002264 <LoopFillZerobss+0x1e>)
  ldr r4, =_ebss
 800223c:	4c0a      	ldr	r4, [pc, #40]	; (8002268 <LoopFillZerobss+0x22>)
  movs r3, #0
 800223e:	2300      	movs	r3, #0
  b LoopFillZerobss
 8002240:	e001      	b.n	8002246 <LoopFillZerobss>

08002242 <FillZerobss>:

FillZerobss:
  str  r3, [r2]
 8002242:	6013      	str	r3, [r2, #0]
  adds r2, r2, #4
 8002244:	3204      	adds	r2, #4

08002246 <LoopFillZerobss>:

LoopFillZerobss:
  cmp r2, r4
 8002246:	42a2      	cmp	r2, r4
  bcc FillZerobss
 8002248:	d3fb      	bcc.n	8002242 <FillZerobss>

/* Call static constructors */
    bl __libc_init_array
 800224a:	f00a fb01 	bl	800c850 <__libc_init_array>
/* Call the application's entry point.*/
  bl  main
 800224e:	f7fe fdf9 	bl	8000e44 <main>
  bx  lr
 8002252:	4770      	bx	lr
  ldr   sp, =_estack      /* set stack pointer */
 8002254:	24080000 	.word	0x24080000
  ldr r0, =_sdata
 8002258:	24000000 	.word	0x24000000
  ldr r1, =_edata
 800225c:	240001ec 	.word	0x240001ec
  ldr r2, =_sidata
 8002260:	0800f54c 	.word	0x0800f54c
  ldr r2, =_sbss
 8002264:	240001ec 	.word	0x240001ec
  ldr r4, =_ebss
 8002268:	24000908 	.word	0x24000908

0800226c <ADC3_IRQHandler>:
 * @retval None
*/
    .section  .text.Default_Handler,"ax",%progbits
Default_Handler:
Infinite_Loop:
  b  Infinite_Loop
 800226c:	e7fe      	b.n	800226c <ADC3_IRQHandler>
	...

08002270 <HAL_Init>:
  *         need to ensure that the SysTick time base is always set to 1 millisecond
  *         to have correct HAL operation.
  * @retval HAL status
  */
HAL_StatusTypeDef HAL_Init(void)
{
 8002270:	b580      	push	{r7, lr}
 8002272:	b082      	sub	sp, #8
 8002274:	af00      	add	r7, sp, #0
   __HAL_ART_CONFIG_BASE_ADDRESS(0x08100000UL);  /* Configure the Cortex-M4 ART Base address to the Flash Bank 2 : */
   __HAL_ART_ENABLE();                           /* Enable the Cortex-M4 ART */
#endif /* DUAL_CORE &&  CORE_CM4 */

  /* Set Interrupt Group Priority */
  HAL_NVIC_SetPriorityGrouping(NVIC_PRIORITYGROUP_4);
 8002276:	2003      	movs	r0, #3
 8002278:	f002 f840 	bl	80042fc <HAL_NVIC_SetPriorityGrouping>

  /* Update the SystemCoreClock global variable */
#if defined(RCC_D1CFGR_D1CPRE)
  common_system_clock = HAL_RCC_GetSysClockFreq() >> ((D1CorePrescTable[(RCC->D1CFGR & RCC_D1CFGR_D1CPRE)>> RCC_D1CFGR_D1CPRE_Pos]) & 0x1FU);
 800227c:	f006 fcb8 	bl	8008bf0 <HAL_RCC_GetSysClockFreq>
 8002280:	4602      	mov	r2, r0
 8002282:	4b15      	ldr	r3, [pc, #84]	; (80022d8 <HAL_Init+0x68>)
 8002284:	699b      	ldr	r3, [r3, #24]
 8002286:	0a1b      	lsrs	r3, r3, #8
 8002288:	f003 030f 	and.w	r3, r3, #15
 800228c:	4913      	ldr	r1, [pc, #76]	; (80022dc <HAL_Init+0x6c>)
 800228e:	5ccb      	ldrb	r3, [r1, r3]
 8002290:	f003 031f 	and.w	r3, r3, #31
 8002294:	fa22 f303 	lsr.w	r3, r2, r3
 8002298:	607b      	str	r3, [r7, #4]
  common_system_clock = HAL_RCC_GetSysClockFreq() >> ((D1CorePrescTable[(RCC->CDCFGR1 & RCC_CDCFGR1_CDCPRE)>> RCC_CDCFGR1_CDCPRE_Pos]) & 0x1FU);
#endif

  /* Update the SystemD2Clock global variable */
#if defined(RCC_D1CFGR_HPRE)
  SystemD2Clock = (common_system_clock >> ((D1CorePrescTable[(RCC->D1CFGR & RCC_D1CFGR_HPRE)>> RCC_D1CFGR_HPRE_Pos]) & 0x1FU));
 800229a:	4b0f      	ldr	r3, [pc, #60]	; (80022d8 <HAL_Init+0x68>)
 800229c:	699b      	ldr	r3, [r3, #24]
 800229e:	f003 030f 	and.w	r3, r3, #15
 80022a2:	4a0e      	ldr	r2, [pc, #56]	; (80022dc <HAL_Init+0x6c>)
 80022a4:	5cd3      	ldrb	r3, [r2, r3]
 80022a6:	f003 031f 	and.w	r3, r3, #31
 80022aa:	687a      	ldr	r2, [r7, #4]
 80022ac:	fa22 f303 	lsr.w	r3, r2, r3
 80022b0:	4a0b      	ldr	r2, [pc, #44]	; (80022e0 <HAL_Init+0x70>)
 80022b2:	6013      	str	r3, [r2, #0]
#endif

#if defined(DUAL_CORE) && defined(CORE_CM4)
  SystemCoreClock = SystemD2Clock;
#else
  SystemCoreClock = common_system_clock;
 80022b4:	4a0b      	ldr	r2, [pc, #44]	; (80022e4 <HAL_Init+0x74>)
 80022b6:	687b      	ldr	r3, [r7, #4]
 80022b8:	6013      	str	r3, [r2, #0]
#endif /* DUAL_CORE && CORE_CM4 */

  /* Use systick as time base source and configure 1ms tick (default clock after Reset is HSI) */
  if(HAL_InitTick(TICK_INT_PRIORITY) != HAL_OK)
 80022ba:	200f      	movs	r0, #15
 80022bc:	f000 f814 	bl	80022e8 <HAL_InitTick>
 80022c0:	4603      	mov	r3, r0
 80022c2:	2b00      	cmp	r3, #0
 80022c4:	d001      	beq.n	80022ca <HAL_Init+0x5a>
  {
    return HAL_ERROR;
 80022c6:	2301      	movs	r3, #1
 80022c8:	e002      	b.n	80022d0 <HAL_Init+0x60>
  }

  /* Init the low level hardware */
  HAL_MspInit();
 80022ca:	f7ff fb6f 	bl	80019ac <HAL_MspInit>

  /* Return function status */
  return HAL_OK;
 80022ce:	2300      	movs	r3, #0
}
 80022d0:	4618      	mov	r0, r3
 80022d2:	3708      	adds	r7, #8
 80022d4:	46bd      	mov	sp, r7
 80022d6:	bd80      	pop	{r7, pc}
 80022d8:	58024400 	.word	0x58024400
 80022dc:	0800f148 	.word	0x0800f148
 80022e0:	24000010 	.word	0x24000010
 80022e4:	2400000c 	.word	0x2400000c

080022e8 <HAL_InitTick>:
  *       implementation  in user file.
  * @param TickPriority: Tick interrupt priority.
  * @retval HAL status
  */
__weak HAL_StatusTypeDef HAL_InitTick(uint32_t TickPriority)
{
 80022e8:	b580      	push	{r7, lr}
 80022ea:	b082      	sub	sp, #8
 80022ec:	af00      	add	r7, sp, #0
 80022ee:	6078      	str	r0, [r7, #4]
  /* Check uwTickFreq for MisraC 2012 (even if uwTickFreq is a enum type that don't take the value zero)*/
  if((uint32_t)uwTickFreq == 0UL)
 80022f0:	4b15      	ldr	r3, [pc, #84]	; (8002348 <HAL_InitTick+0x60>)
 80022f2:	781b      	ldrb	r3, [r3, #0]
 80022f4:	2b00      	cmp	r3, #0
 80022f6:	d101      	bne.n	80022fc <HAL_InitTick+0x14>
  {
    return HAL_ERROR;
 80022f8:	2301      	movs	r3, #1
 80022fa:	e021      	b.n	8002340 <HAL_InitTick+0x58>
  }

    /* Configure the SysTick to have interrupt in 1ms time basis*/
    if (HAL_SYSTICK_Config(SystemCoreClock / (1000UL / (uint32_t)uwTickFreq)) > 0U)
 80022fc:	4b13      	ldr	r3, [pc, #76]	; (800234c <HAL_InitTick+0x64>)
 80022fe:	681a      	ldr	r2, [r3, #0]
 8002300:	4b11      	ldr	r3, [pc, #68]	; (8002348 <HAL_InitTick+0x60>)
 8002302:	781b      	ldrb	r3, [r3, #0]
 8002304:	4619      	mov	r1, r3
 8002306:	f44f 737a 	mov.w	r3, #1000	; 0x3e8
 800230a:	fbb3 f3f1 	udiv	r3, r3, r1
 800230e:	fbb2 f3f3 	udiv	r3, r2, r3
 8002312:	4618      	mov	r0, r3
 8002314:	f002 f825 	bl	8004362 <HAL_SYSTICK_Config>
 8002318:	4603      	mov	r3, r0
 800231a:	2b00      	cmp	r3, #0
 800231c:	d001      	beq.n	8002322 <HAL_InitTick+0x3a>
    {
      return HAL_ERROR;
 800231e:	2301      	movs	r3, #1
 8002320:	e00e      	b.n	8002340 <HAL_InitTick+0x58>
    }

  /* Configure the SysTick IRQ priority */
  if (TickPriority < (1UL << __NVIC_PRIO_BITS))
 8002322:	687b      	ldr	r3, [r7, #4]
 8002324:	2b0f      	cmp	r3, #15
 8002326:	d80a      	bhi.n	800233e <HAL_InitTick+0x56>
  {
    HAL_NVIC_SetPriority(SysTick_IRQn, TickPriority, 0U);
 8002328:	2200      	movs	r2, #0
 800232a:	6879      	ldr	r1, [r7, #4]
 800232c:	f04f 30ff 	mov.w	r0, #4294967295
 8002330:	f001 ffef 	bl	8004312 <HAL_NVIC_SetPriority>
    uwTickPrio = TickPriority;
 8002334:	4a06      	ldr	r2, [pc, #24]	; (8002350 <HAL_InitTick+0x68>)
 8002336:	687b      	ldr	r3, [r7, #4]
 8002338:	6013      	str	r3, [r2, #0]
  {
    return HAL_ERROR;
  }

  /* Return function status */
  return HAL_OK;
 800233a:	2300      	movs	r3, #0
 800233c:	e000      	b.n	8002340 <HAL_InitTick+0x58>
    return HAL_ERROR;
 800233e:	2301      	movs	r3, #1
}
 8002340:	4618      	mov	r0, r3
 8002342:	3708      	adds	r7, #8
 8002344:	46bd      	mov	sp, r7
 8002346:	bd80      	pop	{r7, pc}
 8002348:	24000018 	.word	0x24000018
 800234c:	2400000c 	.word	0x2400000c
 8002350:	24000014 	.word	0x24000014

08002354 <HAL_IncTick>:
 * @note This function is declared as __weak to be overwritten in case of other
  *      implementations in user file.
  * @retval None
  */
__weak void HAL_IncTick(void)
{
 8002354:	b480      	push	{r7}
 8002356:	af00      	add	r7, sp, #0
  uwTick += (uint32_t)uwTickFreq;
 8002358:	4b06      	ldr	r3, [pc, #24]	; (8002374 <HAL_IncTick+0x20>)
 800235a:	781b      	ldrb	r3, [r3, #0]
 800235c:	461a      	mov	r2, r3
 800235e:	4b06      	ldr	r3, [pc, #24]	; (8002378 <HAL_IncTick+0x24>)
 8002360:	681b      	ldr	r3, [r3, #0]
 8002362:	4413      	add	r3, r2
 8002364:	4a04      	ldr	r2, [pc, #16]	; (8002378 <HAL_IncTick+0x24>)
 8002366:	6013      	str	r3, [r2, #0]
}
 8002368:	bf00      	nop
 800236a:	46bd      	mov	sp, r7
 800236c:	f85d 7b04 	ldr.w	r7, [sp], #4
 8002370:	4770      	bx	lr
 8002372:	bf00      	nop
 8002374:	24000018 	.word	0x24000018
 8002378:	240008f4 	.word	0x240008f4

0800237c <HAL_GetTick>:
  * @note This function is declared as __weak to be overwritten in case of other
  *       implementations in user file.
  * @retval tick value
  */
__weak uint32_t HAL_GetTick(void)
{
 800237c:	b480      	push	{r7}
 800237e:	af00      	add	r7, sp, #0
  return uwTick;
 8002380:	4b03      	ldr	r3, [pc, #12]	; (8002390 <HAL_GetTick+0x14>)
 8002382:	681b      	ldr	r3, [r3, #0]
}
 8002384:	4618      	mov	r0, r3
 8002386:	46bd      	mov	sp, r7
 8002388:	f85d 7b04 	ldr.w	r7, [sp], #4
 800238c:	4770      	bx	lr
 800238e:	bf00      	nop
 8002390:	240008f4 	.word	0x240008f4

08002394 <HAL_Delay>:
  *       implementations in user file.
  * @param Delay  specifies the delay time length, in milliseconds.
  * @retval None
  */
__weak void HAL_Delay(uint32_t Delay)
{
 8002394:	b580      	push	{r7, lr}
 8002396:	b084      	sub	sp, #16
 8002398:	af00      	add	r7, sp, #0
 800239a:	6078      	str	r0, [r7, #4]
  uint32_t tickstart = HAL_GetTick();
 800239c:	f7ff ffee 	bl	800237c <HAL_GetTick>
 80023a0:	60b8      	str	r0, [r7, #8]
  uint32_t wait = Delay;
 80023a2:	687b      	ldr	r3, [r7, #4]
 80023a4:	60fb      	str	r3, [r7, #12]

  /* Add a freq to guarantee minimum wait */
  if (wait < HAL_MAX_DELAY)
 80023a6:	68fb      	ldr	r3, [r7, #12]
 80023a8:	f1b3 3fff 	cmp.w	r3, #4294967295
 80023ac:	d005      	beq.n	80023ba <HAL_Delay+0x26>
  {
    wait += (uint32_t)(uwTickFreq);
 80023ae:	4b0a      	ldr	r3, [pc, #40]	; (80023d8 <HAL_Delay+0x44>)
 80023b0:	781b      	ldrb	r3, [r3, #0]
 80023b2:	461a      	mov	r2, r3
 80023b4:	68fb      	ldr	r3, [r7, #12]
 80023b6:	4413      	add	r3, r2
 80023b8:	60fb      	str	r3, [r7, #12]
  }

  while ((HAL_GetTick() - tickstart) < wait)
 80023ba:	bf00      	nop
 80023bc:	f7ff ffde 	bl	800237c <HAL_GetTick>
 80023c0:	4602      	mov	r2, r0
 80023c2:	68bb      	ldr	r3, [r7, #8]
 80023c4:	1ad3      	subs	r3, r2, r3
 80023c6:	68fa      	ldr	r2, [r7, #12]
 80023c8:	429a      	cmp	r2, r3
 80023ca:	d8f7      	bhi.n	80023bc <HAL_Delay+0x28>
  {
  }
}
 80023cc:	bf00      	nop
 80023ce:	bf00      	nop
 80023d0:	3710      	adds	r7, #16
 80023d2:	46bd      	mov	sp, r7
 80023d4:	bd80      	pop	{r7, pc}
 80023d6:	bf00      	nop
 80023d8:	24000018 	.word	0x24000018

080023dc <HAL_GetREVID>:
/**
  * @brief  Returns the device revision identifier.
  * @retval Device revision identifier
  */
uint32_t HAL_GetREVID(void)
{
 80023dc:	b480      	push	{r7}
 80023de:	af00      	add	r7, sp, #0
   return((DBGMCU->IDCODE) >> 16);
 80023e0:	4b03      	ldr	r3, [pc, #12]	; (80023f0 <HAL_GetREVID+0x14>)
 80023e2:	681b      	ldr	r3, [r3, #0]
 80023e4:	0c1b      	lsrs	r3, r3, #16
}
 80023e6:	4618      	mov	r0, r3
 80023e8:	46bd      	mov	sp, r7
 80023ea:	f85d 7b04 	ldr.w	r7, [sp], #4
 80023ee:	4770      	bx	lr
 80023f0:	5c001000 	.word	0x5c001000

080023f4 <HAL_SYSCFG_VREFBUF_HighImpedanceConfig>:
  *            @arg SYSCFG_VREFBUF_HIGH_IMPEDANCE_DISABLE: VREF+ pin is internally connect to VREFINT output.
  *            @arg SYSCFG_VREFBUF_HIGH_IMPEDANCE_ENABLE: VREF+ pin is high impedance.
  * @retval None
  */
void HAL_SYSCFG_VREFBUF_HighImpedanceConfig(uint32_t Mode)
{
 80023f4:	b480      	push	{r7}
 80023f6:	b083      	sub	sp, #12
 80023f8:	af00      	add	r7, sp, #0
 80023fa:	6078      	str	r0, [r7, #4]
  /* Check the parameters */
  assert_param(IS_SYSCFG_VREFBUF_HIGH_IMPEDANCE(Mode));

  MODIFY_REG(VREFBUF->CSR, VREFBUF_CSR_HIZ, Mode);
 80023fc:	4b06      	ldr	r3, [pc, #24]	; (8002418 <HAL_SYSCFG_VREFBUF_HighImpedanceConfig+0x24>)
 80023fe:	681b      	ldr	r3, [r3, #0]
 8002400:	f023 0202 	bic.w	r2, r3, #2
 8002404:	4904      	ldr	r1, [pc, #16]	; (8002418 <HAL_SYSCFG_VREFBUF_HighImpedanceConfig+0x24>)
 8002406:	687b      	ldr	r3, [r7, #4]
 8002408:	4313      	orrs	r3, r2
 800240a:	600b      	str	r3, [r1, #0]
}
 800240c:	bf00      	nop
 800240e:	370c      	adds	r7, #12
 8002410:	46bd      	mov	sp, r7
 8002412:	f85d 7b04 	ldr.w	r7, [sp], #4
 8002416:	4770      	bx	lr
 8002418:	58003c00 	.word	0x58003c00

0800241c <HAL_SYSCFG_DisableVREFBUF>:
  * @brief  Disable the Internal Voltage Reference buffer (VREFBUF).
  *
  * @retval None
  */
void HAL_SYSCFG_DisableVREFBUF(void)
{
 800241c:	b480      	push	{r7}
 800241e:	af00      	add	r7, sp, #0
  CLEAR_BIT(VREFBUF->CSR, VREFBUF_CSR_ENVR);
 8002420:	4b05      	ldr	r3, [pc, #20]	; (8002438 <HAL_SYSCFG_DisableVREFBUF+0x1c>)
 8002422:	681b      	ldr	r3, [r3, #0]
 8002424:	4a04      	ldr	r2, [pc, #16]	; (8002438 <HAL_SYSCFG_DisableVREFBUF+0x1c>)
 8002426:	f023 0301 	bic.w	r3, r3, #1
 800242a:	6013      	str	r3, [r2, #0]
}
 800242c:	bf00      	nop
 800242e:	46bd      	mov	sp, r7
 8002430:	f85d 7b04 	ldr.w	r7, [sp], #4
 8002434:	4770      	bx	lr
 8002436:	bf00      	nop
 8002438:	58003c00 	.word	0x58003c00

0800243c <LL_ADC_SetCommonClock>:
  *         @arg @ref LL_ADC_CLOCK_ASYNC_DIV128
  *         @arg @ref LL_ADC_CLOCK_ASYNC_DIV256
  * @retval None
  */
__STATIC_INLINE void LL_ADC_SetCommonClock(ADC_Common_TypeDef *ADCxy_COMMON, uint32_t CommonClock)
{
 800243c:	b480      	push	{r7}
 800243e:	b083      	sub	sp, #12
 8002440:	af00      	add	r7, sp, #0
 8002442:	6078      	str	r0, [r7, #4]
 8002444:	6039      	str	r1, [r7, #0]
  MODIFY_REG(ADCxy_COMMON->CCR, ADC_CCR_CKMODE | ADC_CCR_PRESC, CommonClock);
 8002446:	687b      	ldr	r3, [r7, #4]
 8002448:	689b      	ldr	r3, [r3, #8]
 800244a:	f423 127c 	bic.w	r2, r3, #4128768	; 0x3f0000
 800244e:	683b      	ldr	r3, [r7, #0]
 8002450:	431a      	orrs	r2, r3
 8002452:	687b      	ldr	r3, [r7, #4]
 8002454:	609a      	str	r2, [r3, #8]
}
 8002456:	bf00      	nop
 8002458:	370c      	adds	r7, #12
 800245a:	46bd      	mov	sp, r7
 800245c:	f85d 7b04 	ldr.w	r7, [sp], #4
 8002460:	4770      	bx	lr

08002462 <LL_ADC_SetCommonPathInternalCh>:
  *         @arg @ref LL_ADC_PATH_INTERNAL_TEMPSENSOR
  *         @arg @ref LL_ADC_PATH_INTERNAL_VBAT
  * @retval None
  */
__STATIC_INLINE void LL_ADC_SetCommonPathInternalCh(ADC_Common_TypeDef *ADCxy_COMMON, uint32_t PathInternal)
{
 8002462:	b480      	push	{r7}
 8002464:	b083      	sub	sp, #12
 8002466:	af00      	add	r7, sp, #0
 8002468:	6078      	str	r0, [r7, #4]
 800246a:	6039      	str	r1, [r7, #0]
  MODIFY_REG(ADCxy_COMMON->CCR, ADC_CCR_VREFEN | ADC_CCR_TSEN | ADC_CCR_VBATEN, PathInternal);
 800246c:	687b      	ldr	r3, [r7, #4]
 800246e:	689b      	ldr	r3, [r3, #8]
 8002470:	f023 72e0 	bic.w	r2, r3, #29360128	; 0x1c00000
 8002474:	683b      	ldr	r3, [r7, #0]
 8002476:	431a      	orrs	r2, r3
 8002478:	687b      	ldr	r3, [r7, #4]
 800247a:	609a      	str	r2, [r3, #8]
}
 800247c:	bf00      	nop
 800247e:	370c      	adds	r7, #12
 8002480:	46bd      	mov	sp, r7
 8002482:	f85d 7b04 	ldr.w	r7, [sp], #4
 8002486:	4770      	bx	lr

08002488 <LL_ADC_GetCommonPathInternalCh>:
  *         @arg @ref LL_ADC_PATH_INTERNAL_VREFINT
  *         @arg @ref LL_ADC_PATH_INTERNAL_TEMPSENSOR
  *         @arg @ref LL_ADC_PATH_INTERNAL_VBAT
  */
__STATIC_INLINE uint32_t LL_ADC_GetCommonPathInternalCh(ADC_Common_TypeDef *ADCxy_COMMON)
{
 8002488:	b480      	push	{r7}
 800248a:	b083      	sub	sp, #12
 800248c:	af00      	add	r7, sp, #0
 800248e:	6078      	str	r0, [r7, #4]
  return (uint32_t)(READ_BIT(ADCxy_COMMON->CCR, ADC_CCR_VREFEN | ADC_CCR_TSEN | ADC_CCR_VBATEN));
 8002490:	687b      	ldr	r3, [r7, #4]
 8002492:	689b      	ldr	r3, [r3, #8]
 8002494:	f003 73e0 	and.w	r3, r3, #29360128	; 0x1c00000
}
 8002498:	4618      	mov	r0, r3
 800249a:	370c      	adds	r7, #12
 800249c:	46bd      	mov	sp, r7
 800249e:	f85d 7b04 	ldr.w	r7, [sp], #4
 80024a2:	4770      	bx	lr

080024a4 <LL_ADC_SetOffset>:
